:100000000C9446000C9465000C9465000C946500FB
:100010000C9465000C9465000C9465000C946500CC
:100020000C9465000C9465000C9465000C946500BC
:100030000C9465000C9447020C9465000C946500C8
:100040000C9465000C9465000C9465000C9465009C
:100050000C9465000C9465000C9465000C9465008C
:100060000C9465000C9465000C9465000C9465007C
:100070000C9465000C9465000C9465000C9465006C
:100080000C9465000C9465000C94650011241FBE4F
:10009000CFEFD0E4DEBFCDBF11E0A0E0B1E0E6EDF0
:1000A000F4E100E00BBF02C007900D92A632B10749
:1000B000D9F721E0A6E2B1E001C01D92A636B20751
:1000C000E1F70E9448070C94690A0C940000CF9352
:1000D000DF9300D01F92CDB7DEB789837B836A831D
:1000E00089818A3031F48A819B81BC018DE00E9434
:1000F000670080EC90E0FC018081882F90E08072A6
:100100009927892BB1F386EC90E02981FC012083AB
:1001100080E090E00F900F900F90DF91CF910895C5
:10012000CF93DF9300D01F92CDB7DEB789836A8368
:100130004B838B81882371F08A81282F30E081E006
:1001400090E002C0880F991F2A95E2F7982F8981C5
:10015000892B0EC08A81282F30E081E090E002C018
:10016000880F991F2A95E2F7982F90958981892306
:100170000F900F900F90DF91CF910895CF93DF9361
:1001800000D0CDB7DEB789836A838A81282F30E01B
:1001900081E090E002C0880F991F2A95E2F7982F1E
:1001A000898189230F900F90DF91CF9108950F934C
:1001B0001F93CF93DF93CDB7DEB708E210E040E0A6
:1001C00064E08FEF0E949000F8018083000086E2D7
:1001D00090E0FC018081809560E00E94BE00882351
:1001E00011F081E3D3C086E290E0FC01808180952C
:1001F00061E00E94BE00882311F084E3C7C086E25C
:1002000090E0FC018081809562E00E94BE0088231E
:1002100011F087E3BBC086E290E0FC01808180950D
:1002200063E00E94BE00882311F08AE2AFC008E2BA
:1002300010E040E065E08FEF0E949000F8018083BD
:10024000000086E290E0FC018081809560E00E94E1
:10025000BE00882311F082E399C086E290E0FC01A1
:100260008081809561E00E94BE00882311F085E3C3
:100270008DC086E290E0FC018081809562E00E9462
:10028000BE00882311F088E381C086E290E0FC0183
:100290008081809563E00E94BE00882311F080E396
:1002A00075C008E210E040E066E08FEF0E94900029
:1002B000F8018083000086E290E0FC018081809557
:1002C00060E00E94BE00882311F083E35FC086E2F5
:1002D00090E0FC018081809561E00E94BE0088234F
:1002E00011F086E353C086E290E0FC0180818095A6
:1002F00062E00E94BE00882311F089E347C086E2D5
:1003000090E0FC018081809563E00E94BE0088231C
:1003100011F083E23BC008E210E040E067E08FEFBD
:100320000E949000F8018083000086E290E0FC01CA
:100330008081809560E00E94BE00882311F081E4F6
:1003400025C086E290E0FC018081809561E00E94FA
:10035000BE00882311F082E419C086E290E0FC011F
:100360008081809562E00E94BE00882311F083E4C2
:100370000DC086E290E0FC018081809563E00E94E0
:10038000BE00882311F084E401C080E0DF91CF91AA
:100390001F910F910895CF93DF9300D000D0CDB778
:1003A000DEB769837A838B839C8389819A81AB8151
:1003B000BC8180930E0190930F01A0931001B09324
:1003C000110180910E0190910F01A0911001B09147
:1003D00011018093270190932801A0932901B093E4
:1003E0002A0100000F900F900F900F90DF91CF9196
:1003F0000895CF93DF93CDB7DEB781E890E02BE08F
:10040000FC01208388E890E02DE730E0FC01318397
:1004100020838FE690E022E0FC01208384E890E0D6
:10042000FC011182108280910E0190910F01A09128
:100430001001B09111018093270190932801A0939E
:100440002901B0932A018FE590E02FE530E0F90112
:1004500020812068FC0120830000DF91CF91089566
:10046000CF93DF93CDB7DEB781E890E0FC01108237
:100470000000DF91CF910895CF93DF93CDB7DEB722
:1004800081E0809326010000DF91CF9108951F92B3
:100490000F9200905F000F92112400905B000F926A
:1004A0002F933F934F935F936F937F938F939F937C
:1004B000AF93BF93EF93FF93CF93DF93CDB7DEB7A7
:1004C0008091270190912801A0912901B0912A01E2
:1004D0000197A109B1098093270190932801A09366
:1004E0002901B0932A018091270190912801A091C0
:1004F0002901B0912A01892B8A2B8B2B91F40E9420
:100500003C0280910E0190910F01A0911001B091D9
:1005100011018093270190932801A0932901B093A2
:100520002A010000DF91CF91FF91EF91BF91AF9130
:100530009F918F917F916F915F914F913F912F91FB
:100540000F9000925B000F9000925F000F901F9041
:1005500018950F931F93CF93DF9300D000D0CDB7A2
:10056000DEB769837A838B839C8380913401909179
:100570003501A0913601B09137019C01AD0169812F
:100580007A818B819C810E94D508882309F477C0E9
:1005900020E030E0A90169817A818B819C810E94F1
:1005A000D508882351F481E990E021E930E0F90190
:1005B00020812870FC01208309C081E990E021E9B5
:1005C00030E0F90120812360FC01208328E539E334
:1005D00044E75FE369817A818B819C810E94D50821
:1005E000882344F488E990E02FEF3FEFFC0131834A
:1005F000208334C020E034E244EF56E469817A81FC
:100600008B819C810E94F709181634F488E990E0E8
:10061000FC011182108222C008E910E020E030E0E5
:1006200040E053E469817A818B819C810E94FC09BE
:10063000DC01CB019C01AD0160E074E284EF9AE43F
:100640000E94DA08DC01CB01BC01CD010E944C09FB
:10065000DC01CB010197F8019183808384E990E06C
:10066000FC011182108289819A81AB81BC818093C7
:10067000340190933501A0933601B0933701000007
:100680000F900F900F900F90DF91CF911F910F91CE
:100690000895CF93DF93CDB7DEB780E990E020E4F3
:1006A000FC01208381E990E02BE0FC01208360E0E5
:1006B00070E0CB010E94A9020000DF91CF91089564
:1006C000CF93DF93CDB7DEB780E990E0FC011082D5
:1006D00081E990E0FC0110820000DF91CF91089544
:1006E000CF93DF9300D0CDB7DEB79A8389830E9482
:1006F000D7008093640189819A818130910599F0B6
:10070000823091051CF4892B49F0E9C082309105B3
:1007100009F451C0039709F496C0E1C081E090E06C
:100720009A838983E0C08091300190913101892BB7
:1007300009F580912C0190912D018C5E9E4FFC015A
:10074000908180916401981729F482E090E09A8367
:100750008983C9C080916401882329F482E090E0F4
:100760009A838983C0C01A82198210922D01109237
:100770002C01B9C080912E0190912F01865E9E4F71
:10078000FC01908180916401981729F482E090E047
:100790009A838983A8C080916401882329F482E028
:1007A00090E09A8389839FC01A82198210922F0148
:1007B00010922E0198C08091300190913101892BC7
:1007C00009F580916401882329F481E090E09A83FF
:1007D000898389C080912C0190912D018C5E9E4F60
:1007E000FC01908180916401981729F483E090E0E6
:1007F0009A83898378C01A82198210922D011092EF
:100800002C0171C080916401882329F481E090E07B
:100810009A83898368C080912E0190912F01865E12
:100820009E4FFC01908180916401981729F483E028
:1008300090E09A83898357C01A82198210922F01FF
:1008400010922E0150C08091300190913101892B7E
:1008500019F580912C0190912D018C5E9E4FFC0129
:10086000908180916401981729F483E090E09A8345
:10087000898338C0809164018823A1F580912C017F
:1008800090912D01019690932D0180932C0181E090
:1008900090E09A83898326C080912E0190912F0148
:1008A000865E9E4FFC01908180916401981729F427
:1008B00083E090E09A83898315C080916401882346
:1008C00089F480912E0190912F01019690932F0130
:1008D00080932E0181E090E09A83898303C01A827D
:1008E000198201C0000089819A818130910589F0C7
:1008F000823091051CF4892B39F039C08230910582
:10090000D9F10397D9F133C085E290E0FC01108260
:1009100038C08091300190913101892BA1F48091F0
:100920002C0190912D01069759F585E290E021E088
:10093000FC01208310922D0110922C0110921301C2
:10094000109212011DC080912E0190912F010497E9
:10095000B9F485E290E021E0FC01208310922F01A0
:1009600010922E01109213011092120109C085E21B
:1009700090E0FC01108205C0000003C0000001C02F
:10098000000089819A810F900F90DF91CF91089597
:10099000CF93DF9300D0CDB7DEB79A838983898167
:1009A0009A81009719F0019779F01CC083E290E0DA
:1009B000FC01808188232CF081E090E09A83898378
:1009C00014C01A82198211C083E290E0FC01808178
:1009D00088232CF081E090E09A83898306C01A82F4
:1009E000198203C01A821982000089819A810097B6
:1009F000A1F0019709F014C08091120190911301A8
:100A0000892B69F485E290E0FC01108281E090E09E
:100A1000909313018093120102C0000001C00000F6
:100A200089819A810F900F90DF91CF910895CF9394
:100A3000DF9300D0CDB7DEB79A83898389819A810D
:100A40008230910551F1833091052CF4009751F0DB
:100A5000019779F06FC08330910599F1049709F4FB
:100A600057C068C00E94490381E090E09A8389835F
:100A700064C080E290E0FC018081882F90E081706A
:100A80009927892B29F482E090E09A83898355C0C5
:100A900081E090E09A83898350C080E290E0FC017D
:100AA0008081882F90E081709927892B29F483E039
:100AB00090E09A83898341C082E090E09A838983A1
:100AC0003CC085E290E0FC0110828091320190915F
:100AD00033014E9778F080E290E0FC018081882F0E
:100AE00090E081709927892B29F484E090E09A8323
:100AF000898323C080913201909133014E9718F081
:100B00001A8219821AC083E090E09A83898315C003
:100B100080E290E0FC018081882F90E0817099272D
:100B2000892B19F01A82198208C084E090E09A8318
:100B3000898303C01A821982000089819A818230D8
:100B4000910589F0833091053CF4009709F4AFC01A
:100B5000019709F4AEC0AEC08330910549F0049707
:100B600009F49EC0A7C01092330110923201A2C0B6
:100B70008091320190913301029738F464EA70ED6C
:100B800082E893E40E94A90281C080913201909191
:100B90003301069738F464EA70ED82E893E40E942A
:100BA000A90274C08091320190913301089738F402
:100BB0006BE774ED82E993E40E94A90267C080911B
:100BC0003201909133010A9738F464EA70ED82E8BB
:100BD00093E40E94A9025AC080913201909133019E
:100BE0000E9738F461E77DE98EEA93E40E94A9024A
:100BF0004DC08091320190913301429738F464EAFC
:100C000070ED84EA93E40E94A90240C08091320111
:100C100090913301449738F464EA70ED82E893E4EC
:100C20000E94A90233C0809132019091330147970D
:100C300038F46BE774ED82E993E40E94A90226C0C0
:100C400080913201909133014A9738F464EA70ED53
:100C500082E893E40E94A90219C080913201909128
:100C600033014C9738F460E070E084EC93E40E9428
:100C7000A9020CC080913201909133014E9730F45B
:100C800061E77DE98EEA93E40E94A9028091320136
:100C900090913301019690933301809332010AC001
:100CA0000E946003109233011092320103C00000D1
:100CB00001C0000089819A810F900F90DF91CF9140
:100CC0000895CF93DF9300D0CDB7DEB79A838983A1
:100CD0000E94D7008093650189819A8182309105B5
:100CE00009F455C0833091052CF4009771F00197F9
:100CF00089F086C08430910531F1843091050CF47F
:100D00006DC0059709F45CC07BC081E090E09A83D8
:100D1000898379C082E290E02FEFFC0120838091EB
:100D200065018A3259F483E290E0FC0180818823D6
:100D30002CF084E090E09A83898365C081E090E0A4
:100D40009A83898360C0809165018A3259F483E275
:100D500090E0FC01808188232CF084E090E09A836D
:100D6000898314C080916501882359F083E290E063
:100D7000FC01808188232CF482E090E09A838983AF
:100D800005C084E090E09A8389833DC03CC082E244
:100D900090E022E0FC01208389E290E0FC01808168
:100DA000882F90E080749927892B29F483E090E0C4
:100DB0009A83898328C085E090E09A83898323C041
:100DC00080916501882329F085E090E09A838983EA
:100DD0001AC084E090E09A83898315C089E290E08C
:100DE000FC018081882F90E080749927892B29F459
:100DF00083E090E09A83898306C01A82198203C037
:100E00001A821982000089819A818230910589F0C5
:100E1000833091052CF4009759F1019759F131C0B5
:100E20008430910549F184309105BCF0059731F18A
:100E300028C080916501882319F180912E0190913D
:100E40002F010497E8F480912E0190912F010196D3
:100E500090932F0180932E0113C081E090E0909336
:100E600031018093300110922F0110922E0109C0A0
:100E7000000007C0000005C0000003C0000001C062
:100E8000000089819A810F900F90DF91CF91089592
:100E90000F931F93CF93DF93CDB7DEB72D970FB688
:100EA000F894DEBF0FBECDBF87E290E020EFFC01DB
:100EB000208388E290E02FE0FC01208384E290E030
:100EC0002FE5FC01208385E290E020EEFC012083E9
:100ED0008AE290E02FE3FC0120838BE290E0FC01AA
:100EE000108281E290E02EE0FC01208382E290E01B
:100EF000FC01108288E0EEE1F1E0DE01169601903F
:100F00000D928A95E1F784E090E09C838B838FEFCC
:100F10008D838D818093380182E390E0A0E0B0E082
:100F20008093390190933A01A0933B01B0933C0127
:100F30008091390190913A01A0913B01B0913C011F
:100F400080933D0190933E01A0933F01B0934001F7
:100F500080E793E090934201809341018D818093DB
:100F6000430182E390E0A0E0B0E0809344019093DD
:100F70004501A0934601B0934701809144019091AF
:100F80004501A0914601B09147018093480190939B
:100F90004901A0934A01B0934B0188EC94E09093EF
:100FA0004D0180934C018D8180934E0184E690E049
:100FB000A0E0B0E080934F0190935001A0935101C5
:100FC000B093520180914F0190915001A091510135
:100FD000B09152018093530190935401A093550115
:100FE000B093560187E195E09093580180935701A3
:100FF0008D818093590182E390E0A0E0B0E080937E
:101000005A0190935B01A0935C01B0935D018091C4
:101010005A0190915B01A0915C01B0915D018093B8
:101020005E0190935F01A0936001B093610181E63E
:1010300096E0909363018093620162E370E080E048
:1010400090E00E94CB010E94F9011A8219821A8253
:1010500019829BC089819A81880F991F9E012F5FF9
:101060003F4F820F931F0596FC0180819181FC0107
:10107000258136814781508589819A81880F991F02
:10108000BE016F5F7F4F860F971F0596FC01808121
:101090009181FC0181819281A381B4812817390754
:1010A0004A075B0709F045C089819A81880F991F1B
:1010B0009E012F5F3F4F820F931F0596FC01008119
:1010C000118189819A81880F991F9E012F5F3F4F5F
:1010D000820F931F0596FC0180819181FC0121857F
:1010E000328589819A81880F991FAE014F5F5F4FCA
:1010F000840F951F0596FC0180819181FC01808100
:10110000082E000C990BF9010995F801808389815B
:101110009A81880F991F9E012F5F3F4F820F931F67
:101120000596FC0180819181FC011582168217824F
:10113000108689819A81880F991F9E012F5F3F4FEA
:10114000820F931F0596FC012081318189819A814C
:10115000880F991FAE014F5F5F4F840F951F059653
:10116000FC0180819181FC0185819681A781B085F8
:10117000C296A11DB11DF90185839683A783B0870F
:1011800089819A8101969A83898329813A818B8109
:101190009C812817390708F45DCF00008091260153
:1011A0008823E1F31092260152CF0E94820908F4AD
:1011B00081E008950E94EE080C94BD090E94B609D2
:1011C00058F00E94AF0940F029F45F3F29F00C94D9
:1011D000A60951110C94F1090C94AC090E94CE0996
:1011E00068F39923B1F3552391F3951B550BBB2756
:1011F000AA2762177307840738F09F5F5F4F220F9B
:10120000331F441FAA1FA9F335D00E2E3AF0E0E891
:1012100032D091505040E695001CCAF72BD0FE2FDB
:1012200029D0660F771F881FBB1F2617370748076F
:10123000AB07B0E809F0BB0B802DBF01FF27935827
:101240005F4F3AF09E3F510578F00C94A6090C943C
:10125000F1095F3FE4F3983ED4F38695779567955F
:10126000B795F7959F5FC9F7880F911D969587955C
:1012700097F90895E1E0660F771F881FBB1F62177B
:1012800073078407BA0720F0621B730B840BBA0B39
:10129000EE1F88F7E09508950E9453096894B111F4
:1012A0000C94F10908950E94D60988F09F5798F090
:1012B000B92F9927B751B0F0E1F0660F771F881F5B
:1012C000991F1AF0BA95C9F714C0B13091F00E9475
:1012D000F009B1E008950C94F009672F782F882762
:1012E000B85F39F0B93FCCF3869577956795B3959C
:1012F000D9F73EF490958095709561957F4F8F4F0B
:101300009F4F0895990F0008550FAA0BE0E8FEEFD4
:1013100016161706E807F907C0F012161306E407B9
:10132000F50798F0621B730B840B950B39F40A26B2
:1013300061F0232B242B252B21F408950A2609F490
:10134000A140A6958FEF811D811D089597F99F6794
:1013500080E870E060E008959FEF80EC089500243D
:101360000A941616170618060906089500240A940A
:1013700012161306140605060895092E0394000C90
:1013800011F4882352F0BB0F40F4BF2B11F460FF1F
:1013900004C06F5F7F4F8F4F9F4F089557FD905848
:1013A000440F551F59F05F3F71F04795880F97FB29
:1013B000991F61F09F3F79F08795089512161306E3
:1013C0001406551FF2CF4695F1DF08C01616170612
:1013D0001806991FF1CF8695710561050894089547
:1013E000E894BB2766277727CB0197F908950E94D9
:1013F000820908F48FEF08950E940F0A0C94BD092A
:101400000E94AF0938F00E94B60920F0952311F030
:101410000C94A6090C94AC0911240C94F1090E94B7
:10142000CE0970F3959FC1F3950F50E0551F629F51
:10143000F001729FBB27F00DB11D639FAA27F00D2D
:10144000B11DAA1F649F6627B00DA11D661F829F54
:101450002227B00DA11D621F739FB00DA11D621F39
:10146000839FA00D611D221F749F3327A00D611D56
:10147000231F849F600D211D822F762F6A2F112438
:101480009F5750409AF0F1F088234AF0EE0FFF1F6B
:10149000BB1F661F771F881F91505040A9F79E3FC2
:1014A000510580F00C94A6090C94F1095F3FE4F318
:1014B000983ED4F3869577956795B795F795E79518
:1014C0009F5FC1F7FE2B880F911D9695879597F921
:0614D0000895F894FFCF1F
:1014D600000000020000000067000000000001009C
:1014E60000000100233132333435343536353801C6
:0614F60043014E01590103
:00000001FF
