:100000000C9446000C9465000C9465000C946500FB
:100010000C9465000C9465000C9465000C946500CC
:100020000C9465000C9465000C9465000C946500BC
:100030000C9465000C9447020C9465000C946500C8
:100040000C9465000C9465000C9465000C9465009C
:100050000C9465000C9465000C9465000C9465008C
:100060000C9465000C9465000C9465000C9465007C
:100070000C9465000C9465000C9465000C9465006C
:100080000C9465000C9465000C94650011241FBE4F
:10009000CFEFD0E4DEBFCDBF11E0A0E0B1E0EAE3F6
:1000A000FAE000E00BBF02C007900D92AA31B10741
:1000B000D9F721E0AAE1B1E001C01D92A933B2074E
:1000C000E1F70E94E2030C941B050C940000CF930F
:1000D000DF9300D01F92CDB7DEB789837B836A831D
:1000E00089818A3031F48A819B81BC018DE00E9434
:1000F000670080EC90E0FC018081882F90E08072A6
:100100009927892BB1F386EC90E02981FC012083AB
:1001100080E090E00F900F900F90DF91CF910895C5
:10012000CF93DF9300D01F92CDB7DEB789836A8368
:100130004B838B81882371F08A81282F30E081E006
:1001400090E002C0880F991F2A95E2F7982F8981C5
:10015000892B0EC08A81282F30E081E090E002C018
:10016000880F991F2A95E2F7982F90958981892306
:100170000F900F900F90DF91CF910895CF93DF9361
:1001800000D0CDB7DEB789836A838A81282F30E01B
:1001900081E090E002C0880F991F2A95E2F7982F1E
:1001A000898189230F900F90DF91CF9108950F934C
:1001B0001F93CF93DF93CDB7DEB708E210E040E0A6
:1001C00064E08FEF0E949000F8018083000086E2D7
:1001D00090E0FC018081809560E00E94BE00882351
:1001E00011F081E3D3C086E290E0FC01808180952C
:1001F00061E00E94BE00882311F084E3C7C086E25C
:1002000090E0FC018081809562E00E94BE0088231E
:1002100011F087E3BBC086E290E0FC01808180950D
:1002200063E00E94BE00882311F08AE2AFC008E2BA
:1002300010E040E065E08FEF0E949000F8018083BD
:10024000000086E290E0FC018081809560E00E94E1
:10025000BE00882311F082E399C086E290E0FC01A1
:100260008081809561E00E94BE00882311F085E3C3
:100270008DC086E290E0FC018081809562E00E9462
:10028000BE00882311F088E381C086E290E0FC0183
:100290008081809563E00E94BE00882311F080E396
:1002A00075C008E210E040E066E08FEF0E94900029
:1002B000F8018083000086E290E0FC018081809557
:1002C00060E00E94BE00882311F083E35FC086E2F5
:1002D00090E0FC018081809561E00E94BE0088234F
:1002E00011F086E353C086E290E0FC0180818095A6
:1002F00062E00E94BE00882311F089E347C086E2D5
:1003000090E0FC018081809563E00E94BE0088231C
:1003100011F083E23BC008E210E040E067E08FEFBD
:100320000E949000F8018083000086E290E0FC01CA
:100330008081809560E00E94BE00882311F081E4F6
:1003400025C086E290E0FC018081809561E00E94FA
:10035000BE00882311F082E419C086E290E0FC011F
:100360008081809562E00E94BE00882311F083E4C2
:100370000DC086E290E0FC018081809563E00E94E0
:10038000BE00882311F084E401C080E0DF91CF91AA
:100390001F910F910895CF93DF9300D000D0CDB778
:1003A000DEB769837A838B839C8389819A81AB8151
:1003B000BC8180930E0190930F01A0931001B09324
:1003C000110180910E0190910F01A0911001B09147
:1003D000110180931B0190931C01A0931D01B09308
:1003E0001E0100000F900F900F900F90DF91CF91A2
:1003F0000895CF93DF93CDB7DEB781E890E02BE08F
:10040000FC01208388E890E02DE730E0FC01318397
:1004100020838FE690E022E0FC01208384E890E0D6
:10042000FC011182108280910E0190910F01A09128
:100430001001B091110180931B0190931C01A093B6
:100440001D01B0931E018FE590E02FE530E0F9012A
:1004500020812068FC0120830000DF91CF91089566
:10046000CF93DF93CDB7DEB781E890E0FC01108237
:100470000000DF91CF910895CF93DF93CDB7DEB722
:1004800081E080931A010000DF91CF9108951F92BF
:100490000F9200905F000F92112400905B000F926A
:1004A0002F933F934F935F936F937F938F939F937C
:1004B000AF93BF93EF93FF93CF93DF93CDB7DEB7A7
:1004C00080911B0190911C01A0911D01B0911E0112
:1004D0000197A109B10980931B0190931C01A0937E
:1004E0001D01B0931E0180911B0190911C01A091F0
:1004F0001D01B0911E01892B8A2B8B2B91F40E9438
:100500003C0280910E0190910F01A0911001B091D9
:10051000110180931B0190931C01A0931D01B093C6
:100520001E010000DF91CF91FF91EF91BF91AF913C
:100530009F918F917F916F915F914F913F912F91FB
:100540000F9000925B000F9000925F000F901F9041
:100550001895CF93DF9300D0CDB7DEB79A83898308
:100560000E94D7008093380189819A81813091055A
:1005700091F0823091051CF4892B41F071C08230DA
:10058000910551F1039709F448C06AC081E090E0F9
:100590009A83898369C080912001909121018C5EAA
:1005A0009E4FFC01908180913801981729F482E0D8
:1005B00090E09A83898358C080913801882329F478
:1005C00082E090E09A8389834FC01A821982109248
:1005D00021011092200148C080913801882329F41C
:1005E00081E090E09A8389833FC0809120019091BF
:1005F00021018C5E9E4FFC019081809138019817FB
:1006000029F483E090E09A8389832EC01A821982AC
:10061000109221011092200127C080912001909119
:1006200021018C5E9E4FFC019081809138019817CA
:1006300029F483E090E09A83898315C08091380182
:10064000882389F480912001909121010196909353
:1006500021018093200181E090E09A83898303C087
:100660001A82198201C0000089819A818130910526
:1006700089F0823091051CF4892B39F039C0823021
:10068000910521F1039759F133C085E290E0FC0117
:10069000108234C082E290E020912001309121014B
:1006A000FC0120838091200190912101069729F57A
:1006B00085E290E021E0FC0120831092210110925C
:1006C0002001109213011092120117C082E290E0F3
:1006D0002091200130912101FC0120830FC082E292
:1006E00090E02091200130912101FC01208306C07F
:1006F00085E290E0FC01108201C0000089819A81AE
:100700000F900F90DF91CF910895CF93DF9300D09A
:10071000CDB7DEB79A83898389819A81009719F0D2
:100720000197B1F02AC083E290E0FC018081882F1C
:1007300090E080959095807E99278038910529F4E6
:1007400081E090E09A8389831BC01A82198218C0C5
:1007500083E290E0FC018081882F90E08095909565
:10076000807E99278038910529F481E090E09A8372
:10077000898306C01A82198203C01A821982000076
:1007800089819A810097A1F0019709F014C08091A6
:10079000120190911301892B69F485E290E0FC012C
:1007A000108281E090E0909313018093120102C0C7
:1007B000000001C0000089819A810F900F90DF91A5
:1007C000CF9108950F931F93CF93DF93CDB7DEB7EB
:1007D00029970FB6F894DEBF0FBECDBF87E290E039
:1007E00020EFFC01208388E290E02FE0FC012083D1
:1007F00084E290E02FE1FC01208385E290E020EE8E
:10080000FC01208381E290E02FEFFC01208382E253
:1008100090E0FC01108282E291E09F838E838DE262
:1008200091E09987888782E090E09C838B838FEFAB
:100830008D838D818093220182E390E0A0E0B0E07F
:100840008093230190932401A0932501B093260166
:100850008091230190912401A0912501B09126015E
:100860008093270190932801A0932901B0932A0136
:1008700089EA92E090932C0180932B018D818093E3
:100880002D0182E390E0A0E0B0E080932E019093F0
:100890002F01A0933001B093310180912E019091EE
:1008A0002F01A0913001B0913101809332019093DA
:1008B0003301A0933401B093350185E893E0909320
:1008C00037018093360162E370E080E090E00E949F
:1008D000CB010E94F9011A8219821A8219829BC0E7
:1008E00089819A81880F991F9E012F5F3F4F820F48
:1008F000931F0596FC0180819181FC012581368141
:100900004781508589819A81880F991FBE016F5F49
:100910007F4F860F971F0596FC0180819181FC0116
:1009200081819281A381B481281739074A075B0727
:1009300009F045C089819A81880F991F9E012F5F18
:100940003F4F820F931F0596FC0100811181898121
:100950009A81880F991F9E012F5F3F4F820F931F2F
:100960000596FC0180819181FC0121853285898178
:100970009A81880F991FAE014F5F5F4F840F951FBB
:100980000596FC0180819181FC018081082E000C7C
:10099000990BF9010995F801808389819A81880F63
:1009A000991F9E012F5F3F4F820F931F0596FC01F9
:1009B00080819181FC0115821682178210868981BF
:1009C0009A81880F991F9E012F5F3F4F820F931FBF
:1009D0000596FC012081318189819A81880F991FB8
:1009E000AE014F5F5F4F840F951F0596FC0180811C
:1009F0009181FC0185819681A781B085C296A11D58
:100A0000B11DF90185839683A783B08789819A8177
:100A100001969A83898329813A818B819C81281749
:100A2000390708F45DCF000080911A018823E1F3B3
:0A0A300010921A0152CFF894FFCF84
:100A3A000000000200000000670000000000010042
:0A0A4A00000001002331323334357F
:00000001FF
