:100000000C9446000C9465000C9465000C946500FB
:100010000C9465000C9465000C9465000C946500CC
:100020000C9465000C9465000C9465000C946500BC
:100030000C9465000C9447020C9465000C946500C8
:100040000C9465000C9465000C9465000C9465009C
:100050000C9465000C9465000C9465000C9465008C
:100060000C9465000C9465000C9465000C9465007C
:100070000C9465000C9465000C9465000C9465006C
:100080000C9465000C9465000C94650011241FBE4F
:10009000CFEFD0E4DEBFCDBF11E0A0E0B1E0ECEAED
:1000A000F1E100E00BBF02C007900D92A032B10752
:1000B000D9F721E0A0E2B1E001C01D92A035B2075E
:1000C000E1F70E94E1050C94D4080C940000CF9352
:1000D000DF9300D01F92CDB7DEB789837B836A831D
:1000E00089818A3031F48A819B81BC018DE00E9434
:1000F000670080EC90E0FC018081882F90E08072A6
:100100009927892BB1F386EC90E02981FC012083AB
:1001100080E090E00F900F900F90DF91CF910895C5
:10012000CF93DF9300D01F92CDB7DEB789836A8368
:100130004B838B81882371F08A81282F30E081E006
:1001400090E002C0880F991F2A95E2F7982F8981C5
:10015000892B0EC08A81282F30E081E090E002C018
:10016000880F991F2A95E2F7982F90958981892306
:100170000F900F900F90DF91CF910895CF93DF9361
:1001800000D0CDB7DEB789836A838A81282F30E01B
:1001900081E090E002C0880F991F2A95E2F7982F1E
:1001A000898189230F900F90DF91CF9108950F934C
:1001B0001F93CF93DF93CDB7DEB708E210E040E0A6
:1001C00064E08FEF0E949000F8018083000086E2D7
:1001D00090E0FC018081809560E00E94BE00882351
:1001E00011F081E3D3C086E290E0FC01808180952C
:1001F00061E00E94BE00882311F084E3C7C086E25C
:1002000090E0FC018081809562E00E94BE0088231E
:1002100011F087E3BBC086E290E0FC01808180950D
:1002200063E00E94BE00882311F08AE2AFC008E2BA
:1002300010E040E065E08FEF0E949000F8018083BD
:10024000000086E290E0FC018081809560E00E94E1
:10025000BE00882311F082E399C086E290E0FC01A1
:100260008081809561E00E94BE00882311F085E3C3
:100270008DC086E290E0FC018081809562E00E9462
:10028000BE00882311F088E381C086E290E0FC0183
:100290008081809563E00E94BE00882311F080E396
:1002A00075C008E210E040E066E08FEF0E94900029
:1002B000F8018083000086E290E0FC018081809557
:1002C00060E00E94BE00882311F083E35FC086E2F5
:1002D00090E0FC018081809561E00E94BE0088234F
:1002E00011F086E353C086E290E0FC0180818095A6
:1002F00062E00E94BE00882311F089E347C086E2D5
:1003000090E0FC018081809563E00E94BE0088231C
:1003100011F083E23BC008E210E040E067E08FEFBD
:100320000E949000F8018083000086E290E0FC01CA
:100330008081809560E00E94BE00882311F081E4F6
:1003400025C086E290E0FC018081809561E00E94FA
:10035000BE00882311F082E419C086E290E0FC011F
:100360008081809562E00E94BE00882311F083E4C2
:100370000DC086E290E0FC018081809563E00E94E0
:10038000BE00882311F084E401C080E0DF91CF91AA
:100390001F910F910895CF93DF9300D000D0CDB778
:1003A000DEB769837A838B839C8389819A81AB8151
:1003B000BC8180930E0190930F01A0931001B09324
:1003C000110180910E0190910F01A0911001B09147
:1003D00011018093210190932201A0932301B093F6
:1003E000240100000F900F900F900F90DF91CF919C
:1003F0000895CF93DF93CDB7DEB781E890E02BE08F
:10040000FC01208388E890E02DE730E0FC01318397
:1004100020838FE690E022E0FC01208384E890E0D6
:10042000FC011182108280910E0190910F01A09128
:100430001001B09111018093210190932201A093AA
:100440002301B09324018FE590E02FE530E0F9011E
:1004500020812068FC0120830000DF91CF91089566
:10046000CF93DF93CDB7DEB781E890E0FC01108237
:100470000000DF91CF910895CF93DF93CDB7DEB722
:1004800081E0809320010000DF91CF9108951F92B9
:100490000F9200905F000F92112400905B000F926A
:1004A0002F933F934F935F936F937F938F939F937C
:1004B000AF93BF93EF93FF93CF93DF93CDB7DEB7A7
:1004C0008091210190912201A0912301B0912401FA
:1004D0000197A109B1098093210190932201A09372
:1004E0002301B09324018091210190912201A091D8
:1004F0002301B0912401892B8A2B8B2B91F40E942C
:100500003C0280910E0190910F01A0911001B091D9
:1005100011018093210190932201A0932301B093B4
:1005200024010000DF91CF91FF91EF91BF91AF9136
:100530009F918F917F916F915F914F913F912F91FB
:100540000F9000925B000F9000925F000F901F9041
:1005500018950F931F93CF93DF9300D000D0CDB7A2
:10056000DEB769837A838B839C8380912A01909183
:100570002B01A0912C01B0912D019C01AD0169814D
:100580007A818B819C810E944007882309F477C07F
:1005900020E030E0A90169817A818B819C810E94F1
:1005A0004007882351F481E990E021E930E0F90126
:1005B00020812870FC01208309C081E990E021E9B5
:1005C00030E0F90120812360FC01208328E539E334
:1005D00044E75FE369817A818B819C810E944007B7
:1005E000882344F488E990E02FEF3FEFFC0131834A
:1005F000208334C020E034E244EF56E469817A81FC
:100600008B819C810E946208181634F488E990E07E
:10061000FC011182108222C008E910E020E030E0E5
:1006200040E053E469817A818B819C810E94670854
:10063000DC01CB019C01AD0160E074E284EF9AE43F
:100640000E944507DC01CB01BC01CD010E94B70728
:10065000DC01CB010197F8019183808384E990E06C
:10066000FC011182108289819A81AB81BC818093C7
:100670002A0190932B01A0932C01B0932D0100002F
:100680000F900F900F900F90DF91CF911F910F91CE
:100690000895CF93DF93CDB7DEB780E990E020E4F3
:1006A000FC01208381E990E02BE0FC01208360E0E5
:1006B00070E0CB010E94A9020000DF91CF91089564
:1006C000CF93DF93CDB7DEB780E990E0FC011082D5
:1006D00081E990E0FC0110820000DF91CF91089544
:1006E000CF93DF9300D0CDB7DEB79A8389830E9482
:1006F000D70080934F0189819A818130910591F0D3
:10070000823091051CF4892B41F071C08230910533
:1007100051F1039709F448C06AC081E090E09A83E0
:10072000898369C080912601909127018C5E9E4F3C
:10073000FC01908180914F01981729F482E090E0AC
:100740009A83898358C080914F01882329F482E0DD
:1007500090E09A8389834FC01A82198210922701F0
:100760001092260148C080914F01882329F481E02E
:1007700090E09A8389833FC0809126019091270160
:100780008C5E9E4FFC01908180914F01981729F457
:1007900083E090E09A8389832EC01A821982109296
:1007A00027011092260127C08091260190912701F0
:1007B0008C5E9E4FFC01908180914F01981729F427
:1007C00083E090E09A83898315C080914F0188234C
:1007D00089F4809126019091270101969093270139
:1007E0008093260181E090E09A83898303C01A8276
:1007F000198201C0000089819A818130910589F0B8
:10080000823091051CF4892B39F01FC0823091058C
:1008100009F1039709F119C085E290E0FC0110820B
:100820001EC080912601909127010697B9F485E2B8
:1008300090E021E0FC012083109227011092260114
:10084000109213011092120109C085E290E0FC01A0
:10085000108205C0000003C0000001C000008981B3
:100860009A810F900F90DF91CF910895CF93DF93EE
:1008700000D0CDB7DEB79A83898389819A810097AA
:1008800019F0019779F01CC083E290E0FC018081AF
:1008900088232CF081E090E09A83898314C01A8227
:1008A000198211C083E290E0FC01808188232CF042
:1008B00081E090E09A83898306C01A82198203C07E
:1008C0001A821982000089819A810097A1F001970C
:1008D00009F014C08091120190911301892B69F4E1
:1008E00085E290E0FC01108281E090E0909313019A
:1008F0008093120102C0000001C0000089819A812A
:100900000F900F90DF91CF910895CF93DF9300D098
:10091000CDB7DEB79A83898389819A818230910528
:1009200051F1833091052CF4009751F0019779F043
:100930006FC08330910599F1049709F457C068C0DE
:100940000E94490381E090E09A83898364C080E239
:1009500090E0FC018081882F90E081709927892B9D
:1009600029F482E090E09A83898355C081E090E089
:100970009A83898350C080E290E0FC018081882FB7
:1009800090E081709927892B29F483E090E09A8385
:10099000898341C082E090E09A8389833CC085E2EC
:1009A00090E0FC01108280912801909129014E97DE
:1009B00078F080E290E0FC018081882F90E08170E7
:1009C0009927892B29F484E090E09A83898323C0B6
:1009D00080912801909129014E9718F01A8219826E
:1009E0001AC083E090E09A83898315C080E290E08A
:1009F000FC018081882F90E081709927892B19F064
:100A00001A82198208C084E090E09A83898303C027
:100A10001A821982000089819A8182309105B1F091
:100A20008330910534F4009759F0019709F4C1C05F
:100A3000C1C083309105A1F0049709F4AEC0BAC0DB
:100A400082E290E021E0FC012083B4C082E290E0E9
:100A500022E0FC0120831092290110922801AAC0F3
:100A600082E290E023E0FC012083809128019091B4
:100A70002901029738F464EA70ED82E893E40E9459
:100A8000A90281C08091280190912901069738F42C
:100A900064EA70ED82E893E40E94A90274C0809138
:100AA000280190912901089738F46BE774ED82E9E9
:100AB00093E40E94A90267C08091280190912901C6
:100AC0000A9738F464EA70ED82E893E40E94A90280
:100AD0005AC080912801909129010E9738F461E75E
:100AE0007DE98EEA93E40E94A9024DC0809128011D
:100AF00090912901429738F464EA70ED84EA93E416
:100B00000E94A90240C08091280190912901449738
:100B100038F464EA70ED82E893E40E94A90233C0DD
:100B20008091280190912901479738F46BE774ED83
:100B300082E993E40E94A90226C080912801909145
:100B400029014A9738F464EA70ED82E893E40E9440
:100B5000A90219C080912801909129014C9738F47D
:100B600060E070E084EC93E40E94A9020CC08091E4
:100B70002801909129014E9730F461E77DE98EEAD2
:100B800093E40E94A9028091280190912901019685
:100B900090932901809328010DC082E290E024E027
:100BA000FC0120830E946003109229011092280109
:100BB00001C0000089819A810F900F90DF91CF9141
:100BC00008950F931F93CF93DF93CDB7DEB72B9785
:100BD0000FB6F894DEBF0FBECDBF87E290E020EFE6
:100BE000FC01208388E290E02FE0FC01208384E276
:100BF00090E02FE5FC01208385E290E020EEFC01EF
:100C0000208381E290E02EE0FC01208382E290E0EC
:100C1000FC01108286E0EAE1F1E0DE011696019027
:100C20000D928A95E1F783E090E09C838B838FEFB0
:100C30008D838D8180932E0182E390E0A0E0B0E06F
:100C400080932F0190933001A0933101B093320132
:100C500080912F0190913001A0913101B09132012A
:100C60008093330190933401A0933501B093360102
:100C700080E793E090933801809337018D818093D2
:100C8000390182E390E0A0E0B0E080933A019093D4
:100C90003B01A0933C01B0933D0180913A019091BA
:100CA0003B01A0913C01B0913D0180933E019093A6
:100CB0003F01A0934001B093410186E394E09093FB
:100CC0004301809342018D818093440184E690E04A
:100CD000A0E0B0E08093450190934601A0934701C6
:100CE000B09348018091450190914601A091470140
:100CF000B09148018093490190934A01A0934B0120
:100D0000B0934C0185E894E090934E0180934D019F
:100D100062E370E080E090E00E94CB010E94F90164
:100D20001A8219821A8219829BC089819A81880F3E
:100D3000991F9E012F5F3F4F820F931F0596FC0165
:100D400080819181FC01258136814781508589818F
:100D50009A81880F991FBE016F5F7F4F860F971F83
:100D60000596FC0180819181FC0181819281A381A2
:100D7000B481281739074A075B0709F045C0898104
:100D80009A81880F991F9E012F5F3F4F820F931FFB
:100D90000596FC010081118189819A81880F991F34
:100DA0009E012F5F3F4F820F931F0596FC018081AC
:100DB0009181FC012185328589819A81880F991F53
:100DC000AE014F5F5F4F840F951F0596FC01808138
:100DD0009181FC018081082E000C990BF901099585
:100DE000F801808389819A81880F991F9E012F5F66
:100DF0003F4F820F931F0596FC0180819181FC017A
:100E0000158216821782108689819A81880F991F10
:100E10009E012F5F3F4F820F931F0596FC0120819B
:100E2000318189819A81880F991FAE014F5F5F4F91
:100E3000840F951F0596FC0180819181FC018581BD
:100E40009681A781B085C296A11DB11DF901858348
:100E50009683A783B08789819A8101969A83898333
:100E600029813A818B819C812817390708F45DCF4D
:100E70000000809120018823E1F31092200152CFDD
:100E80000E94ED0708F481E008950E9459070C9430
:100E900028080E94210858F00E941A0840F029F4FE
:100EA0005F3F29F00C94110851110C945C080C94CC
:100EB00017080E94390868F39923B1F3552391F379
:100EC000951B550BBB27AA2762177307840738F0B9
:100ED0009F5F5F4F220F331F441FAA1FA9F335D016
:100EE0000E2E3AF0E0E832D091505040E695001CCA
:100EF000CAF72BD0FE2F29D0660F771F881FBB1F84
:100F0000261737074807AB07B0E809F0BB0B802D61
:100F1000BF01FF2793585F4F3AF09E3F510578F08D
:100F20000C9411080C945C085F3FE4F3983ED4F3F2
:100F3000869577956795B795F7959F5FC9F7880F61
:100F4000911D9695879597F90895E1E0660F771FB3
:100F5000881FBB1F621773078407BA0720F0621B44
:100F6000730B840BBA0BEE1F88F7E09508950E946F
:100F7000BE076894B1110C945C0808950E94410862
:100F800088F09F5798F0B92F9927B751B0F0E1F04A
:100F9000660F771F881F991F1AF0BA95C9F714C0FA
:100FA000B13091F00E945B08B1E008950C945B08A9
:100FB000672F782F8827B85F39F0B93FCCF3869533
:100FC00077956795B395D9F73EF490958095709590
:100FD00061957F4F8F4F9F4F0895990F0008550FD0
:100FE000AA0BE0E8FEEF16161706E807F907C0F0AF
:100FF00012161306E407F50798F0621B730B840BB7
:10100000950B39F40A2661F0232B242B252B21F490
:1010100008950A2609F4A140A6958FEF811D811D30
:10102000089597F99F6780E870E060E008959FEF6A
:1010300080EC089500240A9416161706180609066F
:10104000089500240A94121613061406050608953E
:10105000092E0394000C11F4882352F0BB0F40F4C6
:10106000BF2B11F460FF04C06F5F7F4F8F4F9F4F06
:10107000089557FD9058440F551F59F05F3F71F088
:101080004795880F97FB991F61F09F3F79F08795EF
:101090000895121613061406551FF2CF4695F1DF78
:1010A00008C0161617061806991FF1CF8695710508
:1010B000610508940895E894BB2766277727CB013C
:1010C00097F908950E94ED0708F48FEF08950E94A4
:1010D0007A080C9428080E941A0838F00E94210807
:1010E00020F0952311F00C9411080C94170811248A
:1010F0000C945C080E94390870F3959FC1F3950F1A
:1011000050E0551F629FF001729FBB27F00DB11D8B
:10111000639FAA27F00DB11DAA1F649F6627B00D1B
:10112000A11D661F829F2227B00DA11D621F739F04
:10113000B00DA11D621F839FA00D611D221F749F12
:101140003327A00D611D231F849F600D211D822F59
:10115000762F6A2F11249F5750409AF0F1F0882380
:101160004AF0EE0FFF1FBB1F661F771F881F9150AD
:101170005040A9F79E3F510580F00C9411080C9443
:101180005C085F3FE4F3983ED4F3869577956795C6
:10119000B795F795E7959F5FC1F7FE2B880F911DD7
:0C11A0009695879597F90895F894FFCF75
:1011AC0000000002000000006700000000000100C9
:1011BC00000001002331323334352E013901440152
:00000001FF
