:100000000C9446000C9465000C9465000C946500FB
:100010000C9465000C9465000C9465000C946500CC
:100020000C9465000C9465000C9465000C946500BC
:100030000C9465000C9465000C9465000C946500AC
:100040000C9465000C9465000C9465000C9465009C
:100050000C9465000C9465000C9465000C9465008C
:100060000C9465000C9465000C9465000C9465007C
:100070000C9465000C9465000C9465000C9465006C
:100080000C9465000C9465000C94650011241FBE4F
:10009000CFEFD0E4DEBFCDBF11E0A0E0B1E0EEE8ED
:1000A000F2E000E00BBF02C007900D92AE31B10745
:1000B000D9F721E0AEE1B1E001C01D92A232B20752
:1000C000E1F70E942C010C9445010C940000CF93A1
:1000D000DF9300D01F92CDB7DEB789837B836A831D
:1000E00089818A3031F48A819B81BC018DE00E9434
:1000F000670080EC90E0FC018081882F90E08072A6
:100100009927892BB1F386EC90E02981FC012083AB
:1001100080E090E00F900F900F90DF91CF910895C5
:10012000CF93DF93CDB7DEB780912001909121016D
:100130008130910581F08130910530F08230910558
:1001400011F1039739F13EC081E090E090932101D5
:10015000809320013BC080E290E0FC018081882FE9
:1001600090E081709927892B39F482E090E0909398
:100170002101809320012AC081E090E09093210129
:100180008093200123C083E090E09093210180932D
:1001900020011CC080E290E0FC018081882F90E06B
:1001A00081709927892B39F483E090E090932101A5
:1001B000809320010BC081E090E090932101809317
:1001C000200104C010922101109220018091200191
:1001D0009091210181309105C1F18130910530F07C
:1001E0008230910541F0039791F12AC088E290E0B6
:1001F000FC0110822DC080911E0190911F010F976C
:10020000B0F488E290E020911E0130911F01225F3E
:100210003E4FF9012081FC01208380911E019091C5
:100220001F01019690931F0180931E0111C088E267
:1002300090E0FC01108210921F0110921E0108C074
:1002400088E290E0FC01108203C0000001C00000C1
:100250000000DF91CF910895CF93DF93CDB7DEB744
:1002600081E290E0FC01108282E290E02FEFFC013D
:10027000208387E290E02FEFFC01208388E290E06A
:0E028000FC0110820E949000FDCFF894FFCF89
:10028E0000000002000000006700000000000818D7
:0E029E001C3C3E7E7FFF7F7E3E3C1C1808000D
:00000001FF
