:100000000C9456000C9475000C9475000C947500BB
:100010000C9475000C9475000C9475000C9475008C
:100020000C9475000C9475000C9475000C9475007C
:100030000C9475000C9475000C9475000C9475006C
:100040000C9475000C9475000C9475000C9475005C
:100050000C9475000C9475000C9475000C9475004C
:100060000C9475000C9475000C9475000C9475003C
:100070000C9475000C9475000C9475000C9475002C
:100080000C9475000C9475000C947500BA00C100B6
:10009000C8007E0103014401FC003D01B701B1012C
:1000A000E801DD01E801E801BD01CD0111241FBE19
:1000B000CFEFD0E4DEBFCDBF11E0A0E0B1E0EAE2D7
:1000C000F4E000E00BBF02C007900D92AE30B10724
:1000D000D9F721E0AEE0B1E001C01D92A031B20736
:1000E000E1F70E94F1010C9413020C940000CF93ED
:1000F000DF9300D01F92CDB7DEB789837B836A83FD
:1001000089818A3031F48A819B81BC018DE00E9413
:10011000770080EC90E0FC018081882F90E0807275
:100120009927892BB1F386EC90E02981FC0120838B
:1001300080E090E00F900F900F90DF91CF910895A5
:10014000CF93DF93CDB7DEB780910E0190910F0171
:10015000CC01A0E0B0E040E050E027E030E0841BBC
:10016000950B2817390708F4E1C08A5B9F4FFC0103
:100170000C940A0281E090E090930F0180930E01AD
:10018000DBC082E090E090930F0180930E01D4C019
:1001900080E290E0FC018081882F90E083709927B5
:1001A000039739F483E090E090930F0180930E0160
:1001B000C2C080E290E0FC018081882F90E08170D5
:1001C0009927892B39F086E090E090930F01809376
:1001D0000E01B1C080E290E0FC018081882F90E0A8
:1001E00082709927892B09F4A6C087E090E090934C
:1001F0000F0180930E019FC084E090E090930F0167
:1002000080930E0199C080E290E0FC018081882FEC
:1002100090E083709927039739F483E090E09093FE
:100220000F0180930E0188C080E290E0FC01808184
:10023000882F90E081709927892B39F084E090E035
:1002400090930F0180930E0177C080E290E0FC0153
:100250008081882F90E082709927892B39F087E080
:1002600090E090930F0180930E0166C082E090E0D1
:1002700090930F0180930E015FC085E090E0909312
:100280000F0180930E0158C080E290E0FC01808154
:10029000882F90E083709927039739F483E090E0EA
:1002A00090930F0180930E0147C080E290E0FC0123
:1002B0008081882F90E081709927892B39F086E022
:1002C00090E090930F0180930E0136C080E290E0A1
:1002D000FC018081882F90E082709927892B39F06A
:1002E00085E090E090930F0180930E0125C082E09D
:1002F00090E090930F0180930E011EC080E290E089
:10030000FC018081882F90E083709927039739F44E
:1003100083E090E090930F0180930E010DC082E086
:1003200090E090930F0180930E0106C010920F0190
:1003300010920E0101C0000080910E0190910F01FA
:10034000CC01A0E0B0E040E050E027E030E0841BCA
:10035000950B28173907B0F1825B9F4FFC010C9475
:100360000A0288E290E027E0FC01208336C088E2A0
:1003700090E027E0FC01208330C088E290E0FC019F
:100380008081893038F588E290E028E230E0F90198
:1003900020812F5FFC0120831DC088E290E0FC01DA
:1003A00080818823C9F088E290E028E230E0F901FA
:1003B00020812150FC0120830FC088E290E0FC01E5
:1003C00010820BC088E290E027E0FC01208305C08A
:1003D000000003C0000001C000000000DF91CF91C9
:1003E0000895CF93DF93CDB7DEB781E290E0FC01B3
:1003F000108282E290E02FEFFC01208387E290E000
:100400002FEFFC01208388E290E0FC0110820E9423
:10041000A000FDCFEE0FFF1F0024001C0BBE0790B5
:0A042000F691E02D0994F894FFCF47
:0E042A0000000002000000007700000000004B
:00000001FF
