:100000000C9456000C9475000C9475000C947500BB
:100010000C9475000C9475000C9475000C9475008C
:100020000C9475000C9475000C9475000C9475007C
:100030000C9475000C94EE000C9475000C947500F3
:100040000C9475000C9475000C9475000C9475005C
:100050000C9475000C9475000C9475000C9475004C
:100060000C9475000C9475000C9475000C9475003C
:100070000C9475000C9475000C9475000C9475002C
:100080000C9475000C9475000C94750098019F01F8
:10009000B7017902FA013D02F3013602B402AE0261
:1000A0001F03DE02E302FE02BA02CC0211241FBECD
:1000B000CFEFD0E4DEBFCDBF11E0A0E0B1E0EEEACB
:1000C000F6E000E00BBF02C007900D92A431B1072B
:1000D000D9F721E0A4E1B1E001C01D92AB31B20734
:1000E000E1F70E9424030C9455030C940000CF9375
:1000F000DF9300D01F92CDB7DEB789837B836A83FD
:1001000089818A3031F48A819B81BC018DE00E9413
:10011000770080EC90E0FC018081882F90E0807275
:100120009927892BB1F386EC90E02981FC0120838B
:1001300080E090E00F900F900F90DF91CF910895A5
:10014000CF93DF93CDB7DEB781E890E02BE0FC01E1
:10015000208388E890E02DE730E0FC0131832083A4
:100160008FE690E022E0FC01208384E890E0FC012F
:100170001182108280910E0190910F01A0911001C7
:10018000B09111018093150190931601A09317016E
:10019000B09318018FE590E02FE530E0F901208160
:1001A0002068FC0120830000DF91CF910895CF9358
:1001B000DF93CDB7DEB781E890E0FC01108200004C
:1001C000DF91CF910895CF93DF93CDB7DEB781E074
:1001D000809314010000DF91CF9108951F920F9238
:1001E00000905F000F92112400905B000F922F93FC
:1001F0003F934F935F936F937F938F939F93AF93AF
:10020000BF93EF93FF93CF93DF93CDB7DEB780918A
:10021000150190911601A0911701B0911801019755
:10022000A109B1098093150190931601A0931701BC
:10023000B09318018091150190911601A0911701BA
:10024000B0911801892B8A2B8B2B91F40E94E3002B
:1002500080910E0190910F01A0911001B0911101B8
:100260008093150190931601A0931701B093180184
:100270000000DF91CF91FF91EF91BF91AF919F91DE
:100280008F917F916F915F914F913F912F910F903F
:1002900000925B000F9000925F000F901F901895E6
:1002A000CF93DF9300D000D0CDB7DEB769837A83D8
:1002B0008B839C8389819A81AB81BC8180930E0161
:1002C00090930F01A0931001B093110180910E0142
:1002D00090910F01A0911001B0911101809315012F
:1002E00090931601A0931701B093180100000F908E
:1002F0000F900F900F90DF91CF910895CF93DF93E0
:10030000CDB7DEB78091190190911A01CC01A0E020
:10031000B0E040E050E027E030E0841B950B281768
:10032000390708F400C18A5B9F4FFC010C944C0311
:1003300081E090E090931A0180931901F9C080E266
:1003400090E0FC018081882F90E081709927892BB3
:1003500039F486E090E090931A0180931901E8C087
:1003600082E090E090931A0180931901E1C080E24D
:1003700090E0FC018081882F90E0809590958370BB
:100380009927039739F483E090E090931A018093C2
:100390001901CEC080E290E0FC018081882F90E0BE
:1003A00081709927892B39F486E090E090931A01A7
:1003B00080931901BDC080E290E0FC018081882F0C
:1003C00090E082709927892B39F487E090E0909330
:1003D0001A0180931901ACC082E090E090931A0159
:1003E00080931901A5C084E090E090931A01809356
:1003F00019019EC080E290E0FC018081882F90E08E
:100400008095909583709927039739F483E090E065
:1004100090931A01809319018BC080E290E0FC0157
:100420008081882F90E081709927892B39F484E0AE
:1004300090E090931A01809319017AC080E290E0D5
:10044000FC018081882F90E082709927892B39F4F4
:1004500087E090E090931A018093190169C082E0CF
:1004600090E090931A018093190162C085E090E0BA
:1004700090931A01809319015BC080E290E0FC0127
:100480008081882F90E080959095837099270397BD
:1004900039F483E090E090931A018093190148C0E9
:1004A00080E290E0FC018081882F90E081709927A4
:1004B000892B39F486E090E090931A01809319011A
:1004C00037C080E290E0FC018081882F90E082704C
:1004D0009927892B39F485E090E090931A01809355
:1004E000190126C082E090E090931A0180931901CF
:1004F0001FC080E290E0FC018081882F90E0809511
:10050000909583709927039739F483E090E0909356
:100510001A01809319010CC082E090E090931A01B7
:100520008093190105C010921A0110921901000060
:100530008091190190911A01CC01A0E0B0E040E057
:1005400050E027E030E0841B950B2817390708F4AA
:1005500070C0825B9F4FFC010C944C0388E290E0DA
:1005600027E0FC0120836CC088E290E027E0FC01DA
:10057000208366C088E290E0FC018081893048F4E5
:1005800088E290E028E230E0F90120812F5FFC0151
:1005900020831092120154C088E290E0FC01808117
:1005A000882349F088E290E028E230E0F9012081D8
:1005B0002150FC0120831092120142C088E290E099
:1005C000FC0110823DC080911201893089F488E2DB
:1005D00090E0FC018081893058F488E290E028E2C4
:1005E00030E0F90120812F5FFC012083109212017D
:1005F000809112018F5F8093120122C080911201BD
:10060000893089F488E290E0FC018081882359F0E8
:1006100088E290E028E230E0F90120812150FC01DD
:10062000208310921201809112018F5F809312013A
:1006300007C088E290E027E0FC01208301C00000B1
:100640000000DF91CF910895CF93DF93CDB7DEB750
:1006500081E290E0FC01108282E290E02FEFFC0149
:10066000208387E290E02FEFFC01208388E290E076
:10067000FC01108264E670E080E090E00E9450018E
:100680000E94A0000E947E01000080911401882336
:10069000E1F310921401F6CFEE0FFF1F0024001CAF
:0E06A0000BBE0790F691E02D0994F894FFCF61
:1006AE0000000002000000007700000000000100C2
:0406BE00000009002F
:00000001FF
