:100000000C9446000C9465000C9465000C946500FB
:100010000C9465000C9465000C9465000C946500CC
:100020000C9465000C9465000C9465000C946500BC
:100030000C9465000C94DE000C9465000C94650033
:100040000C9465000C9465000C9465000C9465009C
:100050000C9465000C9465000C9465000C9465008C
:100060000C9465000C9465000C9465000C9465007C
:100070000C9465000C9465000C9465000C9465006C
:100080000C9465000C9465000C94650011241FBE4F
:10009000CFEFD0E4DEBFCDBF11E0A0E0B1E0E8E4F7
:1000A000FAE000E00BBF02C007900D92A231B10749
:1000B000D9F721E0A2E1B1E001C01D92AF31B20752
:1000C000E1F70E9466030C9422050C940000CF9384
:1000D000DF9300D01F92CDB7DEB789837B836A831D
:1000E00089818A3031F48A819B81BC018DE00E9434
:1000F000670080EC90E0FC018081882F90E08072A6
:100100009927892BB1F386EC90E02981FC012083AB
:1001100080E090E00F900F900F90DF91CF910895C5
:10012000CF93DF93CDB7DEB781E890E02BE0FC0101
:10013000208388E890E02DE730E0FC0131832083C4
:100140008FE690E022E0FC01208384E890E0FC014F
:100150001182108280910E0190910F01A0911001E7
:10016000B09111018093130190931401A093150194
:10017000B09316018FE590E02FE530E0F901208182
:100180002068FC0120830000DF91CF910895CF9378
:10019000DF93CDB7DEB781E890E0FC01108200006C
:1001A000DF91CF910895CF93DF93CDB7DEB781E094
:1001B000809312010000DF91CF9108951F920F925A
:1001C00000905F000F92112400905B000F922F931C
:1001D0003F934F935F936F937F938F939F93AF93CF
:1001E000BF93EF93FF93CF93DF93CDB7DEB78091AB
:1001F000130190911401A0911501B091160101977E
:10020000A109B1098093130190931401A0931501E2
:10021000B09316018091130190911401A0911501E2
:10022000B0911601892B8A2B8B2B91F40E94D3005D
:1002300080910E0190910F01A0911001B0911101D8
:100240008093130190931401A0931501B0931601AC
:100250000000DF91CF91FF91EF91BF91AF919F91FE
:100260008F917F916F915F914F913F912F910F905F
:1002700000925B000F9000925F000F901F90189506
:10028000CF93DF9300D000D0CDB7DEB769837A83F8
:100290008B839C8389819A81AB81BC8180930E0181
:1002A00090930F01A0931001B093110180910E0162
:1002B00090910F01A0911001B09111018093130151
:1002C00090931401A0931501B093160100000F90B4
:1002D0000F900F900F90DF91CF9108950F931F9380
:1002E000CF93DF9300D000D0CDB7DEB769837A8398
:1002F0008B839C838091190190911A01A0911B011D
:10030000B0911C019C01AD0169817A818B819C8136
:100310000E948E03882309F477C020E030E0A90111
:1003200069817A818B819C810E948E03882351F49C
:1003300081E990E021E930E0F90120812870FC0199
:10034000208309C081E990E021E930E0F9012081B2
:100350002360FC01208328E539E344E75FE36981FA
:100360007A818B819C810E948E03882344F488E9E2
:1003700090E02FEF3FEFFC013183208334C020E079
:1003800034E244EF56E469817A818B819C810E943A
:10039000B004181634F488E990E0FC011182108250
:1003A00022C008E910E020E030E040E053E4698139
:1003B0007A818B819C810E94B504DC01CB019C0178
:1003C000AD0160E074E284EF9AE40E949303DC01E3
:1003D000CB01BC01CD010E940504DC01CB010197DA
:1003E000F8019183808384E990E0FC0111821082FE
:1003F00089819A81AB81BC818093190190931A0104
:10040000A0931B01B0931C0100000F900F900F9060
:100410000F90DF91CF911F910F910895CF93DF93AC
:10042000CDB7DEB780E990E020E4FC01208381E9CC
:1004300090E02BE0FC01208360E070E0CB010E94A3
:100440006E010000DF91CF910895CF93DF93CDB778
:10045000DEB780E990E0FC01108281E990E0FC01C8
:1004600010820000DF91CF910895CF93DF931F9208
:10047000CDB7DEB780E290E0FC0180818095877087
:10048000898380911D0190911E018130910591F029
:100490008130910530F082309105E9F00397E9F160
:1004A00054C00E940E0281E090E090931E01809360
:1004B0001D0150C08981813039F482E090E0909331
:1004C0001E0180931D0146C081E090E090931E01C3
:1004D00080931D013FC08091170190911801C29730
:1004E00050F08981813039F483E090E090931E01CF
:1004F00080931D012FC08091170190911801C29720
:1005000028F010921E0110921D0124C082E090E09C
:1005100090931E0180931D011DC080E290E0FC01BC
:100520008081882F90E08095909587709927892BFE
:1005300029F410921E0110921D010CC083E090E07E
:1005400090931E0180931D0105C010921E01109210
:100550001D01000080911D0190911E0181309105C7
:1005600059F08130910508F4ABC08230910549F013
:10057000039709F49EC0A5C01092180110921701AC
:10058000A0C08091170190911801069738F464EA91
:1005900070ED82E893E40E946E0181C080911701A2
:1005A000909118010B9738F464EA70ED82E893E4B7
:1005B0000E946E0174C080911701909118010F97ED
:1005C00038F46BE774ED82E993E40E946E0167C032
:1005D0008091170190911801449738F464EA70ED06
:1005E00082E893E40E946E015AC0809117019091B5
:1005F00018014A9738F461E77DE98EEA93E40E9496
:100600006E014DC080911701909118014E9738F4FA
:1006100064EA70ED84EA93E40E946E0140C0809128
:10062000170190911801869738F464EA70ED82E81A
:1006300093E40E946E0133C08091170190911801DC
:10064000889738F46BE774ED82E993E40E946E01B9
:1006500026C080911701909118018D9738F464EAB3
:1006600070ED82E893E40E946E0119C08091170139
:1006700090911801C09738F460E070E084EC93E446
:100680000E946E010CC08091170190911801C297D1
:1006900030F461E77DE98EEA93E40E946E01809177
:1006A00017019091180101969093180180931701FA
:1006B00008C00E942502109218011092170101C073
:1006C000000000000F90DF91CF910895CF93DF934A
:1006D000CDB7DEB781E290E0FC01108282E290E0CB
:1006E0002FEFFC01208384E290E02FEFFC012083B8
:1006F00085E290E0FC01108264E670E080E090E02A
:100700000E9440010E9490000E94350200008091EA
:1007100012018823E1F310921201F6CF0E943B04EC
:1007200008F481E008950E94A7030C9476040E94C7
:100730006F0458F00E94680440F029F45F3F29F0EC
:100740000C945F0451110C94AA040C9465040E944B
:10075000870468F39923B1F3552391F3951B550B47
:10076000BB27AA2762177307840738F09F5F5F4F84
:10077000220F331F441FAA1FA9F335D00E2E3AF0C3
:10078000E0E832D091505040E695001CCAF72BD0DB
:10079000FE2F29D0660F771F881FBB1F261737072C
:1007A0004807AB07B0E809F0BB0B802DBF01FF275E
:1007B00093585F4F3AF09E3F510578F00C945F04D8
:1007C0000C94AA045F3FE4F3983ED4F386957795A2
:1007D0006795B795F7959F5FC9F7880F911D969517
:1007E000879597F90895E1E0660F771F881FBB1F73
:1007F000621773078407BA0720F0621B730B840B20
:10080000BA0BEE1F88F7E09508950E940C046894D7
:10081000B1110C94AA0408950E948F0488F09F5788
:1008200098F0B92F9927B751B0F0E1F0660F771F14
:10083000881F991F1AF0BA95C9F714C0B13091F00A
:100840000E94A904B1E008950C94A904672F782FA1
:100850008827B85F39F0B93FCCF3869577956795CF
:10086000B395D9F73EF490958095709561957F4F3B
:100870008F4F9F4F0895990F0008550FAA0BE0E87E
:10088000FEEF16161706E807F907C0F01216130652
:10089000E407F50798F0621B730B840B950B39F492
:1008A0000A2661F0232B242B252B21F408950A26F8
:1008B00009F4A140A6958FEF811D811D089597F938
:1008C0009F6780E870E060E008959FEF80EC0895F6
:1008D00000240A941616170618060906089500241F
:1008E0000A9412161306140605060895092E039499
:1008F000000C11F4882352F0BB0F40F4BF2B11F40D
:1009000060FF04C06F5F7F4F8F4F9F4F089557FD6B
:100910009058440F551F59F05F3F71F04795880F6D
:1009200097FB991F61F09F3F79F087950895121604
:1009300013061406551FF2CF4695F1DF08C01616B0
:1009400017061806991FF1CF869571056105089461
:100950000895E894BB2766277727CB0197F9089578
:100960000E943B0408F48FEF08950E94C8040C9481
:1009700076040E94680438F00E946F0420F09523EA
:1009800011F00C945F040C94650411240C94AA04D7
:100990000E94870470F3959FC1F3950F50E0551F97
:1009A000629FF001729FBB27F00DB11D639FAA27C4
:1009B000F00DB11DAA1F649F6627B00DA11D661F13
:1009C000829F2227B00DA11D621F739FB00DA11D34
:1009D000621F839FA00D611D221F749F3327A00DEE
:1009E000611D231F849F600D211D822F762F6A2F8A
:1009F00011249F5750409AF0F1F088234AF0EE0FEF
:100A0000FF1FBB1F661F771F881F91505040A9F71B
:100A10009E3F510580F00C945F040C94AA045F3F44
:100A2000E4F3983ED4F3869577956795B795F79557
:100A3000E7959F5FC1F7FE2B880F911D96958795CF
:080A400097F90895F894FFCF27
:100A48000000000200000000670000000000010034
:020A580000009C
:00000001FF
