:100000000C9446000C9465000C9465000C946500FB
:100010000C9465000C9465000C9465000C946500CC
:100020000C9465000C9465000C9465000C946500BC
:100030000C9465000C940C010C9465000C94650004
:100040000C9465000C9465000C9465000C9465009C
:100050000C9465000C9465000C9465000C9465008C
:100060000C9465000C9465000C9465000C9465007C
:100070000C9465000C9465000C9465000C9465006C
:100080000C9465000C9465000C94650011241FBE4F
:10009000CFEFD0E4DEBFCDBF11E0A0E0B1E0E4E4FB
:1000A000F7E000E00BBF02C007900D92A431B1074A
:1000B000D9F721E0A4E1B1E001C01D92A432B2075A
:1000C000E1F70E9403030C94A0030C940000CF936B
:1000D000DF9300D01F92CDB7DEB789837B836A831D
:1000E00089818A3031F48A819B81BC018DE00E9434
:1000F000670080EC90E0FC018081882F90E08072A6
:100100009927892BB1F386EC90E02981FC012083AB
:1001100080E090E00F900F900F90DF91CF910895C5
:10012000CF93DF9300D000D0CDB7DEB769837A8359
:100130008B839C8389819A81AB81BC8180930E01E2
:1001400090930F01A0931001B093110180910E01C3
:1001500090910F01A0911001B091110180931501B0
:1001600090931601A0931701B093180100000F900F
:100170000F900F900F90DF91CF910895CF93DF9361
:10018000CDB7DEB781E890E02BE0FC01208388E862
:1001900090E02DE730E0FC01318320838FE690E092
:1001A00022E0FC01208384E890E0FC0111821082AF
:1001B00080910E0190910F01A0911001B091110159
:1001C0008093150190931601A0931701B093180125
:1001D0008FE590E02FE530E0F90120812068FC01F7
:1001E00020830000DF91CF910895CF93DF93CDB7A7
:1001F000DEB781E890E0FC0110820000DF91CF9132
:100200000895CF93DF93CDB7DEB781E080931401DB
:100210000000DF91CF9108951F920F9200905F0030
:100220000F92112400905B000F922F933F934F93F6
:100230005F936F937F938F939F93AF93BF93EF934E
:10024000FF93CF93DF93CDB7DEB7809115019091E7
:100250001601A0911701B09118010197A109B109E8
:100260008093150190931601A0931701B093180184
:100270008091150190911601A0911701B09118017C
:10028000892B8A2B8B2B91F40E94010180910E0106
:1002900090910F01A0911001B0911101809315016F
:1002A00090931601A0931701B09318010000DF91FD
:1002B000CF91FF91EF91BF91AF919F918F917F91DE
:1002C0006F915F914F913F912F910F9000925B0042
:1002D0000F9000925F000F901F901895CF93DF93BF
:1002E000CDB7DEB780911E0190911F01892B29F4B3
:1002F00010921F0110921E0105C010921F01109252
:100300001E01000080911E0190911F01892B01F5B3
:1003100080911201882321F481E0809312011BC097
:1003200080911201813021F482E08093120113C088
:1003300080911201823021F484E0809312010BC07D
:1003400080911201843039F481E08093120103C05E
:100350001092120101C000000000DF91CF910895BA
:10036000CF93DF93CDB7DEB7809122019091230127
:10037000892B29F4109223011092220105C01092BA
:10038000230110922201000080912201909123010B
:10039000892B49F49091190181E0992309F080E0BB
:1003A0008093190103C01092190100000000DF9131
:1003B000CF910895CF93DF93CDB7DEB78091200121
:1003C00090912101892B29F4109221011092200192
:1003D00005C010922101109220010000809120019F
:1003E00090912101892BA1F488E290E020911201E3
:1003F000FC01208380911901882379F088E290E044
:1004000028E230E0F90120812860FC01208305C04A
:1004100088E290E0FC01108201C000000000DF9142
:10042000CF910895CF93DF93CDB7DEB780911C01B4
:1004300090911D018230910509F45FC083309105D0
:1004400030F4009761F0019709F441C07FC0833018
:10045000910509F459C0049709F45DC077C080E2A2
:1004600090E0FC018081882F90E081709927892B92
:1004700039F482E090E090931D0180931C016BC0E1
:1004800080E290E0FC018081882F90E082709927C3
:10049000892B39F483E090E090931D0180931C0137
:1004A0005AC080E290E0FC018081882F90E0847047
:1004B0009927892B39F481E090E090931D01809376
:1004C0001C0149C010921D0110921C0144C080E221
:1004D00090E0FC018081882F90E084709927892B1F
:1004E00039F481E090E090931D0180931C0133C0AA
:1004F00010921D0110921C012EC084E090E0909398
:100500001D0180931C0127C084E090E090931D01A1
:1005100080931C0120C080E290E0FC018081882F44
:1005200090E08095909527E030E0B9010E94780333
:10053000892B39F084E090E090931D0180931C0199
:100540000AC010921D0110921C0105C010921D01DD
:1005500010921C01000080911C0190911D018130BE
:10056000910571F08130910530F08230910559F19B
:10057000039799F13CC085E290E0FC0110823FC0F6
:1005800080911301282F30E080911A0190911B0176
:100590008217930778F480911A0190911B010196BC
:1005A00090931B0180931A0185E290E02FEFFC01EC
:1005B000208325C010921B0110921A0185E290E061
:1005C000FC0110821CC0809113018230A8F0809140
:1005D00013018150809313010FC080911301863065
:1005E00068F4809113018F5F8093130107C085E247
:1005F00090E0FC01108203C0000001C00000000078
:10060000DF91CF910895CF93DF93CDB7DEB72897D1
:100610000FB6F894DEBF0FBECDBF87E290E02FEF9C
:10062000FC01208388E290E0FC01108284E290E0EB
:100630002FEFFC01208385E290E0FC01108281E233
:1006400090E0FC01108282E290E02FEFFC01208319
:1006500061E070E080E090E00E9490000E94BE00A7
:1006600019821A821B821C821D821E821F8218869A
:1006700089819A81AB81BC818C329140A105B10501
:1006800031F40E946E0119821A821B821C828D81B4
:100690009E81AF81B885883E9340A105B10531F4B4
:1006A0000E94B0011D821E821F8218860E941202C3
:1006B0000E94DA010000809114018823E1F3109276
:1006C000140189819A81AB81BC810196A11DB11D64
:1006D00089839A83AB83BC838D819E81AF81B885EA
:1006E0000196A11DB11D8D839E83AF83B887C0CFB6
:1006F00097FB072E16F4009407D077FD09D00E94CF
:100700008C0307FC05D03EF4909581959F4F08958A
:10071000709561957F4F0895AA1BBB1B51E107C0DF
:10072000AA1FBB1FA617B70710F0A61BB70B881F81
:10073000991F5A95A9F780959095BC01CD01089510
:04074000F894FFCF5B
:10074400000000020000000067000000000001003B
:04075400000001049C
:00000001FF
