:100000000C9454000C9473000C9473000C947300C3
:100010000C9473000C9473000C9473000C94730094
:100020000C9473000C9473000C9473000C94730084
:100030000C9473000C94EF040C9473000C947300F4
:100040000C9473000C9473000C9473000C94730064
:100050000C9473000C9473000C9473000C94730054
:100060000C9473000C9473000C9473000C94730044
:100070000C9473000C9473000C9473000C94730034
:100080000C9473000C9473000C94730029072E07D2
:100090004A0770079307B607DD070708DE09190846
:1000A0002308B6082709C40911241FBECFEFD0E4E6
:1000B000DEBFCDBF11E0A0E0B1E0E4ECFAE100E08A
:1000C0000BBF02C007900D92A633B107D9F721E00C
:1000D000A6E3B1E001C01D92AD36B207E1F70E9480
:1000E000140A0C94600D0C940000CF93DF93CDB7ED
:1000F000DEB762970FB6F894DEBF0FBECDBF9A8B06
:10010000898B1A82198277C080E090E0A0E8BFE373
:100110008B839C83AD83BE8320E030E04AE755E4C7
:100120006B817C818D819E810E94B30CDC01CB01AF
:100130008F839887A987BA8720E030E040E85FE3A3
:100140006F81788589859A850E948C0B88232CF491
:1001500081E090E09C878B873FC020E03FEF4FE736
:1001600057E46F81788589859A850E94AE0C1816B0
:100170004CF520E030E040E251E46B817C818D81E0
:100180009E810E94B30CDC01CB01BC01CD010E9419
:100190000A0CDC01CB019C878B870FC080E991E0C2
:1001A0009E878D878D859E850197F1F79E878D8728
:1001B0008B859C8501979C878B878B859C85892B5C
:1001C00069F714C06F81788589859A850E940A0C29
:1001D000DC01CB019C878B878B859C85988B8F87D7
:1001E0008F8598890197F1F7988B8F8789819A81FC
:1001F00001969A83898329813A8189899A89281766
:1002000039070CF481CF000062960FB6F894DEBF78
:100210000FBECDBFDF91CF910895CF93DF93CDB7C0
:10022000DEB78BE290E02BE230E0F9012081206222
:10023000FC0120838AEF90E00E9475008BE290E041
:100240002BE230E0F90120812F7DFC0120838AEF31
:1002500090E00E9475000000DF91CF910895CF9348
:10026000DF93CDB7DEB7A0970FB6F894DEBF0FBE11
:10027000CDBF8BE290E02BE230E0F90120812260DB
:10028000FC01208380E090E0A0E2B2E489839A83BD
:10029000AB83BC832BEA3AEA4AEA50E469817A816B
:1002A0008B819C810E94B30CDC01CB018D839E83EA
:1002B000AF83B88720E030E040E850E469817A817C
:1002C0008B819C810E94B30CDC01CB0189879A87CA
:1002D000AB87BC8720E030E040E85FE36D817E8142
:1002E0008F8198850E948C0B88231CF481E08D8778
:1002F000B2C020E03FEF4FE757E469857A858B85F0
:100300009C850E94AE0C18160CF07BC020E030E0FB
:100310004AE754E469817A818B819C810E94910B28
:10032000DC01CB018E879F87A88BB98B20E030E062
:100330004AE755E46E857F85888999890E94B30CC8
:10034000DC01CB018A8B9B8BAC8BBD8B20E030E03A
:1003500040E85FE36A897B898C899D890E948C0BC8
:1003600088232CF481E090E09F8B8E8B3FC020E0AF
:100370003FEF4FE757E46A897B898C899D890E940A
:10038000AE0C18164CF520E030E040E251E46E85EA
:100390007F85888999890E94B30CDC01CB01BC015F
:1003A000CD010E940A0CDC01CB019F8B8E8B0FC00C
:1003B00080E991E0998F888F888D998D0197F1F769
:1003C000998F888F8E899F8901979F8B8E8B8E89BD
:1003D0009F89892B69F73FC06A897B898C899D89B0
:1003E0000E940A0CDC01CB019F8B8E8B8E899F892A
:1003F0009B8F8A8F8A8D9B8D0197F1F79B8F8A8FB8
:100400002AC020E030E04FE753E46D817E818F8188
:1004100098850E94AE0C1816ACF469857A858B8598
:100420009C850E940A0CDC01CB019D8F8C8F8C8DEA
:100430009D8D9F8F8E8F8E8D9F8D0197F1F79F8F52
:100440008E8F0FC06D817E818F8198850E940A0CEE
:10045000DC01CB018D878D8588A388A18A95F1F772
:1004600088A38BE290E02BE230E0F90120812D7F20
:10047000FC0120830000A0960FB6F894DEBF0FBEEB
:10048000CDBFDF91CF910895CF93DF931F92CDB76A
:10049000DEB789838BE290E02BE230E0F901208126
:1004A000237CFC0120838981882F90E0807199272B
:1004B000892B49F08BE290E02BE230E0F9012081BA
:1004C0002460FC0120838981882F90E08072992725
:1004D000892B49F08BE290E02BE230E0F90120819A
:1004E0002860FC0120838981882F90E080749927FF
:1004F000892B49F08BE290E02BE230E0F90120817A
:100500002061FC012083898188234CF48BE290E0F8
:100510002BE230E0F90120812062FC0120830E945F
:100520002F0100000F90DF91CF910895CF93DF93BB
:100530001F92CDB7DEB7898389810E9444028981E9
:100540008295807F0E9444028BE290E02BE230E0B3
:10055000F90120812F7DFC01208300000F90DF91A5
:10056000CF910895CF93DF931F92CDB7DEB78983E4
:100570008BE290E02BE230E0F90120812E7FFC013C
:10058000208389810E94960200000F90DF91CF9115
:100590000895CF93DF931F92CDB7DEB789838BE2A7
:1005A00090E02BE230E0F90120812160FC01208302
:1005B00089810E94960200000F90DF91CF910895EB
:1005C000CF93DF93CDB7DEB783E30E94B20282E31D
:1005D0000E94B20288E20E94B2028CE00E94B20243
:1005E00086E00E94B20281E00E94B20283E090E0C5
:1005F0000E9475000000DF91CF910895CF93DF93A3
:10060000CDB7DEB781E00E94B20283E090E00E94A5
:1006100075000000DF91CF910895CF93DF93CDB7A0
:10062000DEB780E80E94B2020000DF91CF9108950A
:10063000CF93DF9300D01F92CDB7DEB78A836B8351
:1006400019828B81882F90E08230910541F08330B0
:10065000910541F0019749F480E4898306C084E163
:10066000898303C084E58983000099818A81890F89
:1006700080580E94B20200000F900F900F90DF91FF
:10068000CF910895CF93DF931F92CDB7DEB78983C3
:10069000698180E00E94180300000F90DF91CF91E4
:1006A0000895CF93DF9300D0CDB7DEB79A838983C7
:1006B0000BC089819A819C012F5F3F4F3A83298328
:1006C000FC0180810E94C90289819A81FC0180819C
:1006D000882379F700000F900F90DF91CF91089554
:1006E000CF93DF93CDB7DEB72A970FB6F894DEBF6E
:1006F0000FBECDBF9A8789871A82198226E0CE0164
:100700000396FC01322F11923A95E9F789859A8573
:1007100040E150E09E012F5F3F4FB9010E94200D44
:10072000CE0101960E94510300002A960FB6F8945C
:10073000DEBF0FBECDBFDF91CF910895CF93DF9382
:10074000CDB7DEB72A970FB6F894DEBF0FBECDBF88
:100750009A8789871A82198226E0CE010396FC01C6
:10076000322F11923A95E9F789859A854AE050E04F
:100770009E012F5F3F4FB9010E94200DCE010196CF
:100780000E94510300002A960FB6F894DEBF0FBEF8
:10079000CDBFDF91CF910895CF93DF931F92CDB757
:1007A000DEB789838981882F90E08031910581F0BF
:1007B000813191051CF4892B39F016C080329105E6
:1007C00059F0C09769F010C080E00E9442030CC04D
:1007D00081E00E94420308C082E00E94420304C0FC
:1007E00083E00E944203000000000F90DF91CF9150
:1007F0000895CF93DF931F92CDB7DEB789838981A8
:10080000803214F480E209C089818F3711F480EAC4
:1008100004C089818F5F898389810F90DF91CF9197
:100820000895CF93DF9300D01F92CDB7DEB781E458
:1008300089830E94FE0281E08A8322C060E082E117
:100840000E9418038A81882F90E00E949E031B82D9
:1008500011C08B810E94CC0389810E94C9028981C9
:100860000E94F903898382E390E00E9475008B81E6
:100870008F5F8B838B81803460F38A818F5F8A8363
:100880008A818436D8F200000F900F900F90DF918C
:10089000CF910895CF93DF9300D01F92CDB7DEB7ED
:1008A00089837B836A8389818A3031F48A819B8141
:1008B000BC018DE00E944A0480EC90E0FC01808144
:1008C000882F90E080729927892BB1F386EC90E015
:1008D0002981FC01208380E090E00F900F900F9021
:1008E000DF91CF910895CF93DF9300D000D0CDB7A3
:1008F000DEB769837A838B839C8389819A81AB81FC
:10090000BC8180930E0190930F01A0931001B093CE
:10091000110180910E0190910F01A0911001B091F1
:1009200011018093370190933801A0933901B0935E
:100930003A0100000F900F900F900F90DF91CF9130
:100940000895CF93DF93CDB7DEB781E890E02BE039
:10095000FC01208388E890E02DE730E0FC01318342
:1009600020838FE690E022E0FC01208384E890E081
:10097000FC011182108280910E0190910F01A091D3
:100980001001B09111018093370190933801A09329
:100990003901B0933A018FE590E02FE530E0F9019D
:1009A00020812068FC0120830000DF91CF91089511
:1009B000CF93DF93CDB7DEB781E890E0FC011082E2
:1009C0000000DF91CF910895CF93DF93CDB7DEB7CD
:1009D00081E0809336010000DF91CF9108951F924E
:1009E0000F9200905F000F92112400905B000F9215
:1009F0002F933F934F935F936F937F938F939F9327
:100A0000AF93BF93EF93FF93CF93DF93CDB7DEB751
:100A10008091370190913801A0913901B0913A014C
:100A20000197A109B1098093370190933801A093F0
:100A30003901B0933A018091370190913801A0912A
:100A40003901B0913A01892B8A2B8B2B91F40E94AA
:100A5000E40480910E0190910F01A0911001B091DA
:100A600011018093370190933801A0933901B0931D
:100A70003A010000DF91CF91FF91EF91BF91AF91CB
:100A80009F918F917F916F915F914F913F912F91A6
:100A90000F9000925B000F9000925F000F901F90EC
:100AA00018950F931F93CF93DF9300D000D0CDB74D
:100AB000DEB769837A838B839C8380914701909111
:100AC0004801A0914901B0914A019C01AD016981A1
:100AD0007A818B819C810E948C0B882309F477C0DA
:100AE00020E030E0A90169817A818B819C810E949C
:100AF0008C0B882351F481E990E021E930E0F90181
:100B000020812870FC01208309C081E990E021E95F
:100B100030E0F90120812360FC01208328E539E3DE
:100B200044E75FE369817A818B819C810E948C0B11
:100B3000882344F488E990E02FEF3FEFFC013183F4
:100B4000208334C020E034E244EF56E469817A81A6
:100B50008B819C810E94AE0C181634F488E990E0D9
:100B6000FC011182108222C008E910E020E030E090
:100B700040E053E469817A818B819C810E94B30CAF
:100B8000DC01CB019C01AD0160E074E284EF9AE4EA
:100B90000E94910BDC01CB01BC01CD010E94030C32
:100BA000DC01CB010197F8019183808384E990E017
:100BB000FC011182108289819A81AB81BC81809372
:100BC000470190934801A0934901B0934A01000066
:100BD0000F900F900F900F90DF91CF911F910F9179
:100BE0000895CF93DF93CDB7DEB780E990E020E49E
:100BF000FC01208381E990E02BE0FC01208360E090
:100C000070E0CB010E9451050000DF91CF91089563
:100C1000CF93DF93CDB7DEB780E990E0FC0110827F
:100C200081E990E0FC0110820000DF91CF910895EE
:100C3000CF93DF9300D0CDB7DEB79A8389838981C4
:100C40009A818130910561F08230910509F45CC090
:100C5000892B09F06EC081E090E09A8389836CC093
:100C600086E290E0FC018081882F90E081709927D6
:100C7000892B59F481E090E09093400180933F01EB
:100C800081E090E09A83898357C086E290E0FC017E
:100C90008081882F90E082709927892B59F481E018
:100CA00090E0909342018093410181E090E09A832B
:100CB000898342C086E290E0FC018081882F90E029
:100CC00084709927892B59F481E090E09093440136
:100CD0008093430181E090E09A8389832DC086E26E
:100CE00090E0FC018081882F90E080959095992775
:100CF000892B29F482E090E09A8389831DC081E0EA
:100D000090E09A83898318C086E290E0FC0180819C
:100D1000882F90E0809590959927892B29F082E083
:100D200090E09A83898308C081E090E09A83898368
:100D300003C01A821982000089819A81813091054D
:100D400041F08230910509F45AC0892B09F459C049
:100D500050C086E290E0FC018081882F90E0817095
:100D60009927892B31F480913D018F5F80933D015C
:100D70004AC086E290E0FC018081882F90E082707A
:100D80009927892B31F480913D018F5F80933D013C
:100D90003AC086E290E0FC018081882F90E0847068
:100DA0009927892B31F480913D018F5F80933D011C
:100DB0002AC086E290E0FC018081882F90E0887054
:100DC0009927892B31F480913D018F5F80933D01FC
:100DD0001AC086E290E0FC018081882F90E080714B
:100DE0009927892B81F480913D018F5F80933D018C
:100DF0000AC085E290E029E0FC01208305C00000E4
:100E000003C0000001C0000089819A810F900F90FB
:100E1000DF91CF910895CF93DF9300D0CDB7DEB7A8
:100E20009A8389830E94F10589819A81092E000C99
:100E3000AA0BBB0B40E050E026E030E0841B950B92
:100E40002817390708F4CBC08A5B9F4FFC010C942C
:100E5000830B81E090E09A838983C4C080913F0135
:100E600090914001019761F0809141019091420180
:100E7000019731F08091430190914401019729F449
:100E800082E090E09A838983ADC081E090E09A830C
:100E90008983A8C080913F0190914001019729F476
:100EA00083E090E09A8389839DC080914101909175
:100EB0004201019729F484E090E09A83898392C0EB
:100EC0008091430190914401019729F485E090E0DD
:100ED0009A83898387C082E090E09A83898382C065
:100EE00080914501909146010B9778F086E290E061
:100EF000FC018081882F90E081709927892B29F44B
:100F000086E090E09A8389836DC08091450190913D
:100F100046010B9718F01A82198264C083E090E0B2
:100F20009A8389835FC0809145019091460108971B
:100F300078F086E290E0FC018081882F90E082705A
:100F40009927892B29F486E090E09A8389834AC007
:100F50008091450190914601089718F01A821982F4
:100F600041C084E090E09A8389833CC085E290E0B0
:100F7000FC01108280914501909146010C9778F018
:100F800086E290E0FC018081882F90E082709927B2
:100F9000892B29F486E090E09A83898323C080918D
:100FA0004501909146010C9718F01A8219821AC0D7
:100FB00085E090E09A83898315C086E290E0FC0189
:100FC0008081882F90E081709927892B19F01A82EF
:100FD000198208C086E090E09A83898303C01A8250
:100FE0001982000089819A81092E000CAA0BBB0B83
:100FF00040E050E026E030E0841B950B28173907CD
:1010000008F4DAC1835B9F4FFC010C94830B1092B0
:10101000400110923F011092420110924101109242
:1010200044011092430185E290E021E0FC0120831D
:10103000C6C185E290E022E0FC01208310924601C7
:1010400010924501BCC18091450190914601892BC8
:1010500039F461E77DE98EEA93E40E9451057CC092
:101060008091450190914601029730F460E070E074
:10107000CB010E94510570C08091450190914601BD
:10108000039738F461E77DE98EEA93E40E94510505
:1010900063C08091450190914601049730F460E06F
:1010A00070E0CB010E94510557C08091450190919D
:1010B0004601059738F461E77DE98EEA93E40E94E2
:1010C00051054AC08091450190914601069730F440
:1010D00060E070E0CB010E9451053EC08091450167
:1010E00090914601079738F461E77DE98EEA93E431
:1010F0000E94510531C080914501909146010897A9
:1011000030F460E070E0CB010E94510525C0809171
:10111000450190914601099738F461E77DE98EEA2F
:1011200093E40E94510518C08091450190914601B9
:101130000A9730F460E070E0CB010E9451050CC0CA
:1011400080914501909146010B9730F461E77DE96C
:101150008EEA93E40E9451058091450190914601E9
:101160000196909346018093450129C180914501E4
:1011700090914601892B39F464EA70ED84EA93E496
:101180000E9451055AC080914501909146010297F5
:1011900038F461E77DE98EEA93E40E9451054DC081
:1011A0008091450190914601039738F460E070E02A
:1011B00084EC93E40E94510540C0809145019091D8
:1011C0004601049738F460E070E08CED93E40E94EF
:1011D000510533C08091450190914601059738F43F
:1011E00064EA70EF86EF93E40E94510526C0809177
:1011F000450190914601069738F460E070ED82E079
:1012000094E40E94510519C08091450190914601D6
:10121000079738F464EA70ED82E893E40E94510580
:101220000CC08091450190914601089730F46BE71E
:1012300074ED82E993E40E945105809145019091FB
:10124000460101969093460180934501B8C085E21E
:1012500090E023E0FC0120838091450190914601BC
:10126000892B39F464EA70ED82E893E40E94510519
:1012700081C08091450190914601029738F464EA5B
:1012800070ED82E893E40E94510574C0809145019D
:1012900090914601039738F46BE774ED82E993E48B
:1012A0000E94510567C080914501909146010497C5
:1012B00038F464EA70ED82E893E40E9451055AC064
:1012C0008091450190914601059738F461E77DE9E9
:1012D0008EEA93E40E9451054DC0809145019091A2
:1012E0004601079738F464EA70ED84EA93E40E94BB
:1012F000510540C08091450190914601089738F40E
:1013000064EA70ED82E893E40E94510533C0809155
:10131000450190914601099738F46BE774ED82E935
:1013200093E40E94510526C08091450190914601A9
:101330000A9738F464EA70ED82E893E40E9451055C
:1013400019C080914501909146010B9738F460E0F7
:1013500070E084EC93E40E9451050CC0809145013B
:10136000909146010C9730F461E77DE98EEA93E4B1
:101370000E945105809145019091460101969093FC
:101380004601809345011BC085E290E024E0FC010A
:1013900020830E9408061092460110924501109287
:1013A000400110923F0110924201109241011092AF
:1013B00044011092430103C0000001C00000898174
:1013C0009A810F900F90DF91CF910895CF93DF9383
:1013D00000D0CDB7DEB79A83898389819A81892B22
:1013E00019F41A82198203C01A82198200008981B5
:1013F0009A81892B09F011C00E94FE0282E191E0DE
:101400000E94510387E291E00E94510380913D01C7
:10141000882F90E00E949E03000089819A810F909E
:101420000F90DF91CF9108950F931F93CF93DF9388
:10143000CDB7DEB72B970FB6F894DEBF0FBECDBF8A
:101440008AE290E02FE3FC01208387E290E0FC0138
:10145000108288E290E02FEFFC01208384E290E08C
:101460002FEFFC01208386E0EFE2F1E0DE0116962B
:1014700001900D928A95E1F783E090E09C838B8345
:101480008FEF8D838D8180934B018AE090E0A0E007
:10149000B0E080934C0190934D01A0934E01B09326
:1014A0004F0180914C0190914D01A0914E01B0915E
:1014B0004F018093500190935101A0935201B0933A
:1014C000530188E196E090935501809354018D81FA
:1014D000809356018AE090E0A0E0B0E0809357014D
:1014E00090935801A0935901B0935A0180915701EC
:1014F00090915801A0915901B0915A0180935B01DC
:1015000090935C01A0935D01B0935E0186EE99E03B
:101510009093600180935F018D81809361018AE0E7
:1015200090E0A0E0B0E08093620190936301A0930B
:101530006401B09365018091620190916301A09173
:101540006401B09165018093660190936701A09357
:101550006801B09369018BE097E090936B018093F1
:101560006A010E94E00264EF71E080E090E00E9476
:1015700073040E94A1041A821982ADC089819A81E4
:10158000880F991F9E012F5F3F4F820F931F059673
:10159000FC0180819181FC01258136814781508544
:1015A00089819A81880F991FBE016F5F7F4F860FD7
:1015B000971F0596FC0180819181FC0181819281B8
:1015C000A381B481281739074A075B0709F045C092
:1015D00089819A81880F991F9E012F5F3F4F820F4B
:1015E000931F0596FC010081118189819A81880FE2
:1015F000991F9E012F5F3F4F820F931F0596FC019D
:1016000080819181FC012185328589819A81880FB1
:10161000991FAE014F5F5F4F840F951F0596FC0128
:1016200080819181FC018081082E000C990BF901C9
:101630000995F801808389819A81880F991F9E01FD
:101640002F5F3F4F820F931F0596FC018081918190
:10165000FC01158216821782108689819A81880F73
:10166000991F9E012F5F3F4F820F931F0596FC012C
:101670006081718189819A81880F991F9E012F5FF6
:101680003F4F820F931F0596FC0180819181FC01E1
:10169000258136814781508589819A81880F991FDC
:1016A000FE0131968E0F9F1F0596FC01808191816E
:1016B000FC0181819281A381B481820F931FA41FB9
:1016C000B51FFB0185839683A783B08789819A81A3
:1016D00001969A83898329813A818B819C8128177D
:1016E000390708F44BCF0000809136018823E1F3DD
:1016F0001092360140CFCF93DF93CDB7DEB7000015
:10170000DF91CF910895EE0FFF1F0024001C0BBE48
:101710000790F691E02D09940E94390C08F481E0BD
:1017200008950E94A50B0C94740C0E946D0C58F047
:101730000E94660C40F029F45F3F29F00C945D0C88
:1017400051110C94A80C0C94630C0E94850C68F346
:101750009923B1F3552391F3951B550BBB27AA276A
:1017600062177307840738F09F5F5F4F220F331FA4
:10177000441FAA1FA9F335D00E2E3AF0E0E832D06C
:1017800091505040E695001CCAF72BD0FE2F29D06F
:10179000660F771F881FBB1F261737074807AB0741
:1017A000B0E809F0BB0B802DBF01FF2793585F4FB6
:1017B0003AF09E3F510578F00C945D0C0C94A80C07
:1017C0005F3FE4F3983ED4F3869577956795B79598
:1017D000F7959F5FC9F7880F911D9695879597F9A3
:1017E0000895E1E0660F771F881FBB1F621773071C
:1017F0008407BA0720F0621B730B840BBA0BEE1F31
:1018000088F7E09508950E940A0C6894B1110C9431
:10181000A80C08950E948D0C88F09F5798F0B92F5E
:101820009927B751B0F0E1F0660F771F881F991F15
:101830001AF0BA95C9F714C0B13091F00E94A70C04
:10184000B1E008950C94A70C672F782F8827B85F14
:1018500039F0B93FCCF3869577956795B395D9F76D
:101860003EF490958095709561957F4F8F4F9F4F77
:101870000895990F0008550FAA0BE0E8FEEF161621
:101880001706E807F907C0F012161306E407F50774
:1018900098F0621B730B840B950B39F40A2661F0E8
:1018A000232B242B252B21F408950A2609F4A1408B
:1018B000A6958FEF811D811D089597F99F6780E898
:1018C00070E060E008959FEF80EC089500240A9492
:1018D0001616170618060906089500240A9412160B
:1018E0001306140605060895092E0394000C11F43E
:1018F000882352F0BB0F40F4BF2B11F460FF04C0EB
:101900006F5F7F4F8F4F9F4F089557FD9058440F43
:10191000551F59F05F3F71F04795880F97FB991F4E
:1019200061F09F3F79F0879508951216130614060B
:10193000551FF2CF4695F1DF08C016161706180698
:10194000991FF1CF86957105610508940895E89473
:10195000BB2766277727CB0197F908950E94390C9A
:1019600008F48FEF08950E94C60C0C94740C0E942A
:10197000660C38F00E946D0C20F0952311F00C9449
:101980005D0C0C94630C11240C94A80C0E94850C23
:1019900070F3959FC1F3950F50E0551F629FF001C2
:1019A000729FBB27F00DB11D639FAA27F00DB11DDB
:1019B000AA1F649F6627B00DA11D661F829F222764
:1019C000B00DA11D621F739FB00DA11D621F839FEB
:1019D000A00D611D221F749F3327A00D611D231FC1
:1019E000849F600D211D822F762F6A2F11249F570F
:1019F00050409AF0F1F088234AF0EE0FFF1FBB1F12
:101A0000661F771F881F91505040A9F79E3F5105D0
:101A100080F00C945D0C0C94A80C5F3FE4F3983EAE
:101A2000D4F3869577956795B795F795E7959F5F7A
:101A3000C1F7FE2B880F911D9695879597F908950C
:101A40004532510520F4423010F00C942B0DFB016F
:101A50001082CB010895BB274A3031F4992322F438
:101A6000BDE2909581959F4F0C94370DBB27FB01EC
:101A70005527AA27880F991FAA1FA41710F0A41B87
:101A800083955051B9F7A05DAA3308F0A95DA193E1
:101A9000009779F7B111B1931192CB010C94500DCD
:101AA000DC01FC01672F71917723E1F7329704C0C5
:101AB0007C916D9370836291AE17BF07C8F3089550
:041AC000F894FFCFC8
:101AC40000000002000000004A04000000000100C1
:101AD40000004C6574277320706C6179205468652C
:101AE4002054756E65200053636F72653A20004B75
:061AF40001560161010032
:00000001FF
