:100000000C9454000C9473000C9473000C947300C3
:100010000C9473000C9473000C9473000C94730094
:100020000C9473000C9473000C9473000C94730084
:100030000C9473000C94EF040C9473000C947300F4
:100040000C9473000C9473000C9473000C94730064
:100050000C9473000C9473000C9473000C94730054
:100060000C9473000C9473000C9473000C94730044
:100070000C9473000C9473000C9473000C94730034
:100080000C9473000C9473000C947300B30ABA0AB6
:10009000D60A1D0B4C0B7B0BAA0B8F0DD60BE30B5B
:1000A000E80B7B0CEC0C770D11241FBECFEFD0E4D6
:1000B000DEBFCDBF11E0A0E0B1E0E0E5F3E200E09B
:1000C0000BBF02C007900D92A635B107D9F721E00A
:1000D000A6E5B1E001C01D92A53CB207E1F70E9480
:1000E000C50D0C94A6110C940000CF93DF93CDB7EF
:1000F000DEB762970FB6F894DEBF0FBECDBF9A8B06
:10010000898B1A82198277C080E090E0A0E8BFE373
:100110008B839C83AD83BE8320E030E04AE755E4C7
:100120006B817C818D819E810E94F910DC01CB0165
:100130008F839887A987BA8720E030E040E85FE3A3
:100140006F81788589859A850E94D20F88232CF447
:1001500081E090E09C878B873FC020E03FEF4FE736
:1001600057E46F81788589859A850E94F410181666
:100170004CF520E030E040E251E46B817C818D81E0
:100180009E810E94F910DC01CB01BC01CD010E94CF
:100190005010DC01CB019C878B870FC080E991E078
:1001A0009E878D878D859E850197F1F79E878D8728
:1001B0008B859C8501979C878B878B859C85892B5C
:1001C00069F714C06F81788589859A850E945010DF
:1001D000DC01CB019C878B878B859C85988B8F87D7
:1001E0008F8598890197F1F7988B8F8789819A81FC
:1001F00001969A83898329813A8189899A89281766
:1002000039070CF481CF000062960FB6F894DEBF78
:100210000FBECDBFDF91CF910895CF93DF93CDB7C0
:10022000DEB78BE290E02BE230E0F9012081206222
:10023000FC0120838AEF90E00E9475008BE290E041
:100240002BE230E0F90120812F7DFC0120838AEF31
:1002500090E00E9475000000DF91CF910895CF9348
:10026000DF93CDB7DEB7A0970FB6F894DEBF0FBE11
:10027000CDBF8BE290E02BE230E0F90120812260DB
:10028000FC01208380E090E0A0E2B2E489839A83BD
:10029000AB83BC832BEA3AEA4AEA50E469817A816B
:1002A0008B819C810E94F910DC01CB018D839E83A0
:1002B000AF83B88720E030E040E850E469817A817C
:1002C0008B819C810E94F910DC01CB0189879A8780
:1002D000AB87BC8720E030E040E85FE36D817E8142
:1002E0008F8198850E94D20F88231CF481E08D872E
:1002F000B2C020E03FEF4FE757E469857A858B85F0
:100300009C850E94F41018160CF07BC020E030E0B1
:100310004AE754E469817A818B819C810E94D70FDE
:10032000DC01CB018E879F87A88BB98B20E030E062
:100330004AE755E46E857F85888999890E94F9107E
:10034000DC01CB018A8B9B8BAC8BBD8B20E030E03A
:1003500040E85FE36A897B898C899D890E94D20F7E
:1003600088232CF481E090E09F8B8E8B3FC020E0AF
:100370003FEF4FE757E46A897B898C899D890E940A
:10038000F41018164CF520E030E040E251E46E85A0
:100390007F85888999890E94F910DC01CB01BC0115
:1003A000CD010E945010DC01CB019F8B8E8B0FC0C2
:1003B00080E991E0998F888F888D998D0197F1F769
:1003C000998F888F8E899F8901979F8B8E8B8E89BD
:1003D0009F89892B69F73FC06A897B898C899D89B0
:1003E0000E945010DC01CB019F8B8E8B8E899F89E0
:1003F0009B8F8A8F8A8D9B8D0197F1F79B8F8A8FB8
:100400002AC020E030E04FE753E46D817E818F8188
:1004100098850E94F4101816ACF469857A858B854E
:100420009C850E945010DC01CB019D8F8C8F8C8DA0
:100430009D8D9F8F8E8F8E8D9F8D0197F1F79F8F52
:100440008E8F0FC06D817E818F8198850E945010A4
:10045000DC01CB018D878D8588A388A18A95F1F772
:1004600088A38BE290E02BE230E0F90120812D7F20
:10047000FC0120830000A0960FB6F894DEBF0FBEEB
:10048000CDBFDF91CF910895CF93DF931F92CDB76A
:10049000DEB789838BE290E02BE230E0F901208126
:1004A000237CFC0120838981882F90E0807199272B
:1004B000892B49F08BE290E02BE230E0F9012081BA
:1004C0002460FC0120838981882F90E08072992725
:1004D000892B49F08BE290E02BE230E0F90120819A
:1004E0002860FC0120838981882F90E080749927FF
:1004F000892B49F08BE290E02BE230E0F90120817A
:100500002061FC012083898188234CF48BE290E0F8
:100510002BE230E0F90120812062FC0120830E945F
:100520002F0100000F90DF91CF910895CF93DF93BB
:100530001F92CDB7DEB7898389810E9444028981E9
:100540008295807F0E9444028BE290E02BE230E0B3
:10055000F90120812F7DFC01208300000F90DF91A5
:10056000CF910895CF93DF931F92CDB7DEB78983E4
:100570008BE290E02BE230E0F90120812E7FFC013C
:10058000208389810E94960200000F90DF91CF9115
:100590000895CF93DF931F92CDB7DEB789838BE2A7
:1005A00090E02BE230E0F90120812160FC01208302
:1005B00089810E94960200000F90DF91CF910895EB
:1005C000CF93DF93CDB7DEB783E30E94B20282E31D
:1005D0000E94B20288E20E94B2028CE00E94B20243
:1005E00086E00E94B20281E00E94B20283E090E0C5
:1005F0000E9475000000DF91CF910895CF93DF93A3
:10060000CDB7DEB781E00E94B20283E090E00E94A5
:1006100075000000DF91CF910895CF93DF93CDB7A0
:10062000DEB780E80E94B2020000DF91CF9108950A
:10063000CF93DF9300D01F92CDB7DEB78A836B8351
:1006400019828B81882F90E08230910541F08330B0
:10065000910541F0019749F480E4898306C084E163
:10066000898303C084E58983000099818A81890F89
:1006700080580E94B20200000F900F900F90DF91FF
:10068000CF910895CF93DF931F92CDB7DEB78983C3
:10069000698180E00E94180300000F90DF91CF91E4
:1006A0000895CF93DF9300D0CDB7DEB79A838983C7
:1006B0000BC089819A819C012F5F3F4F3A83298328
:1006C000FC0180810E94C90289819A81FC0180819C
:1006D000882379F700000F900F90DF91CF91089554
:1006E000CF93DF93CDB7DEB72A970FB6F894DEBF6E
:1006F0000FBECDBF9A8789871A82198226E0CE0164
:100700000396FC01322F11923A95E9F789859A8573
:1007100040E150E09E012F5F3F4FB9010E946611FA
:10072000CE0101960E94510300002A960FB6F8945C
:10073000DEBF0FBECDBFDF91CF910895CF93DF9382
:10074000CDB7DEB72A970FB6F894DEBF0FBECDBF88
:100750009A8789871A82198226E0CE010396FC01C6
:10076000322F11923A95E9F789859A854AE050E04F
:100770009E012F5F3F4FB9010E946611CE01019685
:100780000E94510300002A960FB6F894DEBF0FBEF8
:10079000CDBFDF91CF910895CF93DF931F92CDB757
:1007A000DEB789838981882F90E08031910581F0BF
:1007B000813191051CF4892B39F016C080329105E6
:1007C00059F0C09769F010C080E00E9442030CC04D
:1007D00081E00E94420308C082E00E94420304C0FC
:1007E00083E00E944203000000000F90DF91CF9150
:1007F0000895CF93DF931F92CDB7DEB789838981A8
:10080000803214F480E209C089818F3711F480EAC4
:1008100004C089818F5F898389810F90DF91CF9197
:100820000895CF93DF9300D01F92CDB7DEB781E458
:1008300089830E94FE0281E08A8322C060E082E117
:100840000E9418038A81882F90E00E949E031B82D9
:1008500011C08B810E94CC0389810E94C9028981C9
:100860000E94F903898382E390E00E9475008B81E6
:100870008F5F8B838B81803460F38A818F5F8A8363
:100880008A818436D8F200000F900F900F90DF918C
:10089000CF910895CF93DF9300D01F92CDB7DEB7ED
:1008A00089837B836A8389818A3031F48A819B8141
:1008B000BC018DE00E944A0480EC90E0FC01808144
:1008C000882F90E080729927892BB1F386EC90E015
:1008D0002981FC01208380E090E00F900F900F9021
:1008E000DF91CF910895CF93DF9300D000D0CDB7A3
:1008F000DEB769837A838B839C8389819A81AB81FC
:10090000BC8180930E0190930F01A0931001B093CE
:10091000110180910E0190910F01A0911001B091F1
:1009200011018093570190935801A0935901B093FE
:100930005A0100000F900F900F900F90DF91CF9110
:100940000895CF93DF93CDB7DEB781E890E02BE039
:10095000FC01208388E890E02DE730E0FC01318342
:1009600020838FE690E022E0FC01208384E890E081
:10097000FC011182108280910E0190910F01A091D3
:100980001001B09111018093570190935801A093E9
:100990005901B0935A018FE590E02FE530E0F9015D
:1009A00020812068FC0120830000DF91CF91089511
:1009B000CF93DF93CDB7DEB781E890E0FC011082E2
:1009C0000000DF91CF910895CF93DF93CDB7DEB7CD
:1009D00081E0809356010000DF91CF9108951F922E
:1009E0000F9200905F000F92112400905B000F9215
:1009F0002F933F934F935F936F937F938F939F9327
:100A0000AF93BF93EF93FF93CF93DF93CDB7DEB751
:100A10008091570190915801A0915901B0915A01CC
:100A20000197A109B1098093570190935801A093B0
:100A30005901B0935A018091570190915801A091AA
:100A40005901B0915A01892B8A2B8B2B91F40E946A
:100A5000E40480910E0190910F01A0911001B091DA
:100A600011018093570190935801A0935901B093BD
:100A70005A010000DF91CF91FF91EF91BF91AF91AB
:100A80009F918F917F916F915F914F913F912F91A6
:100A90000F9000925B000F9000925F000F901F90EC
:100AA00018950F931F93CF93DF9300D000D0CDB74D
:100AB000DEB769837A838B839C83809173019091E5
:100AC0007401A0917501B09176019C01AD0169811D
:100AD0007A818B819C810E94D20F882309F477C090
:100AE00020E030E0A90169817A818B819C810E949C
:100AF000D20F882351F481E990E021E930E0F90137
:100B000020812870FC01208309C081E990E021E95F
:100B100030E0F90120812360FC01208328E539E3DE
:100B200044E75FE369817A818B819C810E94D20FC7
:100B3000882344F488E990E02FEF3FEFFC013183F4
:100B4000208334C020E034E244EF56E469817A81A6
:100B50008B819C810E94F410181634F488E990E08F
:100B6000FC011182108222C008E910E020E030E090
:100B700040E053E469817A818B819C810E94F91065
:100B8000DC01CB019C01AD0160E074E284EF9AE4EA
:100B90000E94D70FDC01CB01BC01CD010E9449109E
:100BA000DC01CB010197F8019183808384E990E017
:100BB000FC011182108289819A81AB81BC81809372
:100BC000730190937401A0937501B09376010000B6
:100BD0000F900F900F900F90DF91CF911F910F9179
:100BE0000895CF93DF93CDB7DEB780E990E020E49E
:100BF000FC01208381E990E02BE0FC01208360E090
:100C000070E0CB010E9451050000DF91CF91089563
:100C1000CF93DF93CDB7DEB780E990E0FC0110827F
:100C200081E990E0FC0110820000DF91CF910895EE
:100C3000CF93DF9300D0CDB7DEB79A8389838981C4
:100C40009A818130910561F08230910509F44CC0A0
:100C5000892B09F05EC081E090E09A8389835CC0B3
:100C600086E290E0FC018081882F90E081709927D6
:100C7000892B59F481E090E09093600180935F01AB
:100C800082E090E09A83898347C086E290E0FC018D
:100C90008081882F90E082709927892B59F481E018
:100CA00090E0909362018093610182E090E09A83EA
:100CB000898332C086E290E0FC018081882F90E039
:100CC00084709927892B59F481E090E09093640116
:100CD0008093630182E090E09A8389831DC081E064
:100CE00090E09A83898318C086E290E0FC018081BD
:100CF000882F90E0809590959927892B29F082E0A4
:100D000090E09A83898308C081E090E09A83898388
:100D100003C01A821982000089819A81813091056D
:100D200041F08230910509F454C0892B09F453C075
:100D300055C086E290E0FC018081882F90E08170B0
:100D40009927892B31F480915D018F5F80935D013C
:100D500044C086E290E0FC018081882F90E08270A0
:100D60009927892B31F480915D018F5F80935D011C
:100D700034C086E290E0FC018081882F90E084708E
:100D80009927892B31F480915D018F5F80935D01FC
:100D900024C086E290E0FC018081882F90E088707A
:100DA0009927892B31F480915D018F5F80935D01DC
:100DB00014C086E290E0FC018081882F90E0807171
:100DC0009927892B51F480915D018F5F80935D019C
:100DD00004C0000003C0000001C0000089819A81A6
:100DE0000F900F90DF91CF910895CF93DF9300D0B4
:100DF000CDB7DEB79A83898389819A81009721F0E4
:100E0000019709F478C08AC080E290E0FC018081FB
:100E1000882F90E081709927892B29F481E090E058
:100E20009A8389837EC080E290E0FC018081882FD4
:100E300090E082709927892B29F481E090E09A83D1
:100E400089836FC080E290E0FC018081882F90E070
:100E500084709927892B29F481E090E09A83898313
:100E600060C080E290E0FC018081882F90E0887073
:100E70009927892B29F481E090E09A83898351C0D6
:100E800080E290E0FC018081882F90E080719927BA
:100E9000892B29F481E090E09A83898342C080E223
:100EA00090E0FC018081882F90E080729927892B47
:100EB00029F481E090E09A83898333C080E290E056
:100EC000FC018081882F90E080749927892B29F478
:100ED00081E090E09A83898324C080E290E0FC0165
:100EE000808188232CF081E090E09A83898319C067
:100EF0001A82198216C080E290E0FC018081882F5E
:100F000090E0809590959927892B19F41A8219827F
:100F100008C081E090E09A83898303C01A82198215
:100F2000000089819A81009719F00197E1F0A6C02D
:100F300080915F0190916001892B09F09EC08091A2
:100F4000610190916201892B09F097C08091630142
:100F500090916401892B09F090C060E070E0CB01B2
:100F60000E9451058AC080E290E0FC018081882FB8
:100F700090E081709927892B39F460E070ED82E070
:100F800094E40E9451057AC080E290E0FC018081E7
:100F9000882F90E082709927892B39F464EA70EFEA
:100FA00086EF93E40E94510569C080E290E0FC0165
:100FB0008081882F90E084709927892B39F460E034
:100FC00070E08CED93E40E94510558C080E290E0FF
:100FD000FC018081882F90E088709927892B39F453
:100FE00060E070E084EC93E40E94510547C080E229
:100FF00090E0FC018081882F90E080719927892BF7
:1010000039F461E77DE98EEA93E40E94510536C028
:1010100080E290E0FC018081882F90E08072992727
:10102000892B39F464EA70ED84EA93E40E94510557
:1010300025C080E290E0FC018081882F90E08074E0
:101040009927892B39F46BE774ED82E993E40E94C8
:10105000510514C080E290E0FC01808188233CF0BF
:1010600064EA70ED82E893E40E94510507C060E0F5
:1010700070E0CB010E94510501C0000089819A8176
:101080000F900F90DF91CF910895CF93DF9300D011
:10109000CDB7DEB79A83898389819A8181309105A2
:1010A00009F443C08230910509F47FC0892B09F00F
:1010B0009CC08091650190916601019729F485E2B9
:1010C00090E02FE0FC01208385E290E0FC0110829B
:1010D00085E290E020916B0130916C01FC0120834E
:1010E00080916501909166010197E1F480E290E0C2
:1010F000FC018081882F90E0809590959C0133279A
:1011000080916B0190916C018E5E9E4FFC018081FD
:10111000882F90E02817390729F481E090E09A831E
:10112000898366C01A82198263C080916B01909195
:101130006C01069781F4109266011092650110927D
:101140006C0110926B0180915D018F5F80935D0156
:101150001A8219824DC080E290E0FC018081882FC4
:1011600090E0809590959C01332780916B01909140
:101170006C018E5E9E4FFC018081882F90E02817C5
:10118000390781F480916B0190916C01069750F4BE
:1011900082E090E09A83898385E290E021E0FC017F
:1011A000208326C01A82198223C080E290E0FC01CD
:1011B0008081882F90E0809590959C0133278091C5
:1011C0006B0190916C018E5E9E4FFC018081882F97
:1011D00090E02817390729F482E090E09A83898308
:1011E00004C081E090E09A8389831A82198200000A
:1011F00089819A818130910531F08230910569F0C1
:10120000892B69F00DC080916B0190916C01019662
:1012100090936C0180936B0103C0000001C000003B
:1012200089819A810F900F90DF91CF910895CF938C
:10123000DF9300D0CDB7DEB79A83898380916701B1
:1012400090916801019729F485E290E022E0FC0189
:10125000208389819A818130910561F182309105E5
:1012600009F463C0892B09F080C0809167019091D7
:101270006801892BE1F080E290E0FC018081882FF9
:1012800090E0809590959C01332780916D0190911D
:101290006E01885E9E4FFC018081882F90E02817A8
:1012A000390729F481E090E09A83898361C01A822A
:1012B00019825EC080916D0190916E01089781F452
:1012C000109268011092670110926E0110926D01E8
:1012D00080915D018F5F80935D011A82198248C001
:1012E00080E290E0FC018081882F90E080959095CD
:1012F0009C01332780916D0190916E01885E9E4F15
:10130000FC018081882F90E02817390759F48091DB
:101310006D0190916E01089728F482E090E09A8325
:10132000898326C01A82198223C080E290E0FC01E2
:101330008081882F90E0809590959C013327809143
:101340006D0190916E01885E9E4FFC018081882F17
:1013500090E02817390729F482E090E09A83898386
:1013600004C081E090E09A8389831A821982000088
:1013700089819A818130910531F08230910569F03F
:10138000892B69F00DC080916D0190916E010196DD
:1013900090936E0180936D0103C0000001C00000B6
:1013A00089819A810F900F90DF91CF910895CF930B
:1013B000DF9300D0CDB7DEB79A838983809169012E
:1013C00090916A01019729F485E290E024E0FC0104
:1013D000208389819A818130910561F18230910564
:1013E00009F463C0892B09F080C080916901909154
:1013F0006A01892BE1F080E290E0FC018081882F76
:1014000090E0809590959C01332780916F01909199
:101410007001805E9E4FFC018081882F90E028172C
:10142000390729F481E090E09A83898361C01A82A8
:1014300019825EC080916F01909170010A9781F4CA
:1014400010926A01109269011092700110926F015E
:1014500080915D018F5F80935D011A82198248C07F
:1014600080E290E0FC018081882F90E0809590954B
:101470009C01332780916F0190917001805E9E4F97
:10148000FC018081882F90E02817390759F480915A
:101490006F0190917001069728F482E090E09A83A2
:1014A000898326C01A82198223C080E290E0FC0161
:1014B0008081882F90E0809590959C0133278091C2
:1014C0006F0190917001805E9E4FFC018081882F9A
:1014D00090E02817390729F482E090E09A83898305
:1014E00004C081E090E09A8389831A821982000007
:1014F00089819A818130910531F08230910569F0BE
:10150000892B69F00DC080916F0190917001019657
:101510009093700180936F0103C0000001C0000030
:1015200089819A810F900F90DF91CF910895CF9389
:10153000DF9300D0CDB7DEB79A83898389819A8102
:10154000092E000CAA0BBB0B40E050E026E030E077
:10155000841B950B2817390708F410C18A5B9F4F2D
:10156000FC010C94C90F0E94F10581E090E09A8380
:10157000898307C180915F0190916001019761F0BB
:101580008091610190916201019731F08091630136
:1015900090916401019729F482E090E09A83898315
:1015A000F0C081E090E09A838983EBC080915F0175
:1015B00090916001019781F485E290E021E0FC01C7
:1015C000208381E090E0909366018093650183E041
:1015D00090E09A838983D5C08091610190916201E6
:1015E000019781F485E290E022E0FC01208381E014
:1015F00090E0909368018093670184E090E09A8383
:101600008983BFC08091630190916401019781F447
:1016100085E290E023E0FC01208381E090E090935C
:101620006A018093690185E090E09A838983A9C06B
:1016300082E090E09A838983A4C0809171019091A7
:1016400072010B97A0F086E290E0FC018081882F68
:1016500090E081709927892B51F486E090E09A837D
:10166000898360E070E0CB010E9451058AC08091BF
:101670007101909172010B9750F081E090E09A8394
:10168000898360E070E0CB010E9451057AC083E05D
:1016900090E09A83898375C0809171019091720165
:1016A0000897A0F086E290E0FC018081882F90E00E
:1016B00082709927892B51F486E090E09A83898380
:1016C00060E070E0CB010E9451055BC08091710128
:1016D00090917201089750F081E090E09A8389839D
:1016E00060E070E0CB010E9451054BC084E090E0C7
:1016F0009A83898346C080917101909172010B9702
:10170000A0F086E290E0FC018081882F90E082705A
:101710009927892B51F486E090E09A83898360E0D1
:1017200070E0CB010E9451052CC080917101909115
:1017300072010B9750F081E090E09A83898360E01A
:1017400070E0CB010E9451051CC085E090E09A83B7
:10175000898317C00E94080686E290E0FC01808120
:10176000882F90E081709927892B19F01A821982AD
:1017700008C086E090E09A83898303C01A821982A8
:10178000000089819A81092E000CAA0BBB0B40E056
:1017900050E026E030E0841B950B2817390708F449
:1017A000BCC1835B9F4FFC010C94C90F1092600178
:1017B00010925F0110926201109261011092640117
:1017C00010926301ADC11092720110927101A8C113
:1017D0008091710190917201892B39F461E77DE963
:1017E0008EEA93E40E9451057CC080917101909132
:1017F0007201029730F460E070E0CB010E94510565
:1018000070C08091710190917201039738F461E783
:101810007DE98EEA93E40E94510563C080917101D5
:1018200090917201049730F460E070E0CB010E9467
:10183000510557C08091710190917201059738F45C
:1018400061E77DE98EEA93E40E9451054AC08091E8
:10185000710190917201069730F460E070E0CB0165
:101860000E9451053EC080917101909172010797CD
:1018700038F461E77DE98EEA93E40E94510531C0B6
:101880008091710190917201089730F460E070E0EE
:10189000CB010E94510525C0809171019091720188
:1018A000099738F461E77DE98EEA93E40E945105D7
:1018B00018C080917101909172010A9730F460E034
:1018C00070E0CB010E9451050CC080917101909194
:1018D00072010B9730F461E77DE98EEA93E40E9490
:1018E000510580917101909172010196909372015E
:1018F0008093710115C18091710190917201892BC2
:1019000039F464EA70ED84EA93E40E9451055AC008
:101910008091710190917201029738F461E77DE93D
:101920008EEA93E40E9451054DC08091710190911F
:101930007201039738F460E070E084EC93E40E9455
:10194000510540C08091710190917201049738F463
:1019500060E070E08CED93E40E94510533C080910B
:10196000710190917201059738F464EA70EF86EF87
:1019700093E40E94510526C08091710190917201FB
:10198000069738F460E070ED82E094E40E9451051F
:1019900019C08091710190917201079738F464EA3F
:1019A00070ED82E893E40E9451050CC080917101B2
:1019B00090917201089730F46BE774ED82E993E43B
:1019C0000E9451058091710190917201019690934E
:1019D000720180937101A4C0809171019091720194
:1019E000892B39F464EA70ED82E893E40E94510592
:1019F00074C08091710190917201029738F46BE785
:101A000074ED82E993E40E94510567C080917101F1
:101A100090917201039738F464EA70ED82E893E4E0
:101A20000E9451055AC080917101909172010497F2
:101A300038F461E77DE98EEA93E40E9451054DC0D8
:101A40008091710190917201069738F464EA70ED0B
:101A500084EA93E40E94510540C080917101909105
:101A60007201079738F464EA70ED82E893E40E940B
:101A7000510533C08091710190917201089738F43B
:101A80006BE774ED82E993E40E94510526C08091D2
:101A9000710190917201099738F464EA70ED82E85F
:101AA00093E40E94510519C08091710190917201D7
:101AB0000A9738F460E070E084EC93E40E945105EA
:101AC0000CC080917101909172010B9730F461E725
:101AD0007DE98EEA93E40E94510580917101909115
:101AE00072010196909372018093710119C085E291
:101AF00090E024E0FC0120831092720110927101A9
:101B00001092600110925F011092620110926101C7
:101B1000109264011092630103C0000001C0000034
:101B200089819A810F900F90DF91CF910895CF9383
:101B3000DF9300D0CDB7DEB79A83898389819A81FC
:101B4000892B19F41A82198203C01A8219820000A3
:101B500089819A81892B09F011C00E94FE028AE2D4
:101B600091E00E9451038FE391E00E945103809124
:101B70005D01882F90E00E949E03000089819A8178
:101B80000F900F90DF91CF9108950F931F93CF93F4
:101B9000DF93CDB7DEB763970FB6F894DEBF0FBE05
:101BA000CDBF8AE290E02FE3FC01208387E290E042
:101BB000FC01108288E290E02FEFFC01208384E298
:101BC00090E02FEFFC01208381E290E0FC01808116
:101BD00082E290E02FEFFC0120838EE0E7E4F1E069
:101BE000DE01169601900D928A95E1F787E090E06C
:101BF0009C838B838FEF8D838D81809377018AE027
:101C000090E0A0E0B0E08093780190937901A093F8
:101C10007A01B0937B018091780190917901A09134
:101C20007A01B0917B0180937C0190937D01A09318
:101C30007E01B0937F0188E196E0909381018093CB
:101C400080018D81809382018AE090E0A0E0B0E085
:101C50008093830190938401A0938501B0938601C2
:101C60008091830190918401A0918501B0918601BA
:101C70008093870190938801A0938901B0938A0192
:101C800087E99DE090938C0180938B018D818093F7
:101C90008D018AE090E0A0E0B0E080938E01909307
:101CA0008F01A0939001B093910180918E0190914A
:101CB0008F01A0919001B091910180939201909336
:101CC0009301A0939401B093950187E99AE09093D2
:101CD0009701809396018D81809398018AE090E02E
:101CE000A0E0B0E08093990190939A01A0939B01AA
:101CF000B0939C018091990190919A01A0919B01D0
:101D0000B0919C0180939D0190939E01A0939F01AF
:101D1000B093A00185EF96E09093A2018093A1017A
:101D20008D818093A3018AE090E0A0E0B0E08093F1
:101D3000A4019093A501A093A601B093A70180915F
:101D4000A4019091A501A091A601B091A701809353
:101D5000A8019093A901A093AA01B093AB0185E4D7
:101D600098E09093AD018093AC018D818093AE019A
:101D70008AE090E0A0E0B0E08093AF019093B001E2
:101D8000A093B101B093B2018091AF019091B001E5
:101D9000A091B101B091B2018093B3019093B401CD
:101DA000A093B501B093B60187E199E09093B80193
:101DB0008093B7018D818093B9018AE090E0A0E023
:101DC000B0E08093BA019093BB01A093BC01B093A3
:101DD000BD018091BA019091BB01A091BC01B0916D
:101DE000BD018093BE019093BF01A093C001B09349
:101DF000C10187ED99E09093C3018093C2010E94D5
:101E0000E00264EF71E080E090E00E9473040E94C1
:101E1000A1041A821982ADC089819A81880F991F05
:101E20009E012F5F3F4F820F931F0596FC0180811B
:101E30009181FC01258136814781508589819A8174
:101E4000880F991FBE016F5F7F4F860F971F059602
:101E5000FC0180819181FC0181819281A381B48107
:101E6000281739074A075B0709F045C089819A811D
:101E7000880F991F9E012F5F3F4F820F931F05967A
:101E8000FC010081118189819A81880F991F9E012F
:101E90002F5F3F4F820F931F0596FC018081918138
:101EA000FC012185328589819A81880F991FAE01B5
:101EB0004F5F5F4F840F951F0596FC0180819181D4
:101EC000FC018081082E000C990BF9010995F8019D
:101ED000808389819A81880F991F9E012F5F3F4FD0
:101EE000820F931F0596FC0180819181FC01158270
:101EF00016821782108689819A81880F991F9E0108
:101F00002F5F3F4F820F931F0596FC016081718107
:101F100089819A81880F991F9E012F5F3F4F820F01
:101F2000931F0596FC0180819181FC0125813681FA
:101F30004781508589819A81880F991FFE013196CA
:101F40008E0F9F1F0596FC0180819181FC0181818C
:101F50009281A381B481820F931FA41FB51FFB013F
:101F600085839683A783B08789819A8101969A8316
:101F7000898329813A818B819C812817390708F44C
:101F80004BCF0000809156018823E1F31092560157
:101F900040CFEE0FFF1F0024001C0BBE0790F691F0
:101FA000E02D09940E947F1008F481E008950E94BA
:101FB000EB0F0C94BA100E94B31058F00E94AC10B2
:101FC00040F029F45F3F29F00C94A31051110C94B8
:101FD000EE100C94A9100E94CB1068F39923B1F372
:101FE000552391F3951B550BBB27AA27621773073F
:101FF000840738F09F5F5F4F220F331F441FAA1FD3
:10200000A9F335D00E2E3AF0E0E832D0915050408E
:10201000E695001CCAF72BD0FE2F29D0660F771F3C
:10202000881FBB1F261737074807AB07B0E809F022
:10203000BB0B802DBF01FF2793585F4F3AF09E3FA7
:10204000510578F00C94A3100C94EE105F3FE4F36C
:10205000983ED4F3869577956795B795F7959F5FEA
:10206000C9F7880F911D9695879597F90895E1E036
:10207000660F771F881FBB1F621773078407BA0795
:1020800020F0621B730B840BBA0BEE1F88F7E095F0
:1020900008950E9450106894B1110C94EE100895A8
:1020A0000E94D31088F09F5798F0B92F9927B75105
:1020B000B0F0E1F0660F771F881F991F1AF0BA95EC
:1020C000C9F714C0B13091F00E94ED10B1E008954D
:1020D0000C94ED10672F782F8827B85F39F0B93F3F
:1020E000CCF3869577956795B395D9F73EF490959F
:1020F0008095709561957F4F8F4F9F4F0895990FF1
:102100000008550FAA0BE0E8FEEF16161706E807C1
:10211000F907C0F012161306E407F50798F0621BE2
:10212000730B840B950B39F40A2661F0232B242BB7
:10213000252B21F408950A2609F4A140A6958FEFD6
:10214000811D811D089597F99F6780E870E060E028
:1021500008959FEF80EC089500240A941616170640
:1021600018060906089500240A9412161306140688
:1021700005060895092E0394000C11F4882352F0EB
:10218000BB0F40F4BF2B11F460FF04C06F5F7F4FA3
:102190008F4F9F4F089557FD9058440F551F59F08A
:1021A0005F3F71F04795880F97FB991F61F09F3F44
:1021B00079F087950895121613061406551FF2CF6D
:1021C0004695F1DF08C0161617061806991FF1CFBD
:1021D00086957105610508940895E894BB276627E4
:1021E0007727CB0197F908950E947F1008F48FEFAD
:1021F00008950E940C110C94BA100E94AC1038F093
:102200000E94B31020F0952311F00C94A3100C94AD
:10221000A91011240C94EE100E94CB1070F3959F1E
:10222000C1F3950F50E0551F629FF001729FBB27CD
:10223000F00DB11D639FAA27F00DB11DAA1F649F69
:102240006627B00DA11D661F829F2227B00DA11D1C
:10225000621F739FB00DA11D621F839FA00D611DA2
:10226000221F749F3327A00D611D231F849F600DC3
:10227000211D822F762F6A2F11249F5750409AF0EC
:10228000F1F088234AF0EE0FFF1FBB1F661F771F78
:10229000881F91505040A9F79E3F510580F00C9443
:1022A000A3100C94EE105F3FE4F3983ED4F38695B0
:1022B00077956795B795F795E7959F5FC1F7FE2BE3
:1022C000880F911D9695879597F908954532510588
:1022D00020F4423010F00C947111FB011082CB01FC
:1022E0000895BB274A3031F4992322F4BDE290953A
:1022F00081959F4F0C947D11BB27FB015527AA2781
:10230000880F991FAA1FA41710F0A41B8395505182
:10231000B9F7A05DAA3308F0A95DA193009779F7FA
:10232000B111B1931192CB010C949611DC01FC0117
:10233000672F71917723E1F7329704C07C916D93F9
:1023400070836291AE17BF07C8F30895F894FFCF6A
:1023500000000002000000004A040000000001002C
:10236000000010101010101020100804020180400E
:10237000804080102080408008104C6574277320B6
:10238000706C6179205468652054756E6520005327
:10239000636F72653A2000770182018D019801A375
:0623A00001AE01B90100CD
:00000001FF
