:100000000C9454000C9473000C9473000C947300C3
:100010000C9473000C9473000C9473000C94730094
:100020000C9473000C9473000C9473000C94730084
:100030000C9473000C94EF040C9473000C947300F4
:100040000C9473000C9473000C9473000C94730064
:100050000C9473000C9473000C9473000C94730054
:100060000C9473000C9473000C9473000C94730044
:100070000C9473000C9473000C9473000C94730034
:100080000C9473000C9473000C947300A208A908DC
:10009000C508FD082C095B098A096F0BB609C3095D
:1000A000C8095B0ACC0A570B11241FBECFEFD0E45E
:1000B000DEBFCDBF11E0A0E0B1E0E2E3FEE100E091
:1000C0000BBF02C007900D92A833B107D9F721E00A
:1000D000A8E3B1E001C01D92A038B207E1F70E9489
:1000E000A50B0C94170F0C940000CF93DF93CDB7A2
:1000F000DEB762970FB6F894DEBF0FBECDBF9A8B06
:10010000898B1A82198277C080E090E0A0E8BFE373
:100110008B839C83AD83BE8320E030E04AE755E4C7
:100120006B817C818D819E810E946A0EDC01CB01F6
:100130008F839887A987BA8720E030E040E85FE3A3
:100140006F81788589859A850E94430D88232CF4D8
:1001500081E090E09C878B873FC020E03FEF4FE736
:1001600057E46F81788589859A850E94650E1816F7
:100170004CF520E030E040E251E46B817C818D81E0
:100180009E810E946A0EDC01CB01BC01CD010E9460
:10019000C10DDC01CB019C878B870FC080E991E00A
:1001A0009E878D878D859E850197F1F79E878D8728
:1001B0008B859C8501979C878B878B859C85892B5C
:1001C00069F714C06F81788589859A850E94C10D71
:1001D000DC01CB019C878B878B859C85988B8F87D7
:1001E0008F8598890197F1F7988B8F8789819A81FC
:1001F00001969A83898329813A8189899A89281766
:1002000039070CF481CF000062960FB6F894DEBF78
:100210000FBECDBFDF91CF910895CF93DF93CDB7C0
:10022000DEB78BE290E02BE230E0F9012081206222
:10023000FC0120838AEF90E00E9475008BE290E041
:100240002BE230E0F90120812F7DFC0120838AEF31
:1002500090E00E9475000000DF91CF910895CF9348
:10026000DF93CDB7DEB7A0970FB6F894DEBF0FBE11
:10027000CDBF8BE290E02BE230E0F90120812260DB
:10028000FC01208380E090E0A0E2B2E489839A83BD
:10029000AB83BC832BEA3AEA4AEA50E469817A816B
:1002A0008B819C810E946A0EDC01CB018D839E8331
:1002B000AF83B88720E030E040E850E469817A817C
:1002C0008B819C810E946A0EDC01CB0189879A8711
:1002D000AB87BC8720E030E040E85FE36D817E8142
:1002E0008F8198850E94430D88231CF481E08D87BF
:1002F000B2C020E03FEF4FE757E469857A858B85F0
:100300009C850E94650E18160CF07BC020E030E042
:100310004AE754E469817A818B819C810E94480D6F
:10032000DC01CB018E879F87A88BB98B20E030E062
:100330004AE755E46E857F85888999890E946A0E0F
:10034000DC01CB018A8B9B8BAC8BBD8B20E030E03A
:1003500040E85FE36A897B898C899D890E94430D0F
:1003600088232CF481E090E09F8B8E8B3FC020E0AF
:100370003FEF4FE757E46A897B898C899D890E940A
:10038000650E18164CF520E030E040E251E46E8531
:100390007F85888999890E946A0EDC01CB01BC01A6
:1003A000CD010E94C10DDC01CB019F8B8E8B0FC054
:1003B00080E991E0998F888F888D998D0197F1F769
:1003C000998F888F8E899F8901979F8B8E8B8E89BD
:1003D0009F89892B69F73FC06A897B898C899D89B0
:1003E0000E94C10DDC01CB019F8B8E8B8E899F8972
:1003F0009B8F8A8F8A8D9B8D0197F1F79B8F8A8FB8
:100400002AC020E030E04FE753E46D817E818F8188
:1004100098850E94650E1816ACF469857A858B85DF
:100420009C850E94C10DDC01CB019D8F8C8F8C8D32
:100430009D8D9F8F8E8F8E8D9F8D0197F1F79F8F52
:100440008E8F0FC06D817E818F8198850E94C10D36
:10045000DC01CB018D878D8588A388A18A95F1F772
:1004600088A38BE290E02BE230E0F90120812D7F20
:10047000FC0120830000A0960FB6F894DEBF0FBEEB
:10048000CDBFDF91CF910895CF93DF931F92CDB76A
:10049000DEB789838BE290E02BE230E0F901208126
:1004A000237CFC0120838981882F90E0807199272B
:1004B000892B49F08BE290E02BE230E0F9012081BA
:1004C0002460FC0120838981882F90E08072992725
:1004D000892B49F08BE290E02BE230E0F90120819A
:1004E0002860FC0120838981882F90E080749927FF
:1004F000892B49F08BE290E02BE230E0F90120817A
:100500002061FC012083898188234CF48BE290E0F8
:100510002BE230E0F90120812062FC0120830E945F
:100520002F0100000F90DF91CF910895CF93DF93BB
:100530001F92CDB7DEB7898389810E9444028981E9
:100540008295807F0E9444028BE290E02BE230E0B3
:10055000F90120812F7DFC01208300000F90DF91A5
:10056000CF910895CF93DF931F92CDB7DEB78983E4
:100570008BE290E02BE230E0F90120812E7FFC013C
:10058000208389810E94960200000F90DF91CF9115
:100590000895CF93DF931F92CDB7DEB789838BE2A7
:1005A00090E02BE230E0F90120812160FC01208302
:1005B00089810E94960200000F90DF91CF910895EB
:1005C000CF93DF93CDB7DEB783E30E94B20282E31D
:1005D0000E94B20288E20E94B2028CE00E94B20243
:1005E00086E00E94B20281E00E94B20283E090E0C5
:1005F0000E9475000000DF91CF910895CF93DF93A3
:10060000CDB7DEB781E00E94B20283E090E00E94A5
:1006100075000000DF91CF910895CF93DF93CDB7A0
:10062000DEB780E80E94B2020000DF91CF9108950A
:10063000CF93DF9300D01F92CDB7DEB78A836B8351
:1006400019828B81882F90E08230910541F08330B0
:10065000910541F0019749F480E4898306C084E163
:10066000898303C084E58983000099818A81890F89
:1006700080580E94B20200000F900F900F90DF91FF
:10068000CF910895CF93DF931F92CDB7DEB78983C3
:10069000698180E00E94180300000F90DF91CF91E4
:1006A0000895CF93DF9300D0CDB7DEB79A838983C7
:1006B0000BC089819A819C012F5F3F4F3A83298328
:1006C000FC0180810E94C90289819A81FC0180819C
:1006D000882379F700000F900F90DF91CF91089554
:1006E000CF93DF93CDB7DEB72A970FB6F894DEBF6E
:1006F0000FBECDBF9A8789871A82198226E0CE0164
:100700000396FC01322F11923A95E9F789859A8573
:1007100040E150E09E012F5F3F4FB9010E94D70E8C
:10072000CE0101960E94510300002A960FB6F8945C
:10073000DEBF0FBECDBFDF91CF910895CF93DF9382
:10074000CDB7DEB72A970FB6F894DEBF0FBECDBF88
:100750009A8789871A82198226E0CE010396FC01C6
:10076000322F11923A95E9F789859A854AE050E04F
:100770009E012F5F3F4FB9010E94D70ECE01019617
:100780000E94510300002A960FB6F894DEBF0FBEF8
:10079000CDBFDF91CF910895CF93DF931F92CDB757
:1007A000DEB789838981882F90E08031910581F0BF
:1007B000813191051CF4892B39F016C080329105E6
:1007C00059F0C09769F010C080E00E9442030CC04D
:1007D00081E00E94420308C082E00E94420304C0FC
:1007E00083E00E944203000000000F90DF91CF9150
:1007F0000895CF93DF931F92CDB7DEB789838981A8
:10080000803214F480E209C089818F3711F480EAC4
:1008100004C089818F5F898389810F90DF91CF9197
:100820000895CF93DF9300D01F92CDB7DEB781E458
:1008300089830E94FE0281E08A8322C060E082E117
:100840000E9418038A81882F90E00E949E031B82D9
:1008500011C08B810E94CC0389810E94C9028981C9
:100860000E94F903898382E390E00E9475008B81E6
:100870008F5F8B838B81803460F38A818F5F8A8363
:100880008A818436D8F200000F900F900F90DF918C
:10089000CF910895CF93DF9300D01F92CDB7DEB7ED
:1008A00089837B836A8389818A3031F48A819B8141
:1008B000BC018DE00E944A0480EC90E0FC01808144
:1008C000882F90E080729927892BB1F386EC90E015
:1008D0002981FC01208380E090E00F900F900F9021
:1008E000DF91CF910895CF93DF9300D000D0CDB7A3
:1008F000DEB769837A838B839C8389819A81AB81FC
:10090000BC8180930E0190930F01A0931001B093CE
:10091000110180910E0190910F01A0911001B091F1
:1009200011018093390190933A01A0933B01B09358
:100930003C0100000F900F900F900F90DF91CF912E
:100940000895CF93DF93CDB7DEB781E890E02BE039
:10095000FC01208388E890E02DE730E0FC01318342
:1009600020838FE690E022E0FC01208384E890E081
:10097000FC011182108280910E0190910F01A091D3
:100980001001B09111018093390190933A01A09325
:100990003B01B0933C018FE590E02FE530E0F90199
:1009A00020812068FC0120830000DF91CF91089511
:1009B000CF93DF93CDB7DEB781E890E0FC011082E2
:1009C0000000DF91CF910895CF93DF93CDB7DEB7CD
:1009D00081E0809338010000DF91CF9108951F924C
:1009E0000F9200905F000F92112400905B000F9215
:1009F0002F933F934F935F936F937F938F939F9327
:100A0000AF93BF93EF93FF93CF93DF93CDB7DEB751
:100A10008091390190913A01A0913B01B0913C0144
:100A20000197A109B1098093390190933A01A093EC
:100A30003B01B0933C018091390190913A01A09122
:100A40003B01B0913C01892B8A2B8B2B91F40E94A6
:100A5000E40480910E0190910F01A0911001B091DA
:100A600011018093390190933A01A0933B01B09317
:100A70003C010000DF91CF91FF91EF91BF91AF91C9
:100A80009F918F917F916F915F914F913F912F91A6
:100A90000F9000925B000F9000925F000F901F90EC
:100AA00018950F931F93CF93DF9300D000D0CDB74D
:100AB000DEB769837A838B839C8380914F01909109
:100AC0005001A0915101B09152019C01AD01698189
:100AD0007A818B819C810E94430D882309F477C021
:100AE00020E030E0A90169817A818B819C810E949C
:100AF000430D882351F481E990E021E930E0F901C8
:100B000020812870FC01208309C081E990E021E95F
:100B100030E0F90120812360FC01208328E539E3DE
:100B200044E75FE369817A818B819C810E94430D58
:100B3000882344F488E990E02FEF3FEFFC013183F4
:100B4000208334C020E034E244EF56E469817A81A6
:100B50008B819C810E94650E181634F488E990E020
:100B6000FC011182108222C008E910E020E030E090
:100B700040E053E469817A818B819C810E946A0EF6
:100B8000DC01CB019C01AD0160E074E284EF9AE4EA
:100B90000E94480DDC01CB01BC01CD010E94BA0DC1
:100BA000DC01CB010197F8019183808384E990E017
:100BB000FC011182108289819A81AB81BC81809372
:100BC0004F0190935001A0935101B0935201000046
:100BD0000F900F900F900F90DF91CF911F910F9179
:100BE0000895CF93DF93CDB7DEB780E990E020E49E
:100BF000FC01208381E990E02BE0FC01208360E090
:100C000070E0CB010E9451050000DF91CF91089563
:100C1000CF93DF93CDB7DEB780E990E0FC0110827F
:100C200081E990E0FC0110820000DF91CF910895EE
:100C3000CF93DF9300D0CDB7DEB79A8389838981C4
:100C40009A818130910561F08230910509F45CC090
:100C5000892B09F06EC081E090E09A8389836CC093
:100C600086E290E0FC018081882F90E081709927D6
:100C7000892B59F481E090E09093420180934101E7
:100C800081E090E09A83898357C086E290E0FC017E
:100C90008081882F90E082709927892B59F481E018
:100CA00090E0909344018093430181E090E09A8327
:100CB000898342C086E290E0FC018081882F90E029
:100CC00084709927892B59F481E090E09093460134
:100CD0008093450181E090E09A8389832DC086E26C
:100CE00090E0FC018081882F90E080959095992775
:100CF000892B29F482E090E09A8389831DC081E0EA
:100D000090E09A83898318C086E290E0FC0180819C
:100D1000882F90E0809590959927892B29F082E083
:100D200090E09A83898308C081E090E09A83898368
:100D300003C01A821982000089819A81813091054D
:100D400041F08230910509F454C0892B09F453C055
:100D500055C086E290E0FC018081882F90E0817090
:100D60009927892B31F480913F018F5F80933F0158
:100D700044C086E290E0FC018081882F90E0827080
:100D80009927892B31F480913F018F5F80933F0138
:100D900034C086E290E0FC018081882F90E084706E
:100DA0009927892B31F480913F018F5F80933F0118
:100DB00024C086E290E0FC018081882F90E088705A
:100DC0009927892B31F480913F018F5F80933F01F8
:100DD00014C086E290E0FC018081882F90E0807151
:100DE0009927892B51F480913F018F5F80933F01B8
:100DF00004C0000003C0000001C0000089819A8186
:100E00000F900F90DF91CF910895CF93DF9300D093
:100E1000CDB7DEB79A83898389819A81009721F0C3
:100E2000019709F478C08AC080E290E0FC018081DB
:100E3000882F90E081709927892B29F481E090E038
:100E40009A8389837EC080E290E0FC018081882FB4
:100E500090E082709927892B29F481E090E09A83B1
:100E600089836FC080E290E0FC018081882F90E050
:100E700084709927892B29F481E090E09A838983F3
:100E800060C080E290E0FC018081882F90E0887053
:100E90009927892B29F481E090E09A83898351C0B6
:100EA00080E290E0FC018081882F90E0807199279A
:100EB000892B29F481E090E09A83898342C080E203
:100EC00090E0FC018081882F90E080729927892B27
:100ED00029F481E090E09A83898333C080E290E036
:100EE000FC018081882F90E080749927892B29F458
:100EF00081E090E09A83898324C080E290E0FC0145
:100F0000808188232CF081E090E09A83898319C046
:100F10001A82198216C080E290E0FC018081882F3D
:100F200090E0809590959927892B19F41A8219825F
:100F300008C081E090E09A83898303C01A821982F5
:100F4000000089819A81009719F0019701F1D7C0BB
:100F500085E290E0FC011082809141019091420174
:100F6000892B09F0CBC08091430190914401892BDA
:100F700009F0C4C08091450190914601892B09F088
:100F8000BDC060E070E0CB010E945105B7C080E2B7
:100F900090E0FC018081882F90E081709927892B57
:100FA00061F460E070ED82E094E40E94510585E216
:100FB00090E021E0FC012083A2C080E290E0FC01EF
:100FC0008081882F90E082709927892B61F464EAF0
:100FD00070EF86EF93E40E94510585E290E022E0F5
:100FE000FC0120838CC080E290E0FC018081882F8E
:100FF00090E084709927892B61F460E070E08CEDBB
:1010000093E40E94510585E290E023E0FC012083F7
:1010100076C080E290E0FC018081882F90E08870AB
:101020009927892B61F460E070E084EC93E40E94DE
:10103000510585E290E024E0FC01208360C080E25D
:1010400090E0FC018081882F90E080719927892BA6
:1010500061F461E77DE98EEA93E40E94510585E23F
:1010600090E025E0FC0120834AC080E290E0FC0192
:101070008081882F90E080729927892B61F464EA3F
:1010800070ED84EA93E40E94510585E290E026E049
:10109000FC01208334C080E290E0FC018081882F35
:1010A00090E080749927892B61F46BE774ED82E9F5
:1010B00093E40E94510585E290E027E0FC01208343
:1010C0001EC080E290E0FC018081882364F064EA25
:1010D00070ED82E893E40E94510585E290E028E0FB
:1010E000FC0120830CC060E070E0CB010E94510540
:1010F00085E290E02FEFFC01208301C00000898190
:101100009A810F900F90DF91CF910895CF93DF9345
:1011100000D0CDB7DEB79A83898389819A81092E61
:10112000000CAA0BBB0B40E050E026E030E0841B33
:10113000950B2817390708F401C18A5B9F4FFC0102
:101140000C943A0D0E94F10581E090E09A83898326
:10115000F8C08091410190914201019761F0809126
:10116000430190914401019731F0809145019091A4
:101170004601019729F482E090E09A838983E1C0D7
:1011800081E090E09A838983DCC080914101909155
:101190004201019759F481E090E0909348018093D7
:1011A000470183E090E09A838983CBC0809143011B
:1011B00090914401019759F481E090E090934A01A5
:1011C0008093490184E090E09A838983BAC080913A
:1011D000450190914601019759F481E090E0909388
:1011E0004C0180934B0185E090E09A838983A9C0EC
:1011F00082E090E09A838983A4C080914D01909110
:101200004E010B97A0F086E290E0FC018081882FD0
:1012100090E081709927892B51F486E090E09A83C1
:10122000898360E070E0CB010E9451058AC0809103
:101230004D0190914E010B9750F081E090E09A8320
:10124000898360E070E0CB010E9451057AC083E0A1
:1012500090E09A83898375C080914D0190914E01F1
:101260000897A0F086E290E0FC018081882F90E052
:1012700082709927892B51F486E090E09A838983C4
:1012800060E070E0CB010E9451055BC080914D0190
:1012900090914E01089750F081E090E09A83898305
:1012A00060E070E0CB010E9451054BC084E090E00B
:1012B0009A83898346C080914D0190914E010B978E
:1012C000A0F086E290E0FC018081882F90E082709F
:1012D0009927892B51F486E090E09A83898360E016
:1012E00070E0CB010E9451052CC080914D0190917E
:1012F0004E010B9750F081E090E09A83898360E083
:1013000070E0CB010E9451051CC085E090E09A83FB
:10131000898317C00E94080686E290E0FC01808164
:10132000882F90E081709927892B19F01A821982F1
:1013300008C086E090E09A83898303C01A821982EC
:10134000000089819A81092E000CAA0BBB0B40E09A
:1013500050E026E030E0841B950B2817390708F48D
:10136000BCC1835B9F4FFC010C943A0D109242016B
:1013700010924101109244011092430110924601D3
:1013800010924501ADC110924E0110924D01A8C1BD
:1013900080914D0190914E01892B39F461E77DE9EF
:1013A0008EEA93E40E9451057CC080914D0190919A
:1013B0004E01029730F460E070E0CB010E945105CD
:1013C00070C080914D0190914E01039738F461E710
:1013D0007DE98EEA93E40E94510563C080914D013E
:1013E00090914E01049730F460E070E0CB010E94D0
:1013F000510557C080914D0190914E01059738F4E9
:1014000061E77DE98EEA93E40E9451054AC080912C
:101410004D0190914E01069730F460E070E0CB01F1
:101420000E9451053EC080914D0190914E01079759
:1014300038F461E77DE98EEA93E40E94510531C0FA
:1014400080914D0190914E01089730F460E070E07A
:10145000CB010E94510525C080914D0190914E0114
:10146000099738F461E77DE98EEA93E40E9451051B
:1014700018C080914D0190914E010A9730F460E0C0
:1014800070E0CB010E9451050CC080914D019091FC
:101490004E010B9730F461E77DE98EEA93E40E94F8
:1014A000510580914D0190914E01019690934E010E
:1014B00080934D0115C180914D0190914E01892B72
:1014C00039F464EA70ED84EA93E40E9451055AC04D
:1014D00080914D0190914E01029738F461E77DE9CA
:1014E0008EEA93E40E9451054DC080914D01909188
:1014F0004E01039738F460E070E084EC93E40E94BE
:10150000510540C080914D0190914E01049738F4EF
:1015100060E070E08CED93E40E94510533C080914F
:101520004D0190914E01059738F464EA70EF86EF13
:1015300093E40E94510526C080914D0190914E0187
:10154000069738F460E070ED82E094E40E94510563
:1015500019C080914D0190914E01079738F464EACB
:1015600070ED82E893E40E9451050CC080914D011A
:1015700090914E01089730F46BE774ED82E993E4A3
:101580000E94510580914D0190914E0101969093DA
:101590004E0180934D01A4C080914D0190914E0168
:1015A000892B39F464EA70ED82E893E40E945105D6
:1015B00074C080914D0190914E01029738F46BE711
:1015C00074ED82E993E40E94510567C080914D015A
:1015D00090914E01039738F464EA70ED82E893E449
:1015E0000E9451055AC080914D0190914E0104977F
:1015F00038F461E77DE98EEA93E40E9451054DC01D
:1016000080914D0190914E01069738F464EA70ED97
:1016100084EA93E40E94510540C080914D0190916D
:101620004E01079738F464EA70ED82E893E40E9473
:10163000510533C080914D0190914E01089738F4C7
:101640006BE774ED82E993E40E94510526C0809116
:101650004D0190914E01099738F464EA70ED82E8EB
:1016600093E40E94510519C080914D0190914E0163
:101670000A9738F460E070E084EC93E40E9451052E
:101680000CC080914D0190914E010B9730F461E7B1
:101690007DE98EEA93E40E94510580914D0190917D
:1016A0004E01019690934E0180934D0119C085E241
:1016B00090E024E0FC01208310924E0110924D0135
:1016C0001092420110924101109244011092430184
:1016D000109246011092450103C0000001C00000B5
:1016E00089819A810F900F90DF91CF910895CF93C8
:1016F000DF9300D0CDB7DEB79A83898389819A8141
:10170000892B19F41A82198203C01A8219820000E7
:1017100089819A81892B09F011C00E94FE0282E121
:1017200091E00E94510387E291E00E945103809171
:101730003F01882F90E00E949E03000089819A81DA
:101740000F900F90DF91CF9108950F931F93CF9338
:10175000DF93CDB7DEB72D970FB6F894DEBF0FBE7F
:10176000CDBF8AE290E02FE3FC01208387E290E086
:10177000FC01108288E290E02FEFFC01208384E2DC
:1017800090E02FEFFC01208381E290E0FC0180815A
:1017900082E290E02FEFFC01208388E0EFE2F1E0AD
:1017A000DE01169601900D928A95E1F784E090E0B3
:1017B0009C838B838FEF8D838D81809353018AE08F
:1017C00090E0A0E0B0E08093540190935501A09385
:1017D0005601B09357018091540190915501A09109
:1017E0005601B09157018093580190935901A093ED
:1017F0005A01B0935B0188E196E090935D0180937C
:101800005C018D8180935E018AE090E0A0E0B0E011
:1018100080935F0190936001A0936101B093620196
:1018200080915F0190916001A0916101B09162018E
:101830008093630190936401A0936501B093660166
:1018400087E79BE090936801809367018D81809387
:1018500069018AE090E0A0E0B0E080936A01909393
:101860006B01A0936C01B0936D0180916A0190911E
:101870006B01A0916C01B0916D0180936E0190930A
:101880006F01A0937001B093710186E898E0909386
:101890007301809372018D81809374018AE090E0DE
:1018A000A0E0B0E08093750190937601A09377015A
:1018B000B09378018091750190917601A0917701A4
:1018C000B09178018093790190937A01A0937B0184
:1018D000B0937C0185E097E090937E0180937D0139
:1018E0000E94E00264EF71E080E090E00E947304E7
:1018F0000E94A1041A821982ADC089819A81880F41
:10190000991F9E012F5F3F4F820F931F0596FC0189
:1019100080819181FC0125813681478150858981B3
:101920009A81880F991FBE016F5F7F4F860F971FA7
:101930000596FC0180819181FC0181819281A381C6
:10194000B481281739074A075B0709F045C0898128
:101950009A81880F991F9E012F5F3F4F820F931F1F
:101960000596FC010081118189819A81880F991F58
:101970009E012F5F3F4F820F931F0596FC018081D0
:101980009181FC012185328589819A81880F991F77
:10199000AE014F5F5F4F840F951F0596FC0180815C
:1019A0009181FC018081082E000C990BF9010995A9
:1019B000F801808389819A81880F991F9E012F5F8A
:1019C0003F4F820F931F0596FC0180819181FC019E
:1019D000158216821782108689819A81880F991F35
:1019E0009E012F5F3F4F820F931F0596FC01608180
:1019F000718189819A81880F991F9E012F5F3F4FC6
:101A0000820F931F0596FC0180819181FC01258145
:101A100036814781508589819A81880F991FFE01FF
:101A200031968E0F9F1F0596FC0180819181FC01EC
:101A300081819281A381B481820F931FA41FB51F5E
:101A4000FB0185839683A783B08789819A8101965C
:101A50009A83898329813A818B819C812817390750
:101A600008F44BCF0000809138018823E1F31092F5
:101A7000380140CFEE0FFF1F0024001C0BBE079063
:101A8000F691E02D09940E94F00D08F481E008958C
:101A90000E945C0D0C942B0E0E94240E58F00E94A4
:101AA0001D0E40F029F45F3F29F00C94140E5111E3
:101AB0000C945F0E0C941A0E0E943C0E68F399234E
:101AC000B1F3552391F3951B550BBB27AA2762173A
:101AD0007307840738F09F5F5F4F220F331F441F47
:101AE000AA1FA9F335D00E2E3AF0E0E832D091507B
:101AF0005040E695001CCAF72BD0FE2F29D0660F68
:101B0000771F881FBB1F261737074807AB07B0E8AA
:101B100009F0BB0B802DBF01FF2793585F4F3AF0B0
:101B20009E3F510578F00C94140E0C945F0E5F3FAD
:101B3000E4F3983ED4F3869577956795B795F79536
:101B40009F5FC9F7880F911D9695879597F908951E
:101B5000E1E0660F771F881FBB1F621773078407BA
:101B6000BA0720F0621B730B840BBA0BEE1F88F7C9
:101B7000E09508950E94C10D6894B1110C945F0E18
:101B800008950E94440E88F09F5798F0B92F992726
:101B9000B751B0F0E1F0660F771F881F991F1AF058
:101BA000BA95C9F714C0B13091F00E945E0EB1E051
:101BB00008950C945E0E672F782F8827B85F39F050
:101BC000B93FCCF3869577956795B395D9F73EF4F1
:101BD00090958095709561957F4F8F4F9F4F089599
:101BE000990F0008550FAA0BE0E8FEEF161617062E
:101BF000E807F907C0F012161306E407F50798F096
:101C0000621B730B840B950B39F40A2661F0232BAE
:101C1000242B252B21F408950A2609F4A140A6952A
:101C20008FEF811D811D089597F99F6780E870E00F
:101C300060E008959FEF80EC089500240A94161642
:101C4000170618060906089500240A9412161306AA
:101C5000140605060895092E0394000C11F4882338
:101C600052F0BB0F40F4BF2B11F460FF04C06F5F54
:101C70007F4F8F4F9F4F089557FD9058440F551F2A
:101C800059F05F3F71F04795880F97FB991F61F0FE
:101C90009F3F79F087950895121613061406551F75
:101CA000F2CF4695F1DF08C0161617061806991FE1
:101CB000F1CF86957105610508940895E894BB27D6
:101CC00066277727CB0197F908950E94F00D08F455
:101CD0008FEF08950E947D0E0C942B0E0E941D0E16
:101CE00038F00E94240E20F0952311F00C94140E6D
:101CF0000C941A0E11240C945F0E0E943C0E70F38B
:101D0000959FC1F3950F50E0551F629FF001729FA0
:101D1000BB27F00DB11D639FAA27F00DB11DAA1FAF
:101D2000649F6627B00DA11D661F829F2227B00DFC
:101D3000A11D621F739FB00DA11D621F839FA00D87
:101D4000611D221F749F3327A00D611D231F849FD7
:101D5000600D211D822F762F6A2F11249F5750402E
:101D60009AF0F1F088234AF0EE0FFF1FBB1F661FA9
:101D7000771F881F91505040A9F79E3F510580F072
:101D80000C94140E0C945F0E5F3FE4F3983ED4F372
:101D9000869577956795B795F795E7959F5FC1F716
:101DA000FE2B880F911D9695879597F908954532DA
:101DB000510520F4423010F00C94E20EFB01108229
:101DC000CB010895BB274A3031F4992322F4BDE2B8
:101DD000909581959F4F0C94EE0EBB27FB015527E4
:101DE000AA27880F991FAA1FA41710F0A41B839578
:101DF0005051B9F7A05DAA3308F0A95DA1930097EF
:101E000079F7B111B1931192CB010C94070FDC015A
:101E1000FC01672F71917723E1F7329704C07C9121
:101E20006D9370836291AE17BF07C8F30895F8945D
:021E3000FFCFE2
:101E320000000002000000004A040000000001004F
:101E420000004C6574277320706C617920546865BA
:101E52002054756E65200053636F72653A200053FB
:081E6200015E01690174010039
:00000001FF
