:100000000C9454000C9473000C9473000C947300C3
:100010000C9473000C9473000C9473000C94730094
:100020000C9473000C9473000C9473000C94730084
:100030000C9473000C94EF040C9473000C947300F4
:100040000C9473000C9473000C9473000C94730064
:100050000C9473000C9473000C9473000C94730054
:100060000C9473000C9473000C9473000C94730044
:100070000C9473000C9473000C9473000C94730034
:100080000C9473000C9473000C947300DE0AE50A60
:10009000010B390B680B970BC60BAB0DF20BFF0B6B
:1000A000040C970C080D930D11241FBECFEFD0E464
:1000B000DEBFCDBF11E0A0E0B1E0ECE9F3E200E08B
:1000C0000BBF02C007900D92A236B107D9F721E00D
:1000D000A2E6B1E001C01D92A13DB207E1F70E9486
:1000E000EB0D0C94CC110C940000CF93DF93CDB7A3
:1000F000DEB762970FB6F894DEBF0FBECDBF9A8B06
:10010000898B1A82198277C080E090E0A0E8BFE373
:100110008B839C83AD83BE8320E030E04AE755E4C7
:100120006B817C818D819E810E941F11DC01CB013E
:100130008F839887A987BA8720E030E040E85FE3A3
:100140006F81788589859A850E94F80F88232CF421
:1001500081E090E09C878B873FC020E03FEF4FE736
:1001600057E46F81788589859A850E941A1118163F
:100170004CF520E030E040E251E46B817C818D81E0
:100180009E810E941F11DC01CB01BC01CD010E94A8
:100190007610DC01CB019C878B870FC080E991E052
:1001A0009E878D878D859E850197F1F79E878D8728
:1001B0008B859C8501979C878B878B859C85892B5C
:1001C00069F714C06F81788589859A850E947610B9
:1001D000DC01CB019C878B878B859C85988B8F87D7
:1001E0008F8598890197F1F7988B8F8789819A81FC
:1001F00001969A83898329813A8189899A89281766
:1002000039070CF481CF000062960FB6F894DEBF78
:100210000FBECDBFDF91CF910895CF93DF93CDB7C0
:10022000DEB78BE290E02BE230E0F9012081206222
:10023000FC0120838AEF90E00E9475008BE290E041
:100240002BE230E0F90120812F7DFC0120838AEF31
:1002500090E00E9475000000DF91CF910895CF9348
:10026000DF93CDB7DEB7A0970FB6F894DEBF0FBE11
:10027000CDBF8BE290E02BE230E0F90120812260DB
:10028000FC01208380E090E0A0E2B2E489839A83BD
:10029000AB83BC832BEA3AEA4AEA50E469817A816B
:1002A0008B819C810E941F11DC01CB018D839E8379
:1002B000AF83B88720E030E040E850E469817A817C
:1002C0008B819C810E941F11DC01CB0189879A8759
:1002D000AB87BC8720E030E040E85FE36D817E8142
:1002E0008F8198850E94F80F88231CF481E08D8708
:1002F000B2C020E03FEF4FE757E469857A858B85F0
:100300009C850E941A1118160CF07BC020E030E08A
:100310004AE754E469817A818B819C810E94FD0FB8
:10032000DC01CB018E879F87A88BB98B20E030E062
:100330004AE755E46E857F85888999890E941F1157
:10034000DC01CB018A8B9B8BAC8BBD8B20E030E03A
:1003500040E85FE36A897B898C899D890E94F80F58
:1003600088232CF481E090E09F8B8E8B3FC020E0AF
:100370003FEF4FE757E46A897B898C899D890E940A
:100380001A1118164CF520E030E040E251E46E8579
:100390007F85888999890E941F11DC01CB01BC01EE
:1003A000CD010E947610DC01CB019F8B8E8B0FC09C
:1003B00080E991E0998F888F888D998D0197F1F769
:1003C000998F888F8E899F8901979F8B8E8B8E89BD
:1003D0009F89892B69F73FC06A897B898C899D89B0
:1003E0000E947610DC01CB019F8B8E8B8E899F89BA
:1003F0009B8F8A8F8A8D9B8D0197F1F79B8F8A8FB8
:100400002AC020E030E04FE753E46D817E818F8188
:1004100098850E941A111816ACF469857A858B8527
:100420009C850E947610DC01CB019D8F8C8F8C8D7A
:100430009D8D9F8F8E8F8E8D9F8D0197F1F79F8F52
:100440008E8F0FC06D817E818F8198850E9476107E
:10045000DC01CB018D878D8588A388A18A95F1F772
:1004600088A38BE290E02BE230E0F90120812D7F20
:10047000FC0120830000A0960FB6F894DEBF0FBEEB
:10048000CDBFDF91CF910895CF93DF931F92CDB76A
:10049000DEB789838BE290E02BE230E0F901208126
:1004A000237CFC0120838981882F90E0807199272B
:1004B000892B49F08BE290E02BE230E0F9012081BA
:1004C0002460FC0120838981882F90E08072992725
:1004D000892B49F08BE290E02BE230E0F90120819A
:1004E0002860FC0120838981882F90E080749927FF
:1004F000892B49F08BE290E02BE230E0F90120817A
:100500002061FC012083898188234CF48BE290E0F8
:100510002BE230E0F90120812062FC0120830E945F
:100520002F0100000F90DF91CF910895CF93DF93BB
:100530001F92CDB7DEB7898389810E9444028981E9
:100540008295807F0E9444028BE290E02BE230E0B3
:10055000F90120812F7DFC01208300000F90DF91A5
:10056000CF910895CF93DF931F92CDB7DEB78983E4
:100570008BE290E02BE230E0F90120812E7FFC013C
:10058000208389810E94960200000F90DF91CF9115
:100590000895CF93DF931F92CDB7DEB789838BE2A7
:1005A00090E02BE230E0F90120812160FC01208302
:1005B00089810E94960200000F90DF91CF910895EB
:1005C000CF93DF93CDB7DEB783E30E94B20282E31D
:1005D0000E94B20288E20E94B2028CE00E94B20243
:1005E00086E00E94B20281E00E94B20283E090E0C5
:1005F0000E9475000000DF91CF910895CF93DF93A3
:10060000CDB7DEB781E00E94B20283E090E00E94A5
:1006100075000000DF91CF910895CF93DF93CDB7A0
:10062000DEB780E80E94B2020000DF91CF9108950A
:10063000CF93DF9300D01F92CDB7DEB78A836B8351
:1006400019828B81882F90E08230910541F08330B0
:10065000910541F0019749F480E4898306C084E163
:10066000898303C084E58983000099818A81890F89
:1006700080580E94B20200000F900F900F90DF91FF
:10068000CF910895CF93DF931F92CDB7DEB78983C3
:10069000698180E00E94180300000F90DF91CF91E4
:1006A0000895CF93DF9300D0CDB7DEB79A838983C7
:1006B0000BC089819A819C012F5F3F4F3A83298328
:1006C000FC0180810E94C90289819A81FC0180819C
:1006D000882379F700000F900F90DF91CF91089554
:1006E000CF93DF93CDB7DEB72A970FB6F894DEBF6E
:1006F0000FBECDBF9A8789871A82198226E0CE0164
:100700000396FC01322F11923A95E9F789859A8573
:1007100040E150E09E012F5F3F4FB9010E948C11D4
:10072000CE0101960E94510300002A960FB6F8945C
:10073000DEBF0FBECDBFDF91CF910895CF93DF9382
:10074000CDB7DEB72A970FB6F894DEBF0FBECDBF88
:100750009A8789871A82198226E0CE010396FC01C6
:10076000322F11923A95E9F789859A854AE050E04F
:100770009E012F5F3F4FB9010E948C11CE0101965F
:100780000E94510300002A960FB6F894DEBF0FBEF8
:10079000CDBFDF91CF910895CF93DF931F92CDB757
:1007A000DEB789838981882F90E08031910581F0BF
:1007B000813191051CF4892B39F016C080329105E6
:1007C00059F0C09769F010C080E00E9442030CC04D
:1007D00081E00E94420308C082E00E94420304C0FC
:1007E00083E00E944203000000000F90DF91CF9150
:1007F0000895CF93DF931F92CDB7DEB789838981A8
:10080000803214F480E209C089818F3711F480EAC4
:1008100004C089818F5F898389810F90DF91CF9197
:100820000895CF93DF9300D01F92CDB7DEB781E458
:1008300089830E94FE0281E08A8322C060E082E117
:100840000E9418038A81882F90E00E949E031B82D9
:1008500011C08B810E94CC0389810E94C9028981C9
:100860000E94F903898382E390E00E9475008B81E6
:100870008F5F8B838B81803460F38A818F5F8A8363
:100880008A818436D8F200000F900F900F90DF918C
:10089000CF910895CF93DF9300D01F92CDB7DEB7ED
:1008A00089837B836A8389818A3031F48A819B8141
:1008B000BC018DE00E944A0480EC90E0FC01808144
:1008C000882F90E080729927892BB1F386EC90E015
:1008D0002981FC01208380E090E00F900F900F9021
:1008E000DF91CF910895CF93DF9300D000D0CDB7A3
:1008F000DEB769837A838B839C8389819A81AB81FC
:10090000BC8180930E0190930F01A0931001B093CE
:10091000110180910E0190910F01A0911001B091F1
:1009200011018093630190936401A0936501B093DA
:10093000660100000F900F900F900F90DF91CF9104
:100940000895CF93DF93CDB7DEB781E890E02BE039
:10095000FC01208388E890E02DE730E0FC01318342
:1009600020838FE690E022E0FC01208384E890E081
:10097000FC011182108280910E0190910F01A091D3
:100980001001B09111018093630190936401A093D1
:100990006501B09366018FE590E02FE530E0F90145
:1009A00020812068FC0120830000DF91CF91089511
:1009B000CF93DF93CDB7DEB781E890E0FC011082E2
:1009C0000000DF91CF910895CF93DF93CDB7DEB7CD
:1009D00081E0809362010000DF91CF9108951F9222
:1009E0000F9200905F000F92112400905B000F9215
:1009F0002F933F934F935F936F937F938F939F9327
:100A0000AF93BF93EF93FF93CF93DF93CDB7DEB751
:100A10008091630190916401A0916501B09166019C
:100A20000197A109B1098093630190936401A09398
:100A30006501B09366018091630190916401A0917A
:100A40006501B0916601892B8A2B8B2B91F40E9452
:100A5000E40480910E0190910F01A0911001B091DA
:100A600011018093630190936401A0936501B09399
:100A700066010000DF91CF91FF91EF91BF91AF919F
:100A80009F918F917F916F915F914F913F912F91A6
:100A90000F9000925B000F9000925F000F901F90EC
:100AA00018950F931F93CF93DF9300D000D0CDB74D
:100AB000DEB769837A838B839C8380917F019091D9
:100AC0008001A0918101B09182019C01AD016981F9
:100AD0007A818B819C810E94F80F882309F477C06A
:100AE00020E030E0A90169817A818B819C810E949C
:100AF000F80F882351F481E990E021E930E0F90111
:100B000020812870FC01208309C081E990E021E95F
:100B100030E0F90120812360FC01208328E539E3DE
:100B200044E75FE369817A818B819C810E94F80FA1
:100B3000882344F488E990E02FEF3FEFFC013183F4
:100B4000208334C020E034E244EF56E469817A81A6
:100B50008B819C810E941A11181634F488E990E068
:100B6000FC011182108222C008E910E020E030E090
:100B700040E053E469817A818B819C810E941F113E
:100B8000DC01CB019C01AD0160E074E284EF9AE4EA
:100B90000E94FD0FDC01CB01BC01CD010E946F1052
:100BA000DC01CB010197F8019183808384E990E017
:100BB000FC011182108289819A81AB81BC81809372
:100BC0007F0190938001A0938101B0938201000086
:100BD0000F900F900F900F90DF91CF911F910F9179
:100BE0000895CF93DF93CDB7DEB780E990E020E49E
:100BF000FC01208381E990E02BE0FC01208360E090
:100C000070E0CB010E9451050000DF91CF91089563
:100C1000CF93DF93CDB7DEB780E990E0FC0110827F
:100C200081E990E0FC0110820000DF91CF910895EE
:100C3000CF93DF9300D0CDB7DEB79A8389838981C4
:100C40009A818130910561F08230910509F45CC090
:100C5000892B09F06EC081E090E09A8389836CC093
:100C600086E290E0FC018081882F90E081709927D6
:100C7000892B59F481E090E090936C0180936B0193
:100C800081E090E09A83898357C086E290E0FC017E
:100C90008081882F90E082709927892B59F481E018
:100CA00090E090936E0180936D0181E090E09A83D3
:100CB000898342C086E290E0FC018081882F90E029
:100CC00084709927892B59F481E090E0909370010A
:100CD00080936F0181E090E09A8389832DC086E242
:100CE00090E0FC018081882F90E080959095992775
:100CF000892B29F482E090E09A8389831DC081E0EA
:100D000090E09A83898318C086E290E0FC0180819C
:100D1000882F90E0809590959927892B29F082E083
:100D200090E09A83898308C081E090E09A83898368
:100D300003C01A821982000089819A81813091054D
:100D400041F08230910509F454C0892B09F453C055
:100D500055C086E290E0FC018081882F90E0817090
:100D60009927892B31F4809169018F5F8093690104
:100D700044C086E290E0FC018081882F90E0827080
:100D80009927892B31F4809169018F5F80936901E4
:100D900034C086E290E0FC018081882F90E084706E
:100DA0009927892B31F4809169018F5F80936901C4
:100DB00024C086E290E0FC018081882F90E088705A
:100DC0009927892B31F4809169018F5F80936901A4
:100DD00014C086E290E0FC018081882F90E0807151
:100DE0009927892B51F4809169018F5F8093690164
:100DF00004C0000003C0000001C0000089819A8186
:100E00000F900F90DF91CF910895CF93DF9300D093
:100E1000CDB7DEB79A83898389819A81009721F0C3
:100E2000019709F478C08AC080E290E0FC018081DB
:100E3000882F90E081709927892B29F481E090E038
:100E40009A8389837EC080E290E0FC018081882FB4
:100E500090E082709927892B29F481E090E09A83B1
:100E600089836FC080E290E0FC018081882F90E050
:100E700084709927892B29F481E090E09A838983F3
:100E800060C080E290E0FC018081882F90E0887053
:100E90009927892B29F481E090E09A83898351C0B6
:100EA00080E290E0FC018081882F90E0807199279A
:100EB000892B29F481E090E09A83898342C080E203
:100EC00090E0FC018081882F90E080729927892B27
:100ED00029F481E090E09A83898333C080E290E036
:100EE000FC018081882F90E080749927892B29F458
:100EF00081E090E09A83898324C080E290E0FC0145
:100F0000808188232CF081E090E09A83898319C046
:100F10001A82198216C080E290E0FC018081882F3D
:100F200090E0809590959927892B19F41A8219825F
:100F300008C081E090E09A83898303C01A821982F5
:100F4000000089819A81009719F00197E1F0A6C00D
:100F500080916B0190916C01892B09F09EC080916A
:100F60006D0190916E01892B09F097C080916F01FE
:100F700090917001892B09F090C060E070E0CB0186
:100F80000E9451058AC080E290E0FC018081882F98
:100F900090E081709927892B39F460E070ED82E050
:100FA00094E40E9451057AC080E290E0FC018081C7
:100FB000882F90E082709927892B39F464EA70EFCA
:100FC00086EF93E40E94510569C080E290E0FC0145
:100FD0008081882F90E084709927892B39F460E014
:100FE00070E08CED93E40E94510558C080E290E0DF
:100FF000FC018081882F90E088709927892B39F433
:1010000060E070E084EC93E40E94510547C080E208
:1010100090E0FC018081882F90E080719927892BD6
:1010200039F461E77DE98EEA93E40E94510536C008
:1010300080E290E0FC018081882F90E08072992707
:10104000892B39F464EA70ED84EA93E40E94510537
:1010500025C080E290E0FC018081882F90E08074C0
:101060009927892B39F46BE774ED82E993E40E94A8
:10107000510514C080E290E0FC01808188233CF09F
:1010800064EA70ED82E893E40E94510507C060E0D5
:1010900070E0CB010E94510501C0000089819A8156
:1010A0000F900F90DF91CF910895CF93DF9300D0F1
:1010B000CDB7DEB79A83898380916B0190916C01E3
:1010C000019729F485E290E021E0FC0120838981E9
:1010D0009A818130910561F18230910509F463C0F4
:1010E000892B09F080C08091710190917201892B48
:1010F000E1F080E290E0FC018081882F90E0809513
:1011000090959C01332780917701909178018E5EB4
:101110009E4FFC018081882F90E02817390729F421
:1011200081E090E09A83898361C01A8219825EC04F
:101130008091770190917801069781F41092720165
:1011400010927101109278011092770180916901DB
:101150008F5F809369011A82198248C080E290E013
:10116000FC018081882F90E0809590959C01332729
:1011700080917701909178018E5E9E4FFC01808175
:10118000882F90E02817390759F4809177019091C2
:101190007801069728F482E090E09A83898326C03C
:1011A0001A82198223C080E290E0FC018081882F9E
:1011B00090E0809590959C013327809177019091E4
:1011C00078018E5E9E4FFC018081882F90E0281769
:1011D000390729F482E090E09A83898304C081E092
:1011E00090E09A8389831A821982000089819A810A
:1011F00081309105B9F082309105F1F0892B09F029
:101200001CC010927401109273011092760110921A
:10121000750110927A011092790110927C0110925E
:101220007B010BC08091770190917801019690939A
:1012300078018093770101C0000089819A810F9025
:101240000F90DF91CF910895CF93DF9300D0CDB76A
:10125000DEB79A83898380916D0190916E01019729
:1012600029F485E290E022E0FC01208389819A81C3
:101270008130910561F18230910509F463C0892BB9
:1012800009F080C08091730190917401892BE1F085
:1012900080E290E0FC018081882F90E0809590951D
:1012A0009C0133278091790190917A01885E9E4F4D
:1012B000FC018081882F90E02817390729F481E00C
:1012C00090E09A83898361C01A8219825EC08091FE
:1012D000790190917A01089781F41092740110922B
:1012E000730110927A0110927901809169018F5FE8
:1012F000809369011A82198248C080E290E0FC0163
:101300008081882F90E0809590959C013327809173
:10131000790190917A01885E9E4FFC018081882F2F
:1013200090E02817390759F48091790190917A015A
:10133000089728F482E090E09A83898326C01A8275
:10134000198223C080E290E0FC018081882F90E028
:10135000809590959C0133278091790190917A0135
:10136000885E9E4FFC018081882F90E02817390706
:1013700029F482E090E09A83898304C081E090E0C0
:101380009A8389831A821982000089819A81813027
:101390009105B9F082309105F1F0892B09F01CC05C
:1013A00010927201109271011092760110927501E3
:1013B000109278011092770110927C0110927B01BB
:1013C0000BC08091790190917A01019690937A01F6
:1013D0008093790101C0000089819A810F900F905C
:1013E000DF91CF910895CF93DF9300D0CDB7DEB7D3
:1013F0009A83898380916F0190917001019729F4FC
:1014000085E290E024E0FC01208389819A8181308B
:10141000910561F18230910509F463C0892B09F0CF
:1014200080C08091750190917601892BE1F080E276
:1014300090E0FC018081882F90E0809590959C0140
:10144000332780917B0190917C01805E9E4FFC014F
:101450008081882F90E02817390729F481E090E0F7
:101460009A83898361C01A8219825EC080917B0150
:1014700090917C010A9781F4109276011092750187
:1014800010927C0110927B01809169018F5F8093A3
:1014900069011A82198248C080E290E0FC018081D3
:1014A000882F90E0809590959C01332780917B0157
:1014B00090917C01805E9E4FFC018081882F90E09E
:1014C0002817390759F480917B0190917C01069788
:1014D00028F482E090E09A83898326C01A821982D8
:1014E00023C080E290E0FC018081882F90E080950D
:1014F00090959C01332780917B0190917C01805EC7
:101500009E4FFC018081882F90E02817390729F42D
:1015100082E090E09A83898304C081E090E09A831E
:1015200089831A821982000089819A81813091050C
:10153000B9F082309105F1F0892B09F01CC01092AE
:101540007201109271011092740110927301109245
:1015500078011092770110927A01109279010BC0F4
:1015600080917B0190917C01019690937C01809306
:101570007B0101C0000089819A810F900F90DF915B
:10158000CF910895CF93DF9300D0CDB7DEB79A8384
:10159000898389819A81092E000CAA0BBB0B40E03C
:1015A00050E026E030E0841B950B2817390708F43B
:1015B00001C18A5B9F4FFC010C94EF0F0E94F10563
:1015C00081E090E09A838983F8C080916B019091CB
:1015D0006C01019761F080916D0190916E0101970E
:1015E00031F080916F0190917001019729F482E0B0
:1015F00090E09A838983E1C081E090E09A838983B7
:10160000DCC080916B0190916C01019759F481E0ED
:1016100090E0909372018093710183E090E09A834F
:101620008983CBC080916D0190916E01019759F42F
:1016300081E090E0909374018093730184E090E0E6
:101640009A838983BAC080916F019091700101974C
:1016500059F481E090E0909376018093750185E0E4
:1016600090E09A838983A9C082E090E09A8389837D
:10167000A4C080917D0190917E010B97A0F086E23D
:1016800090E0FC018081882F90E081709927892B60
:1016900051F486E090E09A83898360E070E0CB01AA
:1016A0000E9451058AC080917D0190917E010B9727
:1016B00050F081E090E09A83898360E070E0CB0194
:1016C0000E9451057AC083E090E09A83898375C0B7
:1016D00080917D0190917E010897A0F086E290E0D4
:1016E000FC018081882F90E082709927892B51F42A
:1016F00086E090E09A83898360E070E0CB010E94ED
:1017000051055BC080917D0190917E01089750F05A
:1017100081E090E09A83898360E070E0CB010E94D1
:1017200051054BC084E090E09A83898346C0809144
:101730007D0190917E010B97A0F086E290E0FC0184
:101740008081882F90E082709927892B51F486E060
:1017500090E09A83898360E070E0CB010E9451059C
:101760002CC080917D0190917E010B9750F081E01B
:1017700090E09A83898360E070E0CB010E9451057C
:101780001CC085E090E09A83898317C00E940806F8
:1017900086E290E0FC018081882F90E0817099279B
:1017A000892B19F01A82198208C086E090E09A838A
:1017B000898303C01A821982000089819A81092EC7
:1017C000000CAA0BBB0B40E050E026E030E0841B8D
:1017D000950B2817390708F4BCC1835B9F4FFC01A8
:1017E0000C94EF0F10926C0110926B0110926E012D
:1017F00010926D011092700110926F01ADC11092A4
:101800007E0110927D01A8C180917D0190917E01A1
:10181000892B39F461E77DE98EEA93E40E94510552
:101820007CC080917D0190917E01029730F460E050
:1018300070E0CB010E94510570C080917D019091B4
:101840007E01039738F461E77DE98EEA93E40E9414
:10185000510563C080917D0190917E01049730F421
:1018600060E070E0CB010E94510557C080917D017E
:1018700090917E01059738F461E77DE98EEA93E463
:101880000E9451054AC080917D0190917E0106978A
:1018900030F460E070E0CB010E9451053EC08091C1
:1018A0007D0190917E01079738F461E77DE98EEA2A
:1018B00093E40E94510531C080917D0190917E0199
:1018C000089730F460E070E0CB010E94510525C01C
:1018D00080917D0190917E01099738F461E77DE95F
:1018E0008EEA93E40E94510518C080917D01909189
:1018F0007E010A9730F460E070E0CB010E94510550
:101900000CC080917D0190917E010B9730F461E7CE
:101910007DE98EEA93E40E94510580917D019091CA
:101920007E01019690937E0180937D0115C1809187
:101930007D0190917E01892B39F464EA70ED84EA8F
:1019400093E40E9451055AC080917D0190917E01DF
:10195000029738F461E77DE98EEA93E40E9451052D
:101960004DC080917D0190917E01039738F460E035
:1019700070E084EC93E40E94510540C080917D01A9
:1019800090917E01049738F460E070E08CED93E470
:101990000E94510533C080917D0190917E01059791
:1019A00038F464EA70EF86EF93E40E94510526C094
:1019B00080917D0190917E01069738F460E070ED92
:1019C00082E094E40E94510519C080917D019091BC
:1019D0007E01079738F464EA70ED82E893E40E9490
:1019E00051050CC080917D0190917E01089730F4E3
:1019F0006BE774ED82E993E40E94510580917D01CB
:101A000090917E01019690937E0180937D01A4C008
:101A100080917D0190917E01892B39F464EA70ED0B
:101A200082E893E40E94510574C080917D019091F9
:101A30007E01029738F46BE774ED82E993E40E942B
:101A4000510567C080917D0190917E01039738F424
:101A500064EA70ED82E893E40E9451055AC08091D7
:101A60007D0190917E01049738F461E77DE98EEA6B
:101A700093E40E9451054DC080917D0190917E01BB
:101A8000069738F464EA70ED84EA93E40E94510505
:101A900040C080917D0190917E01079738F464EAFF
:101AA00070ED82E893E40E94510533C080917D017E
:101AB00090917E01089738F46BE774ED82E993E426
:101AC0000E94510526C080917D0190917E01099769
:101AD00038F464EA70ED82E893E40E94510519C07D
:101AE00080917D0190917E010A9738F460E070E06A
:101AF00084EC93E40E9451050CC080917D0190918B
:101B00007E010B9730F461E77DE98EEA93E40E9451
:101B1000510580917D0190917E01019690937E0107
:101B200080937D0119C085E290E024E0FC012083D0
:101B300010927E0110927D0110926C0110926B0147
:101B400010926E0110926D011092700110926F014F
:101B500003C0000001C0000089819A810F900F909E
:101B6000DF91CF910895CF93DF9300D0CDB7DEB74B
:101B70009A83898389819A81892B19F41A8219821F
:101B800003C01A821982000089819A81892B09F089
:101B90001BC00E94FE028AE291E00E9451038FE383
:101BA00091E00E94510380916901882F90E00E948A
:101BB0009E0387E491E00E94510380917701909108
:101BC00078010E949E03000089819A810F900F90F6
:101BD000DF91CF9108950F931F93CF93DF93CDB7EC
:101BE000DEB763970FB6F894DEBF0FBECDBF8AE2B3
:101BF00090E02FE3FC01208387E290E0FC0110825B
:101C000088E290E02FEFFC01208384E290E02FEF48
:101C1000FC01208381E290E0FC01808182E290E07F
:101C20002FEFFC0120838EE0E3E5F1E0DE01169664
:101C300001900D928A95E1F787E090E09C838B8379
:101C40008FEF8D838D81809383018AE090E0A0E007
:101C5000B0E08093840190938501A0938601B093B6
:101C600087018091840190918501A0918601B091B6
:101C700087018093880190938901A0938A01B09392
:101C80008B0188E196E090938D0180938C018D818A
:101C900080938E018AE090E0A0E0B0E080938F0115
:101CA00090939001A0939101B093920180918F0144
:101CB00090919001A0919101B09192018093930134
:101CC00090939401A0939501B093960183EB9DE0CE
:101CD00090939801809397018D81809399018AE078
:101CE00090E0A0E0B0E080939A0190939B01A093D4
:101CF0009C01B0939D0180919A0190919B01A091CC
:101D00009C01B0919D0180939E0190939F01A093AF
:101D1000A001B093A10182EC9AE09093A30180937B
:101D2000A2018D818093A4018AE090E0A0E0B0E060
:101D30008093A5019093A601A093A701B093A80159
:101D40008091A5019091A601A091A701B091A80151
:101D50008093A9019093AA01A093AB01B093AC0129
:101D600085E097E09093AE018093AD018D818093E3
:101D7000AF018AE090E0A0E0B0E08093B0019093E2
:101D8000B101A093B201B093B3018091B0019091E1
:101D9000B101A091B201B091B3018093B4019093CD
:101DA000B501A093B601B093B70185E598E0909393
:101DB000B9018093B8018D818093BA018AE090E0E7
:101DC000A0E0B0E08093BB019093BC01A093BD0163
:101DD000B093BE018091BB019091BC01A091BD0167
:101DE000B091BE018093BF019093C001A093C10147
:101DF000B093C20184E299E09093C4018093C3013F
:101E00008D818093C5018AE090E0A0E0B0E08093EE
:101E1000C6019093C701A093C801B093C9018091F6
:101E2000C6019091C701A091C801B091C9018093EA
:101E3000CA019093CB01A093CC01B093CD0183EF65
:101E400099E09093CF018093CE010E94E00264EF6D
:101E500071E080E090E00E9473040E94A1041A8265
:101E60001982ADC089819A81880F991F9E012F5FC9
:101E70003F4F820F931F0596FC0180819181FC01E9
:101E8000258136814781508589819A81880F991FE4
:101E9000BE016F5F7F4F860F971F0596FC01808103
:101EA0009181FC0181819281A381B4812817390736
:101EB0004A075B0709F045C089819A81880F991FFD
:101EC0009E012F5F3F4F820F931F0596FC010081FB
:101ED000118189819A81880F991F9E012F5F3F4F41
:101EE000820F931F0596FC0180819181FC01218561
:101EF000328589819A81880F991FAE014F5F5F4FAC
:101F0000840F951F0596FC0180819181FC018081E1
:101F1000082E000C990BF9010995F801808389813D
:101F20009A81880F991F9E012F5F3F4F820F931F49
:101F30000596FC0180819181FC0115821682178231
:101F4000108689819A81880F991F9E012F5F3F4FCC
:101F5000820F931F0596FC016081718189819A81AE
:101F6000880F991F9E012F5F3F4F820F931F059689
:101F7000FC0180819181FC0125813681478150855A
:101F800089819A81880F991FFE0131968E0F9F1FBC
:101F90000596FC0180819181FC0181819281A38160
:101FA000B481820F931FA41FB51FFB018583968305
:101FB000A783B08789819A8101969A838983298131
:101FC0003A818B819C812817390708F44BCF000098
:101FD000809162018823E1F31092620140CFEE0FFD
:101FE000FF1F0024001C0BBE0790F691E02D099402
:101FF0000E94A51008F481E008950E9411100C942D
:10200000E0100E94D91058F00E94D21040F029F43C
:102010005F3F29F00C94C91051110C9414110C94C9
:10202000CF100E94F11068F39923B1F3552391F377
:10203000951B550BBB27AA2762177307840738F037
:102040009F5F5F4F220F331F441FAA1FA9F335D094
:102050000E2E3AF0E0E832D091505040E695001C48
:10206000CAF72BD0FE2F29D0660F771F881FBB1F02
:10207000261737074807AB07B0E809F0BB0B802DE0
:10208000BF01FF2793585F4F3AF09E3F510578F00C
:102090000C94C9100C9414115F3FE4F3983ED4F3F0
:1020A000869577956795B795F7959F5FC9F7880FE0
:1020B000911D9695879597F90895E1E0660F771F32
:1020C000881FBB1F621773078407BA0720F0621BC3
:1020D000730B840BBA0BEE1F88F7E09508950E94EE
:1020E00076106894B1110C94141108950E94F9109F
:1020F00088F09F5798F0B92F9927B751B0F0E1F0C9
:10210000660F771F881F991F1AF0BA95C9F714C078
:10211000B13091F00E941311B1E008950C941311A5
:10212000672F782F8827B85F39F0B93FCCF38695B1
:1021300077956795B395D9F73EF49095809570950E
:1021400061957F4F8F4F9F4F0895990F0008550F4E
:10215000AA0BE0E8FEEF16161706E807F907C0F02D
:1021600012161306E407F50798F0621B730B840B35
:10217000950B39F40A2661F0232B242B252B21F40F
:1021800008950A2609F4A140A6958FEF811D811DAF
:10219000089597F99F6780E870E060E008959FEFE9
:1021A00080EC089500240A941616170618060906EE
:1021B000089500240A9412161306140605060895BD
:1021C000092E0394000C11F4882352F0BB0F40F445
:1021D000BF2B11F460FF04C06F5F7F4F8F4F9F4F85
:1021E000089557FD9058440F551F59F05F3F71F007
:1021F0004795880F97FB991F61F09F3F79F087956E
:102200000895121613061406551FF2CF4695F1DFF6
:1022100008C0161617061806991FF1CF8695710586
:10222000610508940895E894BB2766277727CB01BA
:1022300097F908950E94A51008F48FEF08950E9461
:1022400032110C94E0100E94D21038F00E94D91084
:1022500020F0952311F00C94C9100C94CF10112488
:102260000C9414110E94F11070F3959FC1F3950F17
:1022700050E0551F629FF001729FBB27F00DB11D0A
:10228000639FAA27F00DB11DAA1F649F6627B00D9A
:10229000A11D661F829F2227B00DA11D621F739F83
:1022A000B00DA11D621F839FA00D611D221F749F91
:1022B0003327A00D611D231F849F600D211D822FD8
:1022C000762F6A2F11249F5750409AF0F1F08823FF
:1022D0004AF0EE0FFF1FBB1F661F771F881F91502C
:1022E0005040A9F79E3F510580F00C94C9100C9402
:1022F00014115F3FE4F3983ED4F386957795679584
:10230000B795F795E7959F5FC1F7FE2B880F911D55
:102310009695879597F908954532510520F44230F6
:1023200010F00C949711FB011082CB010895BB278C
:102330004A3031F4992322F4BDE2909581959F4F64
:102340000C94A311BB27FB015527AA27880F991FBF
:10235000AA1FA41710F0A41B83955051B9F7A05DD4
:10236000AA3308F0A95DA193009779F7B111B19351
:102370001192CB010C94BC11DC01FC01672F71910F
:102380007723E1F7329704C07C916D93708362915B
:0C239000AE17BF07C8F30895F894FFCF04
:10239C0000000002000000004A04000000000100E0
:1023AC0000001010101010102010080402018040C2
:1023BC00804080102080408008104C65742773206A
:1023CC00706C6179205468652054756E65200053DB
:1023DC00636F72653A20004F6E655F436F756E7464
:1023EC003A200083018E019901A401AF01BA01C505
:0223FC000100DE
:00000001FF
