:100000000C9446000C9465000C9465000C946500FB
:100010000C9465000C9465000C9465000C946500CC
:100020000C9465000C9465000C9465000C946500BC
:100030000C9465000C94E1040C9465000C9465002C
:100040000C9465000C9465000C9465000C9465009C
:100050000C9465000C9465000C9465000C9465008C
:100060000C9465000C9465000C9465000C9465007C
:100070000C9465000C9465000C9465000C9465006C
:100080000C9465000C9465000C94650011241FBE4F
:10009000CFEFD0E4DEBFCDBF11E0A0E0B1E0EEE9EC
:1000A000F2E100E00BBF02C007900D92A033B10750
:1000B000D9F721E0A0E3B1E001C01D92A035B2075D
:1000C000E1F70E9449060C944D090C940000CF936F
:1000D000DF93CDB7DEB762970FB6F894DEBF0FBEE1
:1000E000CDBF9A8B898B1A82198277C080E090E00D
:1000F000A0E8BFE38B839C83AD83BE8320E030E028
:100100004AE755E46B817C818D819E810E94A00825
:10011000DC01CB018F839887A987BA8720E030E084
:1001200040E85FE36F81788589859A850E94800722
:1001300088232CF481E090E09C878B873FC020E0EF
:100140003FEF4FE757E46F81788589859A850E9454
:100150009B0818164CF520E030E040E251E46B813A
:100160007C818D819E810E94A008DC01CB01BC01B5
:10017000CD010E94F707DC01CB019C878B870FC064
:1001800080E991E09E878D878D859E850197F1F7A7
:100190009E878D878B859C8501979C878B878B8518
:1001A0009C85892B69F714C06F81788589859A852C
:1001B0000E94F707DC01CB019C878B878B859C8590
:1001C000988B8F878F8598890197F1F7988B8F8708
:1001D00089819A8101969A83898329813A818989C3
:1001E0009A89281739070CF481CF000062960FB660
:1001F000F894DEBF0FBECDBFDF91CF910895CF93AE
:10020000DF93CDB7DEB78BE290E02BE230E0F9016F
:1002100020812062FC0120838AEF90E00E94670029
:100220008BE290E02BE230E0F90120812F7DFC0190
:1002300020838AEF90E00E9467000000DF91CF9159
:100240000895CF93DF93CDB7DEB7A0970FB6F8949C
:10025000DEBF0FBECDBF8BE290E02BE230E0F901B4
:1002600020812260FC01208380E090E0A0E2B2E4E3
:1002700089839A83AB83BC832BEA3AEA4AEA50E447
:1002800069817A818B819C810E94A008DC01CB016D
:100290008D839E83AF83B88720E030E040E850E450
:1002A00069817A818B819C810E94A008DC01CB014D
:1002B00089879A87AB87BC8720E030E040E85FE31E
:1002C0006D817E818F8198850E94800788231CF430
:1002D00081E08D87B2C020E03FEF4FE757E46985AA
:1002E0007A858B859C850E949B0818160CF07BC034
:1002F00020E030E04AE754E469817A818B819C8177
:100300000E948507DC01CB018E879F87A88BB98B64
:1003100020E030E04AE755E46E857F858889998939
:100320000E94A008DC01CB018A8B9B8BAC8BBD8B20
:1003300020E030E040E85FE36A897B898C899D8911
:100340000E94800788232CF481E090E09F8B8E8BA5
:100350003FC020E03FEF4FE757E46A897B898C89F3
:100360009D890E949B0818164CF520E030E040E281
:1003700051E46E857F85888999890E94A008DC01F7
:10038000CB01BC01CD010E94F707DC01CB019F8BA3
:100390008E8B0FC080E991E0998F888F888D998D21
:1003A0000197F1F7998F888F8E899F8901979F8B8D
:1003B0008E8B8E899F89892B69F73FC06A897B89DB
:1003C0008C899D890E94F707DC01CB019F8B8E8B66
:1003D0008E899F899B8F8A8F8A8D9B8D0197F1F7DC
:1003E0009B8F8A8F2AC020E030E04FE753E46D8175
:1003F0007E818F8198850E949B081816ACF46985D0
:100400007A858B859C850E94F707DC01CB019D8F47
:100410008C8F8C8D9D8D9F8F8E8F8E8D9F8D019754
:10042000F1F79F8F8E8F0FC06D817E818F819885B0
:100430000E94F707DC01CB018D878D8588A388A1F9
:100440008A95F1F788A38BE290E02BE230E0F90186
:1004500020812D7FFC0120830000A0960FB6F89428
:10046000DEBF0FBECDBFDF91CF910895CF93DF9355
:100470001F92CDB7DEB789838BE290E02BE230E0AC
:10048000F9012081237CFC0120838981882F90E061
:1004900080719927892B49F08BE290E02BE230E0C4
:1004A000F90120812460FC0120838981882F90E05C
:1004B00080729927892B49F08BE290E02BE230E0A3
:1004C000F90120812860FC0120838981882F90E038
:1004D00080749927892B49F08BE290E02BE230E081
:1004E000F90120812061FC012083898188234CF45B
:1004F0008BE290E02BE230E0F90120812062FC01E8
:1005000020830E94210100000F90DF91CF91089578
:10051000CF93DF931F92CDB7DEB7898389810E9485
:10052000360289818295807F0E9436028BE290E0BC
:100530002BE230E0F90120812F7DFC0120830000B7
:100540000F90DF91CF910895CF93DF931F92CDB796
:10055000DEB789838BE290E02BE230E0F901208165
:100560002E7FFC01208389810E94880200000F9069
:10057000DF91CF910895CF93DF931F92CDB7DEB770
:1005800089838BE290E02BE230E0F9012081216049
:10059000FC01208389810E94880200000F90DF9176
:1005A000CF910895CF93DF93CDB7DEB783E30E9459
:1005B000A40282E30E94A40288E20E94A4028CE0CA
:1005C0000E94A40286E00E94A40281E00E94A4028C
:1005D00083E090E00E9467000000DF91CF910895D2
:1005E000CF93DF93CDB7DEB781E00E94A40283E012
:1005F00090E00E9467000000DF91CF910895CF93B3
:10060000DF93CDB7DEB780E80E94A4020000DF913F
:10061000CF910895CF93DF9300D01F92CDB7DEB76F
:100620008A836B8319828B81882F90E082309105B9
:1006300041F08330910541F0019749F480E48983CA
:1006400006C084E1898303C084E589830000998121
:100650008A81890F80580E94A40200000F900F9099
:100660000F90DF91CF910895CF93DF931F92CDB775
:10067000DEB78983698180E00E940A0300000F9041
:10068000DF91CF910895CF93DF9300D0CDB7DEB740
:100690009A8389830BC089819A819C012F5F3F4F88
:1006A0003A832983FC0180810E94BB0289819A815F
:1006B000FC018081882379F700000F900F90DF9173
:1006C000CF910895CF93DF93CDB7DEB72A970FB6BA
:1006D000F894DEBF0FBECDBF9A8789871A82198230
:1006E00026E0CE010396FC01322F11923A95E9F7EC
:1006F00089859A8540E150E09E012F5F3F4FB90107
:100700000E940D09CE0101960E94430300002A9623
:100710000FB6F894DEBF0FBECDBFDF91CF91089525
:10072000CF93DF93CDB7DEB72A970FB6F894DEBF2D
:100730000FBECDBF9A8789871A82198226E0CE0123
:100740000396FC01322F11923A95E9F789859A8533
:100750004AE050E09E012F5F3F4FB9010E940D0912
:10076000CE0101960E94430300002A960FB6F8942A
:10077000DEBF0FBECDBFDF91CF910895CF93DF9342
:100780001F92CDB7DEB789838981882F90E08031B1
:10079000910581F0813191051CF4892B39F016C047
:1007A0008032910559F0C09769F010C080E00E9436
:1007B00034030CC081E00E94340308C082E00E9430
:1007C000340304C083E00E943403000000000F9053
:1007D000DF91CF910895CF93DF931F92CDB7DEB70E
:1007E00089838981803214F480E209C089818F373E
:1007F00011F480EA04C089818F5F898389810F9019
:10080000DF91CF910895CF93DF9300D01F92CDB7A2
:10081000DEB781E489830E94F00281E08A8322C0EE
:1008200060E082E10E940A038A81882F90E00E94A2
:1008300090031B8211C08B810E94BE0389810E949C
:10084000BB0289810E94EB03898382E390E00E94CE
:1008500067008B818F5F8B838B81803460F38A810B
:100860008F5F8A838A818436D8F200000F900F90C0
:100870000F90DF91CF910895CF93DF9300D01F9217
:10088000CDB7DEB789837B836A8389818A3031F46F
:100890008A819B81BC018DE00E943C0480EC90E049
:1008A000FC018081882F90E080729927892BB1F319
:1008B00086EC90E02981FC01208380E090E00F909D
:1008C0000F900F90DF91CF910895CF93DF9300D0D9
:1008D00000D0CDB7DEB769837A838B839C8389810F
:1008E0009A81AB81BC8180930E0190930F01A093FC
:1008F0001001B093110180910E0190910F01A09110
:100900001001B09111018093310190933201A093B5
:100910003301B093340100000F900F900F900F90AF
:10092000DF91CF910895CF93DF93CDB7DEB781E804
:1009300090E02BE0FC01208388E890E02DE730E098
:10094000FC01318320838FE690E022E0FC012083CC
:1009500084E890E0FC011182108280910E01909158
:100960000F01A0911001B09111018093310190937A
:100970003201A0933301B09334018FE590E02FE56D
:1009800030E0F90120812068FC0120830000DF9124
:10099000CF910895CF93DF93CDB7DEB781E890E094
:1009A000FC0110820000DF91CF910895CF93DF9377
:1009B000CDB7DEB781E0809330010000DF91CF91A9
:1009C00008951F920F9200905F000F9211240090E3
:1009D0005B000F922F933F934F935F936F937F939F
:1009E0008F939F93AF93BF93EF93FF93CF93DF9337
:1009F000CDB7DEB78091310190913201A0913301E2
:100A0000B09134010197A109B1098093310190930C
:100A10003201A0933301B093340180913101909160
:100A20003201A0913301B0913401892B8A2B8B2B99
:100A300091F40E94D60480910E0190910F01A09133
:100A40001001B09111018093310190933201A09374
:100A50003301B09334010000DF91CF91FF91EF910A
:100A6000BF91AF919F918F917F916F915F914F91C6
:100A70003F912F910F9000925B000F9000925F00CA
:100A80000F901F901895CF93DF9300D0CDB7DEB7AE
:100A90009A83898389819A818130910551F08230CE
:100AA0009105E1F0892B79F581E090E09A838983C3
:100AB0002DC086E290E0FC018081882F90E0809537
:100AC00090959927892B29F482E090E09A83898375
:100AD0001DC081E090E09A83898318C086E290E08F
:100AE000FC018081882F90E0809590959927892B33
:100AF00029F082E090E09A83898308C081E090E049
:100B00009A83898303C01A821982000089819A819D
:100B10008130910569F08230910509F478C0892B04
:100B200009F07BC085E290E026E0FC0120837CC0D8
:100B300085E290E027E0FC01208386E290E0FC0162
:100B40008081882F90E0809590959927019759F49E
:100B500085E290E021E0FC012083809137018F5FE6
:100B60008093370160C086E290E0FC018081882F8D
:100B700090E082709927892B59F485E290E022E079
:100B8000FC012083809137018F5F809337014BC038
:100B900086E290E0FC018081882F90E084709927A4
:100BA000892B59F485E290E023E0FC0120838091B9
:100BB00037018F5F8093370136C086E290E0FC01F9
:100BC0008081882F90E088709927892B59F485E2DD
:100BD00090E024E0FC012083809137018F5F8093B7
:100BE000370121C086E290E0FC018081882F90E0EF
:100BF00080719927892BB9F485E290E025E0FC010A
:100C00002083809137018F5F809337010CC085E28C
:100C100090E020E1FC01208307C085E290E029E01C
:100C2000FC01208301C0000089819A810F900F9000
:100C3000DF91CF910895CF93DF9300D0CDB7DEB78A
:100C40009A83898389819A81892B19F41A8219825E
:100C500003C01A821982000089819A81892B09F0C8
:100C600011C00E94F00282E191E00E94430387E2FA
:100C700091E00E94430380913701882F90E00E9409
:100C80009003000089819A810F900F90DF91CF919E
:100C900008950F931F93CF93DF93CDB7DEB72997B6
:100CA0000FB6F894DEBF0FBECDBF8AE290E02FE30F
:100CB000FC01208387E290E0FC01108288E290E052
:100CC0002FEFFC01208384E290E02FEFFC012083D2
:100CD00089E391E09F838E8384E491E099878887FC
:100CE00082E090E09C838B838FEF8D838D81809356
:100CF000390182E390E0A0E0B0E080933A01909364
:100D00003B01A0933C01B0933D0180913A01909149
:100D10003B01A0913C01B0913D0180933E01909335
:100D20003F01A0934001B093410183E495E090938B
:100D30004301809342018D818093440182E390E0DE
:100D4000A0E0B0E08093450190934601A093470155
:100D5000B09348018091450190914601A0914701CF
:100D6000B09148018093490190934A01A0934B01AF
:100D7000B0934C018BE196E090934E0180934D012E
:100D80000E94D20264EF71E080E090E00E9465046E
:100D90000E9493041A8219829BC089819A81880FCC
:100DA000991F9E012F5F3F4F820F931F0596FC01F5
:100DB00080819181FC01258136814781508589811F
:100DC0009A81880F991FBE016F5F7F4F860F971F13
:100DD0000596FC0180819181FC0181819281A38132
:100DE000B481281739074A075B0709F045C0898194
:100DF0009A81880F991F9E012F5F3F4F820F931F8B
:100E00000596FC010081118189819A81880F991FC3
:100E10009E012F5F3F4F820F931F0596FC0180813B
:100E20009181FC012185328589819A81880F991FE2
:100E3000AE014F5F5F4F840F951F0596FC018081C7
:100E40009181FC018081082E000C990BF901099514
:100E5000F801808389819A81880F991F9E012F5FF5
:100E60003F4F820F931F0596FC0180819181FC0109
:100E7000158216821782108689819A81880F991FA0
:100E80009E012F5F3F4F820F931F0596FC0120812B
:100E9000318189819A81880F991FAE014F5F5F4F21
:100EA000840F951F0596FC0180819181FC0185814D
:100EB0009681A781B085C296A11DB11DF9018583D8
:100EC0009683A783B08789819A8101969A838983C3
:100ED00029813A818B819C812817390708F45DCFDD
:100EE0000000809130018823E1F31092300152CF4D
:100EF000CF93DF93CDB7DEB70000DF91CF91089598
:100F00000E94260808F481E008950E9499070C9435
:100F100061080E945A0858F00E94530840F029F4D2
:100F20005F3F29F00C944A0851110C9495080C94D9
:100F300050080E94720868F39923B1F3552391F386
:100F4000951B550BBB27AA2762177307840738F038
:100F50009F5F5F4F220F331F441FAA1FA9F335D095
:100F60000E2E3AF0E0E832D091505040E695001C49
:100F7000CAF72BD0FE2F29D0660F771F881FBB1F03
:100F8000261737074807AB07B0E809F0BB0B802DE1
:100F9000BF01FF2793585F4F3AF09E3F510578F00D
:100FA0000C944A080C9495085F3FE4F3983ED4F300
:100FB000869577956795B795F7959F5FC9F7880FE1
:100FC000911D9695879597F90895E1E0660F771F33
:100FD000881FBB1F621773078407BA0720F0621BC4
:100FE000730B840BBA0BEE1F88F7E09508950E94EF
:100FF0007A0888F09F5798F0B92F9927B751B0F029
:10100000E1F0660F771F881F991F1AF0BA95C9F78C
:1010100014C0B13091F00E949408B1E008950C948E
:101020009408672F782F8827B85F39F0B93FCCF341
:10103000869577956795B395D9F73EF49095809509
:10104000709561957F4F8F4F9F4F0895990F0008BE
:10105000550FAA0BE0E8FEEF16161706E807F9078A
:10106000C0F012161306E407F50798F0621B730B25
:10107000840B950B39F40A2661F0232B242B252BA6
:1010800021F408950A2609F4A140A6958FEF811D49
:10109000811D089597F99F6780E870E060E00895EA
:1010A0009FEF80EC089500240A9416161706180680
:1010B0000906089500240A9412161306140605065C
:1010C0000895092E0394000C11F4882352F0BB0FED
:1010D00040F4BF2B11F460FF04C06F5F7F4F8F4F50
:1010E0009F4F089557FD9058440F551F59F05F3F8B
:1010F00071F04795880F97FB991F61F09F3F79F03A
:1011000087950895121613061406551FF2CF4695BB
:10111000F1DF08C0161617061806991FF1CF86953D
:101120007105610508940895E894BB276627772721
:10113000CB0197F908950E94260808F48FEF0895CF
:101140000E94B3080C9461080E94530838F00E9472
:101150005A0820F0952311F00C944A080C9450087A
:1011600011240C9495080E94720870F3959FC1F3A6
:10117000950F50E0551F629FF001729FBB27F00D45
:10118000B11D639FAA27F00DB11DAA1F649F66279A
:10119000B00DA11D661F829F2227B00DA11D621FE9
:1011A000739FB00DA11D621F839FA00D611D221FA3
:1011B000749F3327A00D611D231F849F600D211D87
:1011C000822F762F6A2F11249F5750409AF0F1F00A
:1011D00088234AF0EE0FFF1FBB1F661F771F881F73
:1011E00091505040A9F79E3F510580F00C944A0859
:1011F0000C9495085F3FE4F3983ED4F38695779579
:101200006795B795F795E7959F5FC1F7FE2B880F18
:10121000911D9695879597F908954532510520F4CB
:10122000423010F00C941809FB011082CB01089594
:10123000BB274A3031F4992322F4BDE29095819581
:101240009F4F0C942409BB27FB015527AA27880F21
:10125000991FAA1FA41710F0A41B83955051B9F72A
:10126000A05DAA3308F0A95DA193009779F7B111A9
:10127000B1931192CB010C943D09DC01FC01672F65
:1012800071917723E1F7329704C07C916D9370835D
:0E1290006291AE17BF07C8F30895F894FFCF20
:10129E0000000002000000003C04000000000100FD
:1012AE0000004C6574277320706C6179205468655A
:1012BE002054756E65200053636F72653A200000EE
:00000001FF
