:100000000C9446000C945D000C945D000C945D0013
:100010000C945D000C945D000C945D000C945D00EC
:100020000C945D000C945D000C945D000C945D00DC
:100030000C945D000C945D000C945D000C945D00CC
:100040000C945D000C945D000C945D000C945D00BC
:100050000C945D000C945D000C945D000C945D00AC
:100060000C945D000C945D000C945D000C945D009C
:100070000C945D000C945D000C945D000C945D008C
:100080000C945D000C945D000C945D0011241FBE67
:10009000CFEFD0E4DEBFCDBF11E0A0E0B1E0E4E9F6
:1000A000FCE000E00BBF02C007900D92AC31B1073D
:1000B000D9F70E9459040C9448060C940000CF9381
:1000C000DF93CDB7DEB762970FB6F894DEBF0FBEF1
:1000D000CDBF9A8B898B1A82198277C080E090E01D
:1000E000A0E8BFE38B839C83AD83BE8320E030E038
:1000F0004AE753E46B817C818D819E810E949B0540
:10010000DC01CB018F839887A987BA8720E030E094
:1001100040E85FE36F81788589859A850E947B043A
:1001200088232CF481E090E09C878B873FC020E0FF
:100130003FEF4FE757E46F81788589859A850E9464
:10014000960518164CF520E030E040E251E46B8152
:100150007C818D819E810E949B05DC01CB01BC01CD
:10016000CD010E94F204DC01CB019C878B870FC07C
:1001700089E190E09E878D878D859E850197F1F7B7
:100180009E878D878B859C8501979C878B878B8528
:100190009C85892B69F714C06F81788589859A853C
:1001A0000E94F204DC01CB019C878B878B859C85A8
:1001B000988B8F878F8598890197F1F7988B8F8718
:1001C00089819A8101969A83898329813A818989D3
:1001D0009A89281739070CF481CF000062960FB670
:1001E000F894DEBF0FBECDBFDF91CF910895CF93BE
:1001F000DF93CDB7DEB78BE290E02BE230E0F90180
:1002000020812062FC0120838AEF90E00E945F0041
:100210008BE290E02BE230E0F90120812F7DFC01A0
:1002200020838AEF90E00E945F000000DF91CF9171
:100230000895CF93DF93CDB7DEB7A0970FB6F894AC
:10024000DEBF0FBECDBF8BE290E02BE230E0F901C4
:1002500020812260FC01208380E090E0A0E2B2E4F3
:1002600089839A83AB83BC832BEA3AEA4AEA5EE34A
:1002700069817A818B819C810E949B05DC01CB0185
:100280008D839E83AF83B88720E030E040E85EE353
:1002900069817A818B819C810E949B05DC01CB0165
:1002A00089879A87AB87BC8720E030E040E85FE32E
:1002B0006D817E818F8198850E947B0488231CF448
:1002C00081E08D87B2C020E03FEF4FE757E46985BA
:1002D0007A858B859C850E94960518160CF07BC04C
:1002E00020E030E04AE754E469817A818B819C8187
:1002F0000E948004DC01CB018E879F87A88BB98B7D
:1003000020E030E04AE753E46E857F85888999894B
:100310000E949B05DC01CB018A8B9B8BAC8BBD8B38
:1003200020E030E040E85FE36A897B898C899D8921
:100330000E947B0488232CF481E090E09F8B8E8BBD
:100340003FC020E03FEF4FE757E46A897B898C8903
:100350009D890E94960518164CF520E030E040E299
:1003600051E46E857F85888999890E949B05DC010F
:10037000CB01BC01CD010E94F204DC01CB019F8BBB
:100380008E8B0FC089E190E0998F888F888D998D31
:100390000197F1F7998F888F8E899F8901979F8B9D
:1003A0008E8B8E899F89892B69F73FC06A897B89EB
:1003B0008C899D890E94F204DC01CB019F8B8E8B7E
:1003C0008E899F899B8F8A8F8A8D9B8D0197F1F7EC
:1003D0009B8F8A8F2AC020E030E04FE753E46D8185
:1003E0007E818F8198850E9496051816ACF46985E8
:1003F0007A858B859C850E94F204DC01CB019D8F60
:100400008C8F8C8D9D8D9F8F8E8F8E8D9F8D019764
:10041000F1F79F8F8E8F0FC06D817E818F819885C0
:100420000E94F204DC01CB018D878D8588A388A111
:100430008A95F1F788A38BE290E02BE230E0F90196
:1004400020812D7FFC0120830000A0960FB6F89438
:10045000DEBF0FBECDBFDF91CF910895CF93DF9365
:100460001F92CDB7DEB789838BE290E02BE230E0BC
:10047000F9012081237CFC0120838981882F90E071
:1004800080719927892B49F08BE290E02BE230E0D4
:10049000F90120812460FC0120838981882F90E06C
:1004A00080729927892B49F08BE290E02BE230E0B3
:1004B000F90120812860FC0120838981882F90E048
:1004C00080749927892B49F08BE290E02BE230E091
:1004D000F90120812061FC012083898188234CF46B
:1004E0008BE290E02BE230E0F90120812062FC01F8
:1004F00020830E94190100000F90DF91CF91089591
:10050000CF93DF931F92CDB7DEB7898389810E9495
:100510002E0289818295807F0E942E028BE290E0DC
:100520002BE230E0F90120812F7DFC0120830000C7
:100530000F90DF91CF910895CF93DF931F92CDB7A6
:10054000DEB789838BE290E02BE230E0F901208175
:100550002E7FFC01208389810E94800200000F9081
:10056000DF91CF910895CF93DF931F92CDB7DEB780
:1005700089838BE290E02BE230E0F9012081216059
:10058000FC01208389810E94800200000F90DF918E
:10059000CF910895CF93DF93CDB7DEB783E30E9469
:1005A0009C0282E30E949C0288E20E949C028CE0F2
:1005B0000E949C0286E00E949C0281E00E949C02B4
:1005C00083E090E00E945F000000DF91CF910895EA
:1005D000CF93DF93CDB7DEB781E00E949C0283E02A
:1005E00090E00E945F000000DF91CF910895CF93CB
:1005F000DF93CDB7DEB780E80E949C020000DF9158
:10060000CF910895CF93DF9300D01F92CDB7DEB77F
:100610008A836B8319828B81882F90E082309105C9
:1006200041F08330910541F0019749F480E48983DA
:1006300006C084E1898303C084E589830000998131
:100640008A81890F80580E949C0200000F900F90B1
:100650000F90DF91CF910895CF93DF931F92CDB785
:10066000DEB78983698180E00E94020300000F9059
:10067000DF91CF910895CF93DF9300D0CDB7DEB750
:100680009A8389830BC089819A819C012F5F3F4F98
:100690003A832983FC0180810E94B30289819A8177
:1006A000FC018081882379F700000F900F90DF9183
:1006B000CF910895CF93DF93CDB7DEB72A970FB6CA
:1006C000F894DEBF0FBECDBF9A8789871A82198240
:1006D00026E0CE010396FC01322F11923A95E9F7FC
:1006E00089859A8540E150E09E012F5F3F4FB90117
:1006F0000E940806CE0101960E943B0300002A9644
:100700000FB6F894DEBF0FBECDBFDF91CF91089535
:10071000CF93DF93CDB7DEB72A970FB6F894DEBF3D
:100720000FBECDBF9A8789871A82198226E0CE0133
:100730000396FC01322F11923A95E9F789859A8543
:100740004AE050E09E012F5F3F4FB9010E9408062A
:10075000CE0101960E943B0300002A960FB6F89442
:10076000DEBF0FBECDBFDF91CF910895CF93DF9352
:100770001F92CDB7DEB789838981882F90E08031C1
:10078000910581F0813191051CF4892B39F016C057
:100790008032910559F0C09769F010C080E00E9446
:1007A0002C030CC081E00E942C0308C082E00E9450
:1007B0002C0304C083E00E942C03000000000F9073
:1007C000DF91CF910895CF93DF931F92CDB7DEB71E
:1007D00089838981803214F480E209C089818F374E
:1007E00011F480EA04C089818F5F898389810F9029
:1007F000DF91CF910895CF93DF9300D01F92CDB7B3
:10080000DEB781E489830E94E80281E08A831EC00A
:1008100060E082E10E9402038A81882F90E00E94BA
:1008200088031B820DC08B810E94B60389810E94C0
:10083000B30289810E94E30389838B818F5F8B835D
:100840008B81803480F38A818F5F8A838A818436AA
:10085000F8F200000F900F900F90DF91CF91089564
:10086000CF93DF9300D01F92CDB7DEB789837B8310
:100870006A8389818A3031F48A819B81BC018DE051
:100880000E94300480EC90E0FC018081882F90E091
:1008900080729927892BB1F386EC90E02981FC01C5
:1008A000208380E090E00F900F900F90DF91CF9128
:1008B0000895CF93DF93CDB7DEB78AE290E02FE3C0
:1008C000FC01208387E290E0FC0110820E94CA02B2
:1008D0008EE091E00E943B0380ED97E00E945F0074
:1008E0000E94FB03FDCFCF93DF93CDB7DEB70000AF
:1008F000DF91CF9108950E94210508F481E00895C9
:100900000E9494040C945C050E94550558F00E94C6
:100910004E0540F029F45F3F29F00C944505511134
:100920000C9490050C944B050E946D0568F3992377
:10093000B1F3552391F3951B550BBB27AA276217DB
:100940007307840738F09F5F5F4F220F331F441FE8
:10095000AA1FA9F335D00E2E3AF0E0E832D091501C
:100960005040E695001CCAF72BD0FE2F29D0660F09
:10097000771F881FBB1F261737074807AB07B0E84C
:1009800009F0BB0B802DBF01FF2793585F4F3AF052
:100990009E3F510578F00C9445050C9490055F3FFF
:1009A000E4F3983ED4F3869577956795B795F795D8
:1009B0009F5FC9F7880F911D9695879597F90895C0
:1009C000E1E0660F771F881FBB1F6217730784075C
:1009D000BA0720F0621B730B840BBA0BEE1F88F76B
:1009E000E09508950E94750588F09F5798F0B92FFB
:1009F0009927B751B0F0E1F0660F771F881F991F54
:100A00001AF0BA95C9F714C0B13091F00E948F0561
:100A1000B1E008950C948F05672F782F8827B85F71
:100A200039F0B93FCCF3869577956795B395D9F7AB
:100A30003EF490958095709561957F4F8F4F9F4FB5
:100A40000895990F0008550FAA0BE0E8FEEF16165F
:100A50001706E807F907C0F012161306E407F507B2
:100A600098F0621B730B840B950B39F40A2661F026
:100A7000232B242B252B21F408950A2609F4A140C9
:100A8000A6958FEF811D811D089597F99F6780E8D6
:100A900070E060E008959FEF80EC089500240A94D0
:100AA0001616170618060906089500240A94121649
:100AB0001306140605060895092E0394000C11F47C
:100AC000882352F0BB0F40F4BF2B11F460FF04C029
:100AD0006F5F7F4F8F4F9F4F089557FD9058440F82
:100AE000551F59F05F3F71F04795880F97FB991F8D
:100AF00061F09F3F79F0879508951216130614064A
:100B0000551FF2CF4695F1DF08C0161617061806D6
:100B1000991FF1CF86957105610508940895E894B1
:100B2000BB2766277727CB0197F908950E942105F7
:100B300008F48FEF08950E94AE050C945C050E94A6
:100B40004E0538F00E94550520F0952311F00C94C5
:100B500045050C944B0511240C9490050E946D05DD
:100B600070F3959FC1F3950F50E0551F629FF00100
:100B7000729FBB27F00DB11D639FAA27F00DB11D19
:100B8000AA1F649F6627B00DA11D661F829F2227A2
:100B9000B00DA11D621F739FB00DA11D621F839F29
:100BA000A00D611D221F749F3327A00D611D231FFF
:100BB000849F600D211D822F762F6A2F11249F574D
:100BC00050409AF0F1F088234AF0EE0FFF1FBB1F50
:100BD000661F771F881F91505040A9F79E3F51050F
:100BE00080F00C9445050C9490055F3FE4F3983E2B
:100BF000D4F3869577956795B795F795E7959F5FB9
:100C0000C1F7FE2B880F911D9695879597F908954A
:100C10004532510520F4423010F00C941306FB01CC
:100C20001082CB010895BB274A3031F4992322F476
:100C3000BDE2909581959F4F0C941F06BB27FB0149
:100C40005527AA27880F991FAA1FA41710F0A41BC5
:100C500083955051B9F7A05DAA3308F0A95DA1931F
:100C6000009779F7B111B1931192CB010C9438062A
:100C7000DC01FC01672F71917723E1F7329704C003
:100C80007C916D9370836291AE17BF07C8F308958E
:040C9000F894FFCF06
:100C9400000000020000000030040000000048656D
:0C0CA4006C6C6F20576F726C64210000B4
:00000001FF
