:100000000C9446000C9465000C9465000C946500FB
:100010000C9465000C9465000C9465000C946500CC
:100020000C9465000C9465000C9465000C946500BC
:100030000C9465000C9465000C9465000C946500AC
:100040000C9465000C9465000C9465000C9465009C
:100050000C9465000C9465000C9465000C9465008C
:100060000C9465000C9465000C9465000C9465007C
:100070000C9465000C9465000C9465000C9465006C
:100080000C9465000C9465000C94650011241FBE4F
:10009000CFEFD0E4DEBFCDBF11E0A0E0B1E0EEE3F2
:1000A000F3E000E00BBF02C007900D92A031B10752
:1000B000D9F721E0A0E1B1E001C01D92A231B20761
:1000C000E1F70E94A1000C949D010C940000CF93D5
:1000D000DF9300D01F92CDB7DEB789837B836A831D
:1000E00089818A3031F48A819B81BC018DE00E9434
:1000F000670080EC90E0FC018081882F90E08072A6
:100100009927892BB1F386EC90E02981FC012083AB
:1001100080E090E00F900F900F90DF91CF910895C5
:10012000CF93DF93CDB7DEB78AE790E02AE730E0E0
:10013000F9012081206EFC0120830000DF91CF9126
:100140000895CF93DF931F92CDB7DEB781E290E0A1
:10015000FC01108282E290E02FEFFC01208387E215
:1001600090E02FEFFC01208388E290E0FC011082F8
:100170008AE290E02FEFFC0120838BE290E0FC010B
:1001800010820E94900088E790E0FC0180819181BC
:1001900090931101809310018091100190911101B1
:1001A00089838981282F30E080910E0190910F0181
:1001B000969587959695879596958795880F991F1B
:1001C000880F991F880F991F2817390730F088E288
:1001D00090E02FEFFC012083D6CF8981482F50E09B
:1001E00080910E0190910F019C01369527953695CF
:1001F000279536952795C901880F991F880F991F54
:10020000880F991F821B930B4817590730F088E21B
:1002100090E02FE7FC012083B6CF8981482F50E082
:1002200080910E0190910F019C013695279536958E
:10023000279536952795C901880F991F820F931F1F
:10024000880F991F4817590730F088E290E02FE394
:10025000FC01208398CF8981482F50E080910E01C6
:1002600090910F019C0136952795369527953695E7
:100270002795C901880F991F880F991F820F931F17
:100280004817590730F088E290E02FE1FC01208305
:100290007ACF8981282F30E080910E0190910F0153
:1002A000969587959695879596958795880F991F2A
:1002B000880F991F2817390730F088E290E02FE067
:1002C000FC01208360CF8981482F50E080910E018E
:1002D00090910F019C013695279536952795369577
:1002E0002795C901880F991F820F931F4817590737
:1002F00030F088E290E027E0FC01208344CF898140
:10030000282F30E080910E0190910F0196958795EE
:100310009695879596958795880F991F2817390781
:1003200030F088E290E023E0FC0120832CCF88E2CB
:0E03300090E021E0FC01208326CFF894FFCF5F
:10033E000000000200000000670000000000FF0047
:00000001FF
